:02000004008179
:100F8800FFFF000000400E8438FC745F3B480014EB
:080F98000B006079000000006D
:040FBC000000001021
:020000040100F9
:1000000000000000000000000000000000000000F0
:1000100000000000000000005048434D00000000B8
:1000200000000000000000000000000000000000D0
:10003000000000000000000000000000FEFFFFFFC5
:100040000301000000007400000000010002000134
:100050000002000100F702000000000000000000A4
:100060000000000000000000000000000000000090
:100070000000000000000000000000000000000080
:100080000000000000000000000000000000000070
:100090000000000000000000000000000000000060
:1000A0000000000000000000000000000000000050
:1000B0000000000000000000000000000000000040
:1000C0000000000000000000000000000000000030
:1000D0000000000000000000000000000000000020
:1000E0000000000000000000000000000000000010
:1000F0000000000000000000000000000000000000
:1001000000000000000000000000000000000000EF
:1001100000000000000000000000000000000000DF
:1001200000000000000000000000000000000000CF
:1001300000000000000000000000000000000000BF
:1001400000000000000000000000000000000000AF
:10015000000000000000000000000000000000009F
:10016000000000000000000000000000000000008F
:10017000000000000000000000000000000000007F
:10018000000000000000000000000000000000006F
:10019000000000000000000000000000000000005F
:1001A000000000000000000000000000000000004F
:1001B000000000000000000000000000000000003F
:1001C000000000000000000000000000000000002F
:1001D000000000000000000000000000000000001F
:1001E000000000000000000000000000000000000F
:1001F00000000000000000000000000000000000FF
:10020000F0FF0720197F0201ADD00201B3D0020137
:10021000BFD00201C5D00201CBD002010000000016
:10022000000000000000000000000000FD1E0101B1
:10023000B9D0020100000000252001018720010142
:100240008FE200018FE200018FE20001B1F50001B1
:100250008FE200018FE200018FE200018FE20001D6
:100260008FE200018FE200018FE200018FE20001C6
:100270008FE200018FE200018FE200011D6F00019B
:100280008FE200018FE200018FE200018FE20001A6
:100290008FE200018FE200018FE200018FE2000196
:1002A0008FE200017D3B01018FE200018FE200013E
:1002B0008FE200018FE200018FE200018FE2000176
:1002C0008FE200018FE200018FE200018FE2000166
:1002D0008FE200018FE200018FE200018FE2000156
:1002E0008FE200018FE200018FE200018FE2000146
:1002F000C9970201C9D202018FE200018FE2000119
:100300008FE200018FE200018FE200018FE2000125
:100310008FE200018FE200018FE200018FE2000115
:100320008FE20001B15F020100203200B0330120F2
:10033000000000000000000001203200B033012066
:10034000000000000000000002203200B033012055
:10035000000000000000000003203200B033012044
:10036000000000000000000004203200B033012033
:10037000000000000000000005203200B033012022
:10038000000000000000000006203200B033012011
:10039000000000000000000007203200B033012000
:1003A000000000000000000008202000E4330120CD
:1003B000000000000000000009202000E4330120BC
:1003C00000000000000000000A202000E4330120AB
:1003D00000000000000000000B202000E43301209A
:1003E00000000000000000000C202000E433012089
:1003F00000000000000000000D202000E433012078
:1004000000000000000000000E202000E433012066
:1004100000000000000000000F202000E433012055
:100420000000000000000000F8B500BFF8BC08BCE8
:100430009E467047F59C0201F8B500BFF8BC08BCA9
:100440009E467047D19C0201881F010001000000F8
:1004500080B58AB004AFF860B9603B601346FB809A
:10046000FB889B0018460CF0A5FB38613B69002B0C
:1004700013D054200CF09EFB78617B69002B08D0D0
:100480005422002178692EF0E9FC7B693A691A63ED
:1004900005E038690CF040FC01E000237B617B69DA
:1004A000002B0DD0FA88002303937B6902937B6AAB
:1004B00001933B6A00933B68B968F86800F029F83B
:1004C0007B6918461837BD4680BD80B588B002AF3D
:1004D000F860B9603B601346FB80FA887B6A019341
:1004E0003B6A00933B68B968F868FFF7B1FF386171
:1004F0003B69002B05D0386900F07CF801237B6153
:1005000002E04FF0FF337B617B6918461837BD4628
:1005100080BD80B586B000AFF860B9603B6013461F
:10052000FB80BB6A186BFB889B001A46A5212EF046
:1005300095FCBB6A1A6BFB8803F18043013B9B006F
:1005400013443B613B6923F007033B61BB68002B0D
:100550001ED000237B6112E0BA687B6913441978CE
:10056000BA6A7B69134434330A461A70BA687B69E5
:1005700013441B78002B06D07B6901337B617B69B8
:100580000F2BE9D900E000BFBB6A002283F84320AB
:100590003B6A042B01D904233B62BB6A3A6ADA62E4
:1005A000BB6A3A6A5A64BB6A0433184618F08CF97D
:1005B000BB6A1833184618F087F9BB6ABA6A1A6121
:1005C0003B6AC3F10502BB6A9A61BB6ABA6A5A62A6
:1005D0003A68F968386911F043FC0246BB6A1A6050
:1005E0007B6A002B02D07B6ABA6A1A6000BF183798
:1005F000BD4680BD80B584B000AF786011F0DDFCF1
:100600003F4B1B6801333E4A13603E4B1B68002B77
:1006100009D13C4A7B681360394B1B68012B10D110
:1006200001F00AFB0DE0384B1B68002B09D1354B5C
:100630001B68DA6A7B68DB6A9A4202D8314A7B68B7
:100640001360324B1B680133304A13607B68DB6AEE
:1006500001229A402E4B1B6813432D4A13607B687E
:10066000DA6A2C4913469B0013449B000B44043365
:100670001B68FB607B68FA689A60FB689A687B6815
:10068000DA60FB689B687A6804325A607B681A1DDE
:10069000FB689A607B68DA6A13469B0013449B00F0
:1006A0001C4A1A447B685A617B68DA6A1949134606
:1006B0009B0013449B000B441B687A68D26A591C48
:1006C000144813469B0013449B000344196011F027
:1006D0008FFC0D4B1B68002B0ED00A4B1B68DA6A8F
:1006E0007B68DB6A9A4207D20B4B4FF080521A604C
:1006F000BFF34F8FBFF36F8F00BF1037BD4680BD74
:100700004831012070300120543101206431012032
:10071000503101207430012004ED00E080B586B036
:1007200000AF786000237B6111F047FC7B68002BF1
:1007300002D1394B1B6800E07B683B613B690433A5
:10074000184618F02BF90346002B15D13B69DA6ADD
:10075000324913469B0013449B000B441B68002B3B
:100760000AD13B69DB6A012202FA03F3DA432C4B1C
:100770001B6813402A4A13603B699B6A002B04D014
:100780003B691833184618F009F9264B1B680133EA
:10079000244A1360204B1B683A699A4201D1012315
:1007A00000E00023FB60204B1B68002B10D0FB688F
:1007B000002B0DD03B69043319461C4818F091F802
:1007C0001B4B1B6801331A4A136001237B6106E04F
:1007D000184B1B68013B174A136001F0ABFA11F08C
:1007E00007FC7B69012B02D0386901F093FA0E4BAC
:1007F0001B68002B0CD0084B1B683A699A4207D142
:100800000D4B4FF080521A60BFF34F8FBFF36F8FC5
:1008100000BF1837BD4680BD703001207430012004
:100820005031012064310120543101201C3101205C
:10083000303101204831012004ED00E080B586B060
:1008400000AF7860396000237B6100F025FC224B0B
:100850001B683B617B681B683A681344FB607B68DC
:100860001B683A699A420BD27B681B68FA689A4205
:1008700011D2FA683B699A420DD901237B610AE0E3
:100880007B681B68FA689A4203D3FA683B699A420C
:1008900001D901237B617B68FA681A607B69002BB0
:1008A00006D0FA683B69D31A0021184602F0B4F862
:1008B00000F000FCB860BB68002B07D1074B4FF07D
:1008C00080521A60BFF34F8FBFF36F8F7B6918465A
:1008D0001837BD4680BD00BF4C31012004ED00E05B
:1008E00080B584B000AF78600023FB607B68002B8C
:1008F00008D000F0D1FB0021786802F08DF800F0FC
:10090000D9FBF860FB68002B07D1064B4FF08052F3
:100910001A60BFF34F8FBFF36F8F00BF1037BD4614
:1009200080BD00BF04ED00E080B58AB000AF786004
:100930007B68FB61324B1B68FA699A4203D1002342
:1009400087F8273056E011F038FBFB695B69BB6123
:10095000FB699B6A7B612B4B1B683B612A4B1B68C5
:10096000FB6011F045FB7B69284A934203D10123C8
:1009700087F827303EE0BA693B699A4203D0BA69EA
:10098000FB689A4203D1022387F8273032E0BB6923
:100990001F4A934220D1FB699B6A002B18D1032385
:1009A00087F8273000233B620EE0FA693B6A134464
:1009B00050331B78DBB2012B03D1022387F8273099
:1009C00018E03B6A01333B623B6A002BEDDD11E02E
:1009D000022387F827300DE0BB690E4A934202D00C
:1009E000BB69002B03D1042387F8273002E00123E1
:1009F00087F8273097F8273018462837BD4680BD3E
:100A00007030012000310120043101200831012023
:100A1000343101201C31012080B584B000AF7860F2
:100A200011F0CBFA7B68002B02D1074B1B6800E06A
:100A30007B68FB60FB68DB6ABB6011F0D9FABB68BE
:100A400018461037BD4680BD7030012080B489B093
:100A500000AF7860EFF311824FF0200383F3118829
:100A6000BFF36F8FBFF34F8F3A61FB603B69FB6150
:100A70007B68002B02D10A4B1B6800E07B68BB61DE
:100A8000BB69DB6A7B61FB69BB60BB6883F3118870
:100A900000BF7B6918462437BD465DF8047B70476C
:100AA0007030012080B584B000AF786011F085FA15
:100AB0007B68002B02D1074B1B6800E07B68FB6062
:100AC000FB685B6CBB6011F093FABB68184610378B
:100AD000BD4680BD7030012080B489B000AF786021
:100AE000EFF311824FF0200383F31188BFF36F8F70
:100AF000BFF34F8F3A61FB603B69FB617B68002B62
:100B000002D10A4B1B6800E07B68BB61BB695B6C70
:100B10007B61FB69BB60BB6883F3118800BF7B69A5
:100B200018462437BD465DF8047B704770300120BD
:100B300080B588B000AF786039600023FB613B6806
:100B4000042B01D904233B6011F037FA7B68002B9A
:100B500002D1594B1B6800E07B68BB61BB695B6CD1
:100B60007B617A693B689A4200F09F803A687B69B2
:100B70009A420DD9504B1B68BA699A420FD04E4B1E
:100B80001B68DB6A3A689A4209D90123FB6106E0D7
:100B9000494B1B68BA699A4201D10123FB61BB69C9
:100BA000DB6A3B61BB695A6CBB69DB6A9A4204D061
:100BB000BB69DB6A3A689A4202D9BB693A68DA6271
:100BC000BB693A685A64BB699B69002B04DB3B68CC
:100BD000C3F10502BB699A61BB6959693A69134659
:100BE0009B0013449B00354A1344994252D1BB6980
:100BF0000433184617F0D2FE0346002B09D1012218
:100C00003B6902FA03F3DA432D4B1B6813402C4A6D
:100C10001360BB69DB6A01229A40294B1B681343AE
:100C2000274A1360BB69DA6A244913469B001344C0
:100C30009B000B4404331B68FB60BB69FA689A6035
:100C4000FB689A68BB69DA60FB689B68BA69043222
:100C50005A60BB691A1DFB689A60BB69DA6A134661
:100C60009B0013449B00154A1A44BB695A61BB6937
:100C7000DA6A124913469B0013449B000B441B681D
:100C8000BA69D26A591C0D4813469B0013449B0055
:100C900003441960FB69002B07D00A4B4FF08052C8
:100CA0001A60BFF34F8FBFF36F8F11F0A1F900BF30
:100CB0002037BD4680BD00BF703001207430012058
:100CC0005031012004ED00E080B586B000AF7860BF
:100CD00011F073F97B68002B02D13C4B1B6800E0DC
:100CE0007B683B613B690433184617F057FE0346A7
:100CF000002B15D13B69DA6A354913469B00134432
:100D00009B000B441B68002B0AD13B69DB6A012264
:100D100002FA03F3DA432F4B1B6813402D4A13608A
:100D20003B699B6A002B04D03B691833184617F0C7
:100D300035FE3B6904331946274817F0D2FD0023DE
:100D40007B6110E03A697B69134450331B78DBB256
:100D5000012B05D13A697B691344503300221A7084
:100D60007B6901337B617B69002BEBDD11F040F97E
:100D70001A4B1B68002B05D011F01FF900F0DAFFA9
:100D800011F036F9114B1B683A699A421AD1134B8C
:100D90001B68002B08D0124B4FF080521A60BFF333
:100DA0004F8FBFF36F8F0DE00B4B1B68FB600D4B3C
:100DB0001B68FA689A4203D1044B00221A6001E0D2
:100DC00000F062FC00BF1837BD4680BD70300120C6
:100DD0007430012050310120343101205431012080
:100DE00004ED00E04831012080B487B000AF7860A6
:100DF00000237B617B68FB60FB685B69144A93425C
:100E00001ED1FB689B6A134A934219D0FB689B6A08
:100E1000002B15D101237B6100233B610DE0FA68B3
:100E20003B69134450331B78DBB2012B02D1002302
:100E30007B6105E03B6901333B613B69002BEEDDE3
:100E40007B6918461C37BD465DF8047B704700BFC0
:100E5000343101200831012080B584B000AF7860C2
:100E60007B68FB60354B1B68FA689A4261D0FB686F
:100E7000002B5ED011F0A1F8F868FFF7B5FF03462C
:100E8000002B54D0FB680433184617F087FDFB682D
:100E9000DB6A01229A402A4B1B681343284A1360DD
:100EA000FB68DA6A274913469B0013449B000B44F6
:100EB00004331B68BB60FB68BA689A60BB689A68B9
:100EC000FB68DA60BB689B68FA6804325A60FB68AA
:100ED0001A1DBB689A60FB68DA6A13469B001344CC
:100EE0009B00184A1A44FB685A61FB68DA6A154984
:100EF00013469B0013449B000B441B68FA68D26A9C
:100F0000591C104813469B0013449B00034419606E
:100F10000A4B1B68DA6AFB68DB6A9A4207D20A4B03
:100F20004FF080521A60BFF34F8FBFF36F8F11F0F5
:100F30005FF800BF1037BD4680BD00BF7030012094
:100F4000503101207430012004ED00E080B58AB0FA
:100F500002AF0123FB6100233B6100237B6111E0B1
:100F60001D4A7B69134419783A467B6913440A4643
:100F70001A703A467B6913441B78002B06D07B69B4
:100F800001337B617B690F2BEADD00E000BF0023AA
:100F9000BB6116E0114B3B61BB699B00104A1344D7
:100FA000394601930023009300234FF4807238697F
:100FB000FFF78BFAF861FB69002B06D0BB690133A0
:100FC000BB61BB69002BE5DD00E000BFFB69184693
:100FD0002037BD4680BD00BFE0F60201051C0001C0
:100FE0006C31012080B582B000AFFFF7AFFF7860B1
:100FF0007B68012B15D14FF0200383F31188BFF3D9
:101000006F8FBFF34F8F3B6000BF094B4FF0FF3234
:101010001A60084B01221A60074B00221A6010F078
:1010200096FF064B1B6800BF0837BD4680BD00BF5A
:1010300068310120543101204C310120DCF60201DD
:1010400080B582B000AF00237B6009E0104A7B6866
:1010500052F823301846FFF761FB7B6801337B6051
:101060007B68002BF2DD00F027FE4FF0200383F3B6
:101070001188BFF36F8FBFF34F8F3B6000BF054BED
:1010800000221A6010F092FF00BF0837BD4680BDF5
:101090006C3101205431012080B400AF044B1B6837
:1010A0000133034A136000BFBD465DF8047B7047FF
:1010B0007031012080B588B000AF0023FB610023B0
:1010C000BB6110F07AFF00233B616D4B1B68013B55
:1010D0006B4A13606A4B1B68002B40F0CA80694B57
:1010E0001B68002B00F0C5808EE0674BDB68DB6877
:1010F000FB61FB699B6AFB60FB69DB69FA69126A49
:101100009A60FB691B6AFA69D2695A60FB685A687F
:10111000FB6918339A4203D1FB691A6AFB685A606B
:10112000FB6900229A62FB681B685A1EFB681A6002
:10113000FB695B69BB60FB699B68FA69D2689A606E
:10114000FB69DB68FA6992685A60BB685A68FB6998
:1011500004339A4203D1FB69DA68BB685A60FB69C1
:1011600000225A61BB681B685A1EBB681A60FB6983
:10117000DB6A01229A40454B1B681343434A1360C4
:10118000FB69DA6A424913469B0013449B000B44F7
:1011900004331B687B60FB697A689A607B689A6895
:1011A000FB69DA607B689B68FA6904325A60FB6904
:1011B0001A1D7B689A60FB69DA6A13469B00134428
:1011C0009B00334A1A44FB695A61FB69DA6A304969
:1011D00013469B0013449B000B441B68FA69D26AB8
:1011E000591C2B4813469B0013449B000344196071
:1011F000FB69DA6A274B1B68DB6A9A4204D9264AE4
:101200003B69012142F823101F4B1B68002B7FF420
:101210006CAFFB69002B01D000F08CFD1F4B1B68ED
:101220007B617B69002B12D000F01EF90346002B76
:1012300004D0194A3B69012142F823107B69013B24
:101240007B617B69002BEFD1144B00221A60124A9C
:101250003B6952F82330002B0BD00123BB610D4BAF
:101260001B680F4B4FF080521A60BFF34F8FBFF3D4
:101270006F8F10F0BDFEBB6918462037BD4680BD9C
:101280007031012048310120083101205031012006
:1012900074300120703001205C3101205831012070
:1012A00004ED00E080B483B000AF054B1B687B60A9
:1012B0007B6818460C37BD465DF8047B704700BF5D
:1012C0004C31012080B483B000AF00237B60054B1C
:1012D0001B683B603B6818460C37BD465DF8047BD5
:1012E000704700BF4C31012080B400AF034B1B6836
:1012F0001846BD465DF8047B704700BF48310120A9
:1013000080B485B000AF78607B68002B02D1064BBB
:101310001B6800E07B68FB60FB68343318461437B9
:10132000BD465DF8047B70477030012080B584B005
:1013300000AF7860FFF7B0FE10F03FFE074B1A6871
:101340007B681344054A136010F052FEFFF7B2FEAB
:10135000F860FB6818461037BD4680BD5831012043
:1013600080B586B000AF78607B683B61FFF794FE84
:101370007868FFF7D9FA0346022B63D101237B611A
:101380003B690433184617F009FB10F016FE3B6961
:101390009B6A002B08D03B691833184617F0FEFAF9
:1013A0003B69012283F8512010F022FE3B69DB6A81
:1013B00001229A40284B1B681343274A13603B695C
:1013C000DA6A264913469B0013449B000B440433FE
:1013D0001B68FB603B69FA689A60FB689A683B6926
:1013E000DA60FB689B683A6904325A603B691A1DEF
:1013F000FB689A603B69DA6A13469B0013449B00C2
:10140000164A1A443B695A613B69DA6A1349134622
:101410009B0013449B000B441B683A69D26A591C19
:101420000E4813469B0013449B00034419603B691C
:10143000DA6A0B4B1B68DB6A9A4205D9094B012219
:101440001A6001E000237B61FFF734FE7B691846D8
:101450001837BD4680BD00BF5031012074300120D7
:10146000703001205C31012080B588B000AF0023CE
:10147000FB617A4B1B68002B40F0E480784B1B68C3
:101480000133BB61764ABB691360BB69002B10D185
:10149000744B1B687B61744B1B68724A1360724A01
:1014A0007B691360714B1B680133704A136000F055
:1014B00041FC6F4B1B68BA699A42C0F0A880694B27
:1014C0001B681B68002B04D1694B4FF0FF321A6078
:1014D0009DE0644B1B68DB68DB683B613B695B68D4
:1014E000FB60BA69FB689A4203D2614AFB681360E9
:1014F0008DE03B695B69BB603B699B683A69D26878
:101500009A603B69DB683A6992685A60BB685A68BE
:101510003B6904339A4203D13B69DA68BB685A607D
:101520003B6900225A61BB681B685A1EBB681A607F
:101530003B699B6A002B1ED03B699B6A7B603B69C1
:10154000DB693A69126A9A603B691B6A3A69D26937
:101550005A607B685A683B6918339A4203D13B69E9
:101560001A6A7B685A603B6900229A627B681B6832
:101570005A1E7B681A603B69DB6A01229A403D4B28
:101580001B6813433B4A13603B69DA6A3A491346C6
:101590009B0013449B000B4404331B683B603B6976
:1015A0003A689A603B689A683B69DA603B689B6876
:1015B0003A6904325A603B691A1D3B689A603B697C
:1015C000DA6A13469B0013449B002B4A1A443B697A
:1015D0005A613B69DA6A284913469B0013449B0011
:1015E0000B441B683A69D26A591C234813469B0076
:1015F00013449B00034419603B69DA6A1F4B1B6864
:10160000DB6A9A427FF65BAF0123FB6157E71B4B16
:101610001B68DA6A184913469B0013449B000B446D
:101620001B68012B01D90123FB61154B1B68002BA3
:1016300001D122F01EF9134B1B68002B09D00123A6
:10164000FB6106E00E4B1B6801330D4A136022F06C
:1016500010F9FB6918462037BD4680BD7031012066
:101660004C31012000310120043101206031012082
:101670006831012050310120743001207030012088
:10168000583101205C31012080B588B000AF304B6B
:101690001B68002B03D02F4B01221A6053E02D4B07
:1016A00000221A602C4B1B681B6BFB614FF0A533AB
:1016B000BB61FB691B68BA699A4211D1FB690433AB
:1016C0001B68BA699A420BD1FB6908331B68BA6977
:1016D0009A4205D1FB690C331B68BA699A4209D05A
:1016E0001D4B1B6834337B611B4B1B6879691846A3
:1016F00022F09BF8194B1B68BB60BB68B3FA83F3FD
:10170000FB71FB79C3F11F033B613A6913469B00F0
:1017100013449B00124A1344FB60FB685B685A68E1
:10172000FB685A60FB685A68FB6808339A4203D129
:10173000FB68DA68FB685A60FB685B68DB68064A2E
:101740001360054B1B6800BF2037BD4680BD00BF3E
:10175000703101205C3101207030012050310120B6
:101760007430012080B582B000AF78603960074BDB
:101770001B6818331946786817F0D7F801213868C4
:1017800001F04AF900BF0837BD4680BD7030012026
:1017900080B586B000AFF860B9607A60174B1B68FF
:1017A000BA6842F000429A61FB685B687B61134B48
:1017B0001B687A69DA61114B1B687A6992681A6250
:1017C0000E4B1A687B699B6818325A600B4B1B687A
:1017D00003F118027B699A60084B1B68FA689A62E9
:1017E000FB681B685A1CFB681A600121786801F0CD
:1017F00013F900BF1837BD4680BD00BF703001200F
:1018000080B489B000AF78607B68DB68DB68BB615F
:10181000BB699B6A7B61BB69DB69BA69126A9A60C2
:10182000BB691B6ABA69D2695A607B695A68BB692D
:1018300018339A4203D1BB691A6A7B695A60BB6943
:1018400000229A627B691B685A1E7B691A604B4BA7
:101850001B68002B60D1BB695B69FB60BB699B683F
:10186000BA69D2689A60BB69DB68BA6992685A60E3
:10187000FB685A68BB6904339A4203D1BB69DA68D2
:10188000FB685A60BB6900225A61FB681B685A1EDC
:10189000FB681A60BB69DB6A01229A40384B1B68FF
:1018A0001343374A1360BB69DA6A364913469B0013
:1018B00013449B000B4404331B68BB60BB69BA68CC
:1018C0009A60BB689A68BB69DA60BB689B68BA6952
:1018D00004325A60BB691A1DBB689A60BB69DA6A38
:1018E00013469B0013449B00264A1A44BB695A6165
:1018F000BB69DA6A234913469B0013449B000B44DF
:101900001B68BA69D26A591C1E4813469B001344CF
:101910009B00034419601BE01B4B5B683B61BB6988
:101920003A69DA613B699A68BB691A623B699B68EC
:10193000BA6918325A60BB6903F118023B699A60B0
:10194000BB69114A9A62104B1B6801330E4A13603F
:10195000BB69DA6A0D4B1B68DB6A9A4205D9012321
:10196000FB610B4B01221A6001E00023FB61FB6964
:1019700018462437BD465DF8047B7047703101205E
:1019800050310120743001200831012070300120D5
:101990005C31012080B487B000AF786039603B686B
:1019A00043F000427B681A607B68DB687B617B6880
:1019B0001B693B617B685B687A6892689A607B68A8
:1019C0009B687A6852685A603B695B687A689A4299
:1019D00003D17B689A683B695A607B6800221A6170
:1019E0003B691B685A1E3B691A607B695B69FB6037
:1019F0007B699B687A69D2689A607B69DB687A69DF
:101A000092685A60FB685A687B6904339A4203D132
:101A10007B69DA68FB685A607B6900225A61FB685F
:101A20001B685A1EFB681A607B69DB6A01229A40B8
:101A3000264B1B681343254A13607B69DA6A2449E5
:101A400013469B0013449B000B4404331B68BB608C
:101A50007B69BA689A60BB689A687B69DA60BB6820
:101A60009B687A6904325A607B691A1DBB689A6068
:101A70007B69DA6A13469B0013449B00144A1A449C
:101A80007B695A617B69DA6A114913469B001344EA
:101A90009B000B441B687A69D26A591C0C48134698
:101AA0009B0013449B00034419607B69DA6A094B6D
:101AB0001B68DB6A9A4202D9074B01221A6000BFF9
:101AC0001C37BD465DF8047B704700BF50310120D4
:101AD00074300120703001205C31012080B582B06B
:101AE00000AF786010F069FA064B1A687B681A60DC
:101AF000054B1A687B685A6010F07AFA00BF083705
:101B0000BD4680BD603101204C31012080B483B0DE
:101B100000AF7860064B1A687B681A60054B1A683C
:101B20007B685A6000BF0C37BD465DF8047B704788
:101B3000603101204C31012080B586B000AF786063
:101B4000396010F03AFA264B1B683B617B685B6892
:101B50003A69D31AFB60234B1B6893F85130002B72
:101B600007D0204B1B68002283F8512001237B61A2
:101B70002EE03B681B68B3F1FF3F02D100237B617D
:101B800026E07B681A68184B1B689A420AD07B686B
:101B90005B683A699A4205D301237B613B68002266
:101BA0001A6015E03B681B68FA689A420BD23B68E2
:101BB0001A68FB68D21A3B681A607868FFF7A6FFBC
:101BC00000237B6104E03B6800221A6001237B61F3
:101BD00010F00EFA7B6918461837BD4680BD00BF6D
:101BE0004C310120703001206031012080B400AF01
:101BF000034B01221A6000BFBD465DF8047B7047AD
:101C00005C31012080B582B000AF786000F054F8FC
:101C1000074B1B68012B07D9064B4FF080521A6007
:101C2000BFF34F8FBFF36F8F21F01DFEEEE700BFB4
:101C30007430012004ED00E080B582B000AF0023D5
:101C40007B600CE07A6813469B0013449B00124AA9
:101C50001344184616F018FE7B6801337B607B68DE
:101C6000042BEFD90D4816F00FFE0D4816F00CFEB0
:101C70000C4816F009FE0C4816F006FE0B4816F04C
:101C800003FE0B4B054A1A600A4B054A1A6000BF57
:101C90000837BD4680BD00BF74300120D830012018
:101CA000EC300120083101201C31012034310120A9
:101CB000003101200431012080B582B000AF19E06D
:101CC00010F07BF9104BDB68DB687B607B680433CA
:101CD000184616F063FE0D4B1B68013B0B4A136060
:101CE0000B4B1B68013B0A4A136010F081F97868BE
:101CF00000F010F8064B1B68002BE1D100BF00BFBD
:101D00000837BD4680BD00BF1C310120483101208D
:101D10003031012080B582B000AF78607B681B6BEA
:101D200018460AF0F9FF78680AF0F6FF00BF083796
:101D3000BD4680BD80B400AF0A4B1B681B68002BFA
:101D400004D1094B4FF0FF321A6005E0054B1B68C8
:101D5000DB681B68044A136000BFBD465DF8047B66
:101D6000704700BF003101206831012080B483B08A
:101D700000AF054B1B687B607B6818460C37BD467F
:101D80005DF8047B704700BF7030012080B485B0DF
:101D900000AF78600023FB607B68002B05DB7B686D
:101DA000002B02DC044B1B68FB60FB6818461437F1
:101DB000BD465DF8047B70477030012080B586B069
:101DC00000AF78607B683B6100237B617B68002B00
:101DD00000F089803B69DA6A454B1B68DB6A9A42EE
:101DE00078D23B699B69002B06DB414B1B68DB6AA1
:101DF000C3F105023B699A613B6959693B69DA6A3B
:101E000013469B0013449B003A4A1344994259D10C
:101E10003B690433184616F0C1FD0346002B0AD176
:101E20003B69DB6A012202FA03F3DA43324B1B6897
:101E30001340314A13602E4B1B68DA6A3B69DA6241
:101E40003B69DB6A01229A402B4B1B6813432A4AE9
:101E500013603B69DA6A274913469B0013449B00D1
:101E60000B4404331B68FB603B69FA689A60FB68AB
:101E70009A683B69DA60FB689B683A6904325A6089
:101E80003B691A1DFB689A603B69DA6A13469B003E
:101E900013449B00174A1A443B695A613B69DA6A4A
:101EA000144913469B0013449B000B441B683A697A
:101EB000D26A591C0F4813469B0013449B000344ED
:101EC000196004E00A4B1B68DA6A3B69DA62012395
:101ED0007B6108E03B695A6C054B1B68DB6A9A42E0
:101EE00001D201237B617B6918461837BD4680BD4E
:101EF00070300120743001205031012080B586B04F
:101F000000AF78607B683B6100237B617B68002BBE
:101F10006ED03B699B6C5A1E3B699A643B69DA6AD6
:101F20003B695B6C9A4263D03B699B6C002B5FD131
:101F30003B690433184616F031FD0346002B0AD1E5
:101F40003B69DB6A012202FA03F3DA432B4B1B687D
:101F500013402A4A13603B695A6C3B69DA623B6959
:101F6000DB6AC3F105023B699A613B69DB6A0122C6
:101F70009A40224B1B681343204A13603B69DA6A7C
:101F80001F4913469B0013449B000B4404331B68FA
:101F9000FB603B69FA689A60FB689A683B69DA60A3
:101FA000FB689B683A6904325A603B691A1DFB68FA
:101FB0009A603B69DA6A13469B0013449B00104AFF
:101FC0001A443B695A613B69DA6A0D4913469B0022
:101FD00013449B000B441B683A69D26A591C084899
:101FE00013469B0013449B000344196001237B614B
:101FF0007B6918461837BD4680BD00BF50310120AF
:102000007430012080B588B000AF786039607B689B
:10201000BB6101237B617B68002B00F08380BB697F
:102020005B6C3A689A4202D93B68FB6102E0BB698B
:102030005B6CFB61BB69DB6AFA699A4272D0BB696F
:102040009B6C7A699A426DD1BB69DB6A3B61BB6963
:10205000FA69DA62BB699B69002B04DBFB69C3F197
:102060000502BB699A61BB6959693A6913469B00CD
:1020700013449B002D4A1344994253D1BB69043346
:10208000184616F08BFC0346002B0AD1BB69DB6AAD
:10209000012202FA03F3DA43254B1B681340244A5A
:1020A0001360BB69DB6A01229A40214B1B68134312
:1020B0001F4A1360BB69DA6A1C4913469B0013442C
:1020C0009B000B4404331B68FB60BB69FA689A6091
:1020D000FB689A68BB69DA60FB689B68BA6904327E
:1020E0005A60BB691A1DFB689A60BB69DA6A1346BD
:1020F0009B0013449B000D4A1A44BB695A61BB699B
:10210000DA6A0A4913469B0013449B000B441B6880
:10211000BA69D26A591C054813469B0013449B00B8
:102120000344196000BF2037BD4680BD74300120D4
:102130005031012080B483B000AF094B1B689B690C
:102140007B60074B1B68DA6A054B1B68C2F105020E
:102150009A617B6818460C37BD465DF8047B704772
:102160007030012080B483B000AF094B1B687B60E6
:102170007B68002B04D07B689B6C5A1C7B689A643C
:102180007B6818460C37BD465DF8047B704700BF7E
:102190007030012080B588B000AFF860B9607A6017
:1021A0000023FB61FEF778FF0FF007FF2F4B1A6843
:1021B000FB6812339B0013445B68002B0BD12B4B45
:1021C0001A68FB681344503301221A707B68002B95
:1021D00001D00123FB610FF00BFFFB69012B03D141
:1021E0000121786800F018FCFEF764FFB861FB6914
:1021F000012B0AD1BB69002B07D11D4B4FF0805238
:102200001A60BFF34F8FBFF36F8F0FF0D6FE174BDF
:102210001A68FB6812339B0013445B687B617B691F
:10222000002B14D0BB68002B08D0104B1A68FB6839
:1022300012339B00134400225A6008E00B4B1968CC
:102240007B695A1EFB6812339B000B445A60074B94
:102250001A68FB681344503300221A700FF0C8FE4E
:102260007B6918462037BD4680BD00BF7030012015
:1022700004ED00E080B588B000AFF860B9607A6026
:102280003B600023BB61FEF707FF0FF096FE3B4B60
:102290001A68FB68134450331B78DBB2022B1AD048
:1022A000364B1A68FB6812339B0013445968BB68AD
:1022B000DB431940FB6812339B00134459602F4BDA
:1022C0001A68FB681344503301221A70BB6A002B52
:1022D00001D00123BB610FF08BFEBB69012B03D141
:1022E0000121B86A00F098FBFEF7E4FE7861BB6953
:1022F000012B0AD17B69002B07D1214B4FF0805273
:102300001A60BFF34F8FBFF36F8F0FF056FE3B681D
:10231000002B08D0194B1A68FB6812339B0013443A
:102320005A683B681A60154B1A68FB6813445033AF
:102330001B78DBB2022B02D00023FB6110E00F4BB5
:102340001A68FB6812339B00134459687B68DB43AF
:102350001940FB6812339B00134459600123FB6151
:10236000064B1A68FB681344503300221A700FF0B2
:102370003FFEFB6918462037BD4680BD7030012006
:1023800004ED00E080B58AB000AFF860B9607A6013
:10239000FB7001237B62FB683B620FF00EFE3B6B20
:1023A000002B07D03A6ABB6812339B0013445A686B
:1023B0003B6B1A603A6ABB68134450331B78FB7757
:1023C0003A6ABB681344503302221A70FB78042B1C
:1023D0003FD801A252F823F053240001ED2300015D
:1023E0000B24000127240001372400013A6ABB684E
:1023F00012339B0013445A687B681A43396ABB68DE
:1024000012339B000B445A6024E03A6ABB681233D3
:102410009B0013445B685A1C396ABB6812339B00EB
:102420000B445A6016E03A6ABB6812339B001344AF
:102430007A685A600EE0FB7F022B07D03A6ABB68CD
:1024400012339B0013447A685A6003E000237B62D6
:1024500000E000BFFB7F012B6ED13B6A5B69BB6173
:102460003B6A9B683A6AD2689A603B6ADB683A6A60
:1024700092685A60BB695A683B6A04339A4203D136
:102480003B6ADA68BB695A603B6A00225A61BB69E1
:102490001B685A1EBB691A603B6ADB6A01229A40BC
:1024A000294B1B681343284A13603B6ADA6A2749A1
:1024B00013469B0013449B000B4404331B687B6151
:1024C0003B6A7A699A607B699A683B6ADA607B69E1
:1024D0009B683A6A04325A603B6A1A1D7B699A60AB
:1024E0003B6ADA6A13469B0013449B00174A1A445E
:1024F0003B6A5A613B6ADA6A144913469B001344EB
:102500009B000B441B683A6AD26A591C0F48134659
:102510009B0013449B00034419600D4B1B68DA6A4F
:102520003B6ADB6A9A4207D20A4B4FF080521A602C
:10253000BFF34F8FBFF36F8F0FF05AFD7B6A1846C2
:102540002837BD4680BD00BF5031012074300120C6
:102550007030012004ED00E080B48FB000AFF8606F
:10256000B9607A60FB7001237B63FB683B63EFF328
:1025700011824FF0200383F31188BFF36F8FBFF3F5
:102580004F8FBA617B61BB69FB623B6C002B07D04C
:102590003A6BBB6812339B0013445A683B6C1A6059
:1025A0003A6BBB68134450331B7887F82B303A6B77
:1025B000BB681344503302221A70FB78042B41D8B5
:1025C00001A252F823F000BF45260001DD250001DD
:1025D000FB25000117260001272600013A6BBB6886
:1025E00012339B0013445A687B681A43396BBB68EB
:1025F00012339B000B445A6025E03A6BBB681233E0
:102600009B0013445B685A1C396BBB6812339B00F8
:102610000B445A6017E03A6BBB6812339B001344BB
:102620007A685A600FE097F82B30022B07D03A6B8C
:10263000BB6812339B0013447A685A6003E000239E
:102640007B6300E000BF97F82B30012B40F09180B6
:102650004E4B1B68002B60D13B6B5B693B623B6B55
:102660009B683A6BD2689A603B6BDB683A6B926806
:102670005A603B6A5A683B6B04339A4203D13B6B06
:10268000DA683B6A5A603B6B00225A613B6A1B68FE
:102690005A1E3B6A1A603B6BDB6A01229A403C4B34
:1026A0001B6813433A4A13603B6BDA6A3949134695
:1026B0009B0013449B000B4404331B68FB613B6B82
:1026C000FA699A60FB699A683B6BDA60FB699B6800
:1026D0003A6B04325A603B6B1A1DFB699A603B6B84
:1026E000DA6A13469B0013449B002A4A1A443B6B48
:1026F0005A613B6BDA6A274913469B0013449B00DF
:102700000B441B683A6BD26A591C224813469B0043
:1027100013449B00034419601BE01F4B5B687B6202
:102720003B6B7A6ADA617B6A9A683B6B1A627B6AF6
:102730009B683A6B18325A603B6B03F118027B6A54
:102740009A603B6B144A9A62134B1B680133124A1E
:1027500013603B6BDA6A114B1B68DB6A9A4208D93B
:102760007B6C002B02D07B6C01221A600C4B012287
:102770001A60FB6A3B613B6983F3118800BF7B6B86
:1027800018463C37BD465DF8047B70477031012028
:1027900050310120743001200831012070300120B7
:1027A0005C31012080B48FB000AFF860B9607A600E
:1027B000FB687B63EFF311824FF0200383F31188F2
:1027C000BFF36F8FBFF34F8FFA61BB61FB693B6350
:1027D0007A6BBB68134450331B7887F82F307A6BC1
:1027E000BB681344503302221A707A6BBB681233F1
:1027F0009B0013445B685A1C796BBB6812339B00C7
:102800000B445A6097F82F30012B40F091804E4BCB
:102810001B68002B60D17B6B5B697B627B6B9B6869
:102820007A6BD2689A607B6BDB687A6B92685A60CD
:102830007B6A5A687B6B04339A4203D17B6BDA68FC
:102840007B6A5A607B6B00225A617B6A1B685A1E46
:102850007B6A1A607B6BDB6A01229A403B4B1B68E8
:1028600013433A4A13607B6BDA6A394913469B007B
:1028700013449B000B4404331B683B627B6B3A6A36
:102880009A603B6A9A687B6BDA603B6A9B687A6BFA
:1028900004325A607B6B1A1D3B6A9A607B6BDA6A62
:1028A00013469B0013449B00294A1A447B6B5A61D0
:1028B0007B6BDA6A264913469B0013449B000B444A
:1028C0001B687A6BD26A591C214813469B0013443B
:1028D0009B00034419601BE01E4B5B68BB627B6B73
:1028E000BA6ADA61BB6A9A687B6B1A62BB6A9B68D8
:1028F0007A6B18325A607B6B03F11802BB6A9A60DC
:102900007B6B144A9A62134B1B680133114A1360A4
:102910007B6BDA6A104B1B68DB6A9A4208D97B68CA
:10292000002B02D07B6801221A600C4B01221A6036
:102930003B6B7B617B6983F3118800BF00BF3C3731
:10294000BD465DF8047B7047703101205031012095
:102950007430012008310120703001205C310120E9
:1029600080B584B000AF786039607B68002B02D1FD
:10297000104B1B6800E07B68BB600FF01EFBBA6861
:102980003B68134450331B78DBB2022B08D1BA6882
:102990003B681344503300221A700123FB6001E0AE
:1029A0000023FB600FF024FBFB6818461037BD4680
:1029B00080BD00BF7030012080B586B000AFF860E8
:1029C000B9607A60FB68002B02D1124B1B6800E0F3
:1029D000FB687B610FF0F1FA7A69BB6812339B00E8
:1029E00013445B683B617A69BB6812339B001344F4
:1029F0005A687B68DB431A407969BB6812339B00D5
:102A00000B445A600FF0F4FA3B6918461837BD467C
:102A100080BD00BF7030012080B588B000AF786005
:102A20003960394B1B68FB61384B1B68BB61384B05
:102A30001B687B61374B1B68002283F85120354BA4
:102A40001B680433184615F0A9FF0346002B0BD171
:102A5000304B1B68DB6A012202FA03F3DA432E4B88
:102A60001B6813402C4A13607B68B3F1FF3F24D1ED
:102A70003B68002B21D0294B5B683B61254B1B68D1
:102A80003A699A60234B1B683A699268DA60214B75
:102A90001A683B699B6804325A601E4B1B681A1DFA
:102AA0003B699A601B4B1B681C4A5A611B4B1B6895
:102AB00001331A4A136000BF22E0FA697B681344AD
:102AC000FB60144B1B68FA685A60FA68FB699A420B
:102AD00007D2104B1B6804331946786915F025FF9F
:102AE0000EE00C4B1B6804331946B86915F01DFF46
:102AF0000B4B1B68FA689A4202D2094AFB681360C2
:102B000000BF2037BD4680BD4C310120003101207F
:102B10000431012070300120503101203431012076
:102B20006831012080B483B000AF1A4B00221A60D4
:102B3000194B00221A60194B00221A60184B002210
:102B40001A60184B00221A60174B00221A60174BAC
:102B500000221A6000237B6007E0154A7B68002191
:102B600042F823107B6801337B607B68002BF4DD27
:102B7000104B00221A60104B00221A600F4B0022EB
:102B80001A600F4B00221A6000BF0C37BD465DF87B
:102B9000047B704770300120303101204831012022
:102BA0004C31012050310120543101205831012095
:102BB0005C31012060310120643101206831012045
:102BC0007031012080B584B000AF78603960012396
:102BD000FB607B68BB60BB68002B5DD0BB68DB6BB8
:102BE000002B59D0BB681A6CBB68DB6B0021A3FBC0
:102BF0000223002B00D001210B46002B4CD10FF0FB
:102C0000DCF9BB681A68BB68DB6BB968096C01FB4F
:102C100003F31A44BB689A60BB6800229A63BB68DE
:102C20001A68BB685A60BB681A68BB68DB6B013BFB
:102C3000B968096C01FB03F31A44BB68DA60BB682E
:102C4000FF2283F84420BB68FF2283F845203B68BD
:102C5000002B14D1BB681B69002B1AD0BB68103342
:102C60001846FEF7CDFD0346002B12D00E4B4FF059
:102C700080521A60BFF34F8FBFF36F8F09E0BB68BC
:102C80001033184615F000FEBB682433184615F0C3
:102C9000FBFD0FF0ADF901E00023FB60FB68184677
:102CA0001037BD4680BD00BF04ED00E080B58AB09E
:102CB00002AFF860B9601346FB710023FB61FB684B
:102CC000002B2DD00021BA68FB68A3FB0223002B48
:102CD00000D001210B46002B22D1FB68BA6802FB11
:102CE00003F313F14D0F1BD8FB68BA6802FB03F323
:102CF000BB61BB694C33184609F05CFFF861FB69A6
:102D0000002B0DD0FB697B617B694C337B61FA79C9
:102D1000FB69009313467A69B968F86800F005F812
:102D2000FB6918462037BD4680BD80B584B000AF32
:102D3000F860B9607A60FB70BB68002B03D1BB6997
:102D4000BA691A6002E0BB697A681A60BB69FA68FE
:102D5000DA63BB69BA681A640121B869FFF732FF08
:102D6000BB6900229A6400BF1037BD4680BD80B5A4
:102D700082B000AF78607B68002B0ED07B680022A9
:102D80009A607B6800221A607B680022DA60002368
:102D900000220021786800F03BF800BF0837BD46EC
:102DA00080BD80B586B000AF0346FB7101237B6117
:102DB00000233B61FB791A4639697869FFF776FF92
:102DC000F860F868FFF7D3FFFB6818461837BD4670
:102DD00080BD80B584B000AF786039600023FB60AF
:102DE0007B68002B0FD03A687B689A420BD802228E
:102DF00000217868FFF75AFFF860FB68002B02D0CB
:102E0000FB683A689A63FB6818461037BD4680BD78
:102E100080B58AB000AFF860B9607A603B6000238B
:102E20007B62FB683B620FF0C8F83B6A9A6B3B6AB7
:102E3000DB6B9A4202D33B68022B45D13B6A9B6B0A
:102E4000FB613A68B968386A00F0A6FCB8613B6A71
:102E50009B6C002B14D03B68022B02D1FB69002B2A
:102E60002ED1386A00F05CFE0346002B28D04A4B76
:102E70004FF080521A60BFF34F8FBFF36F8F1FE088
:102E80003B6A5B6A002B10D03B6A24331846FEF77E
:102E9000B7FC0346002B13D03F4B4FF080521A6013
:102EA000BFF34F8FBFF36F8F0AE0BB69002B07D0D2
:102EB000394B4FF080521A60BFF34F8FBFF36F8FC3
:102EC0000FF096F8012363E07B68002B03D10FF02D
:102ED0008FF800235CE07B6A002B06D107F110031A
:102EE0001846FEF713FE01237B620FF081F8FEF710
:102EF000D3F80FF062F83B6A93F844305BB2B3F159
:102F0000FF3F03D13B6A002283F844203B6A93F8D9
:102F100045305BB2B3F1FF3F03D13B6A002283F837
:102F200045200FF065F83A1D07F1100311461846C9
:102F3000FEF702FE0346002B24D1386A00F047FD5D
:102F40000346002B18D03B6A10337A6811461846A6
:102F5000FEF708FC386A00F0AFFCFEF7ABF803465A
:102F6000002B7FF460AF0C4B4FF080521A60BFF320
:102F70004F8FBFF36F8F56E7386A00F09DFCFEF766
:102F800099F850E7386A00F097FCFEF793F80023B1
:102F900018462837BD4680BD04ED00E080B58EB0F0
:102FA00000AFF860B9607A603B60FB683B63EFF3A9
:102FB00011824FF0200383F31188BFF36F8FBFF3AB
:102FC0004F8FFA61BB61FB69FB623B6B9A6B3B6B9A
:102FD000DB6B9A4202D33B68022B4ED13B6B93F8DA
:102FE000453087F82B303B6B9B6B7B623A68B96846
:102FF000386B00F0D1FB97F92B30B3F1FF3F29D1AB
:103000003B6B9B6C002B12D03B68022B02D17B6A7E
:10301000002B2FD1386B00F083FD0346002B29D005
:103020007B68002B26D07B6801221A6022E03B6B74
:103030005B6A002B1ED03B6B24331846FEF7E0FB87
:103040000346002B16D07B68002B13D07B6801222F
:103050001A600FE0FEF748F9386297F92B303A6AA8
:103060009A4207D997F82B300133DBB25AB23B6B47
:1030700083F8452001237B6301E000237B63FB6A27
:103080007B617B6983F3118800BF7B6B18463837FF
:10309000BD4680BD80B58CB000AF786039607B687C
:1030A000BB62EFF311824FF0200383F31188BFF36B
:1030B0006F8FBFF34F8F7A613B617B697B62BB6A25
:1030C0009B6B3B62BB6ADB6B3A6A9A4242D2BB6A39
:1030D00093F84530FB773B6A5A1CBB6A9A6397F9B1
:1030E0001F30B3F1FF3F23D1BB6A9B6C002B0CD088
:1030F000B86A00F015FD0346002B28D03B68002B72
:1031000025D03B6801221A6021E0BB6A5B6A002B74
:103110001DD0BB6A24331846FEF772FB0346002B12
:1031200015D03B68002B12D03B6801221A600EE0DC
:10313000FEF7DAF8B86197F91F30BA699A4206D9F2
:10314000FB7F0133DBB25AB2BB6A83F8452001230F
:10315000FB6201E00023FB627B6AFB60FB6883F398
:10316000118800BFFB6A18463037BD4680BD80B568
:103170008AB000AFF860B9607A6000237B62FB68B8
:103180003B620EF01AFF3B6A9B6BFB61FB69002BF5
:103190001FD0B968386A00F069FBFB695A1E3B6AA8
:1031A0009A633B6A1B69002B0FD03B6A10331846A9
:1031B000FEF726FB0346002B07D03D4B4FF0805215
:1031C0001A60BFF34F8FBFF36F8F0EF011FF012313
:1031D00069E07B68002B03D10EF00AFF002362E058
:1031E0007B6A002B06D107F114031846FEF78EFC0C
:1031F00001237B620EF0FCFEFDF74EFF0EF0DDFEBC
:103200003B6A93F844305BB2B3F1FF3F03D13B6AB2
:10321000002283F844203B6A93F845305BB2B3F157
:10322000FF3F03D13B6A002283F845200EF0E0FE09
:103230003A1D07F1140311461846FEF77DFC0346BC
:10324000002B23D1386A00F096FB0346002B17D0E1
:103250003B6A24337A6811461846FEF783FA386AC7
:1032600000F02AFBFDF726FF0346002B89D1104B07
:103270004FF080521A60BFF34F8FBFF36F8F80E71C
:10328000386A00F019FBFDF715FF7AE7386A00F09D
:1032900013FBFDF70FFF386A00F06DFB0346002BB0
:1032A0003FF46FAF002318462837BD4680BD00BFEE
:1032B00004ED00E080B58AB000AF7860396000238B
:1032C0007B627B68FB6100233B620EF076FEFB694C
:1032D0009B6BBB61BB69002B24D0BB695A1EFB6989
:1032E0009A63FB691B68002B04D1FEF73BFF024683
:1032F000FB699A60FB691B69002B0FD0FB691033D7
:103300001846FEF77DFA0346002B07D04C4B4FF0D2
:1033100080521A60BFF34F8FBFF36F8F0EF068FEBD
:10332000012389E03B68002B03D10EF061FE0023EE
:1033300082E07B6A002B06D107F10C031846FEF7EA
:10334000E5FB01237B620EF053FEFDF7A5FE0EF0B8
:1033500034FEFB6993F844305BB2B3F1FF3F03D115
:10336000FB69002283F84420FB6993F845305BB287
:10337000B3F1FF3F03D1FB69002283F845200EF033
:1033800037FE3A4607F10C0311461846FEF7D4FB08
:103390000346002B32D1F86900F0EDFA0346002B0A
:1033A00026D0FB691B68002B09D10EF006FEFB69D5
:1033B0009B681846FEF702FD38620EF019FEFB69A5
:1033C00024333A6811461846FEF7CCF9F86900F044
:1033D00073FAFDF76FFE0346002B7FF476AF184BB0
:1033E0004FF080521A60BFF34F8FBFF36F8F6CE7BF
:1033F000F86900F061FAFDF75DFE66E7F86900F034
:103400005BFAFDF757FEF86900F0B5FA0346002BAA
:103410003FF45BAF3B6A002B0DD00EF0CEFDF86998
:1034200000F0A2F97861FB699B6879691846FEF79C
:10343000E9FD0EF0DDFD002318462837BD4680BDAE
:1034400004ED00E080B58AB000AFF860B9607A6042
:1034500000237B62FB683B620EF0AFFD3B6A9B6B17
:10346000FB61FB69002B21D03B6ADB68BB61B9685B
:10347000386A00F0FBF93B6ABA69DA603B6A5B6A5A
:10348000002B0FD03B6A24331846FEF7B9F90346E8
:10349000002B07D03C4B4FF080521A60BFF34F8F88
:1034A000BFF36F8F0EF0A4FD012369E07B68002B52
:1034B00003D10EF09DFD002362E07B6A002B06D154
:1034C00007F110031846FEF721FB01237B620EF083
:1034D0008FFDFDF7E1FD0EF070FD3B6A93F844307F
:1034E0005BB2B3F1FF3F03D13B6A002283F8442073
:1034F0003B6A93F845305BB2B3F1FF3F03D13B6ABF
:10350000002283F845200EF073FD3A1D07F11003E9
:1035100011461846FEF710FB0346002B23D1386AEC
:1035200000F029FA0346002B17D03B6A24337A684F
:1035300011461846FEF716F9386A00F0BDF9FDF796
:10354000B9FD0346002B87D10F4B4FF080521A6014
:10355000BFF34F8FBFF36F8F7EE7386A00F0ACF98F
:10356000FDF7A8FD78E7386A00F0A6F9FDF7A2FD9F
:10357000386A00F000FA0346002B3FF46DAF0023D9
:1035800018462837BD4680BD04ED00E080B58EB0FA
:1035900000AFF860B9607A60FB683B63EFF31182BB
:1035A0004FF0200383F31188BFF36F8FBFF34F8F6A
:1035B000FA61BB61FB69FB623B6B9B6BBB62BB6AE5
:1035C000002B37D03B6B93F8443087F82730B9682D
:1035D000386B00F04BF9BB6A5A1E3B6B9A6397F944
:1035E0002730B3F1FF3F12D13B6B1B69002B1ED07C
:1035F0003B6B10331846FEF703F90346002B16D039
:103600007B68002B13D07B6801221A600FE0FDF766
:103610006BFE386297F927303A6A9A4207D997F8D1
:1036200027300133DBB25AB23B6B83F844200123CD
:103630007B6301E000237B63FB6A7B617B6983F32F
:10364000118800BF7B6B18463837BD4680BD80B5FA
:103650008AB000AF786039607B683B62EFF311821B
:103660004FF0200383F31188BFF36F8FBFF34F8FA9
:103670007A613B617B69FB613B6A9B6B002B0CD0E1
:103680003B6ADB68BB613968386A00F0EFF83B6A77
:10369000BA69DA6001237B6201E000237B62FB6987
:1036A000FB60FB6883F3118800BF7B6A18462837EC
:1036B000BD4680BD80B584B000AF78600EF07DFC63
:1036C0007B689B6BFB600EF093FCFB681846103721
:1036D000BD4680BD80B584B000AF78607B68FB607C
:1036E0000EF06BFCFB68DA6BFB689B6BD31ABB605C
:1036F0000EF07EFCBB6818461037BD4680BD80B416
:1037000085B000AF78607B68FB60FB689B6BBB603B
:10371000BB6818461437BD465DF8047B704780B51A
:1037200084B000AF78607B68FB60F86809F0F4FA59
:1037300000BF1037BD4680BD80B483B000AF786055
:103740007B681B6C18460C37BD465DF8047B7047E0
:1037500080B483B000AF78607B68DB6B18460C37B1
:10376000BD465DF8047B704780B485B000AF7860DB
:103770007B685B6A002B06D07B681B6B1B68C3F100
:103780000503FB6001E00023FB60FB68184614376B
:10379000BD465DF8047B704780B586B000AFF86029
:1037A000B9607A6000237B61FB689B6B3B61FB68BF
:1037B0001B6C002B0DD1FB681B68002B4DD1FB68E7
:1037C0009B681846FEF79AFB7861FB6800229A60B6
:1037D00043E07B68002B19D1FB685868FB681B6CC1
:1037E0001A46B9682BF0F6F8FB685A68FB681B6C40
:1037F0001A44FB685A60FB685A68FB689B689A42E7
:103800002BD3FB681A68FB685A6026E0FB68D8680F
:10381000FB681B6C1A46B9682BF0DCF8FB68DA68A9
:10382000FB681B6C5B421A44FB68DA60FB68DA6871
:10383000FB681B689A4207D2FB689A68FB681B6C9E
:103840005B421A44FB68DA607B68022B05D13B6956
:10385000002B02D03B69013B3B613B695A1CFB6872
:103860009A637B6918461837BD4680BD80B582B023
:1038700000AF786039607B681B6C002B18D07B68C8
:10388000DA687B681B6C1A447B68DA607B68DA68EC
:103890007B689B689A4203D37B681A687B68DA600E
:1038A0007B68D9687B681B6C1A4638682BF092F8E5
:1038B00000BF0837BD4680BD80B584B000AF7860DA
:1038C0000EF07BFB7B6893F84530FB731EE07B6852
:1038D0009B6C002B08D0786800F022F90346002B7F
:1038E00010D0FEF783F90DE07B685B6A002B12D0E5
:1038F0007B6824331846FDF783FF0346002B01D075
:10390000FEF774F9FB7B013BDBB2FB7397F90F30D9
:10391000002BDCDC00E000BF7B68FF2283F8452041
:103920000EF066FB0EF049FB7B6893F84430BB73E6
:1039300011E07B681B69002B12D07B68103318469E
:10394000FDF75EFF0346002B01D0FEF74FF9BB7B6E
:10395000013BDBB2BB7397F90E30002BE9DC00E0D2
:1039600000BF7B68FF2283F844200EF041FB00BFBC
:103970001037BD4680BD80B584B000AF78600EF0D2
:103980001CFB7B689B6B002B02D10123FB6001E0D9
:103990000023FB600EF02CFBFB6818461037BD4679
:1039A00080BD80B485B000AF78607B68BB60BB68C9
:1039B0009B6B002B02D10123FB6001E00023FB6025
:1039C000FB6818461437BD465DF8047B704780B528
:1039D00084B000AF78600EF0F0FA7B689A6B7B6879
:1039E000DB6B9A4202D10123FB6001E00023FB6004
:1039F0000EF0FEFAFB6818461037BD4680BD80B455
:103A000085B000AF78607B68BB60BB689A6BBB68B1
:103A1000DB6B9A4202D10123FB6001E00023FB60D3
:103A2000FB6818461437BD465DF8047B704780B5C7
:103A300084B000AF7860002204217868FFF736F97F
:103A4000F860FB6818461037BD4680BD80B584B06D
:103A500000AF786039600EF0B0FA7B689B6C002B89
:103A600002D00023FB600BE07B689B6B002B02D035
:103A70000023FB6004E07B683A689A640123FB60E2
:103A80000EF0B6FAFB6818461037BD4680BD80B50B
:103A900084B000AF786039607B68BB60BB689B6CAA
:103AA0003A689A4202D00023FB600FE0BB689B6B30
:103AB000002B02D00023FB6008E00EF07EFABB680A
:103AC00000229A640EF094FA0123FB60FB6818460A
:103AD0001037BD4680BD80B584B000AF78603960D6
:103AE0000023FB6007F10C033A6819467868FFF77A
:103AF0003EFBFB6818461037BD4680BD80B584B0DC
:103B000000AF78600023FB6007F10C030022194628
:103B10007868FFF73BFDFB6818461037BD4680BD4F
:103B200080B586B000AF78607B689B6C3B610023FA
:103B30007B613B699A6B3B69DB6B9A422DD23B6997
:103B400093F84530FB733B1D002219463869FFF797
:103B500023FE786197F90F30B3F1FF3F0ED13B6937
:103B60005B6A002B19D03B6924331846FDF748FEE9
:103B70000346002B11D001237B610EE0FDF7B4FB5F
:103B8000B86097F90F30BA689A4206D9FB7B0133C7
:103B9000DBB25AB23B6983F845207B691846183777
:103BA000BD4680BD08B5044B186818B1804780F049
:103BB0000100C0B208BD00BF042B012004292CD88D
:103BC000DFE801F00308161D2400184A9388184402
:103BD00090807047154A9388184480B2C11C4FF6F4
:103BE000FC730B40984201D90430F1E79380704791
:103BF0000E4A93880F33184420F00F00E8E70B4A71
:103C000093881F33184420F01F00E1E7074A938888
:103C10003F33184420F03F00DAE74FF0200383F3EE
:103C20001188BFF36F8FBFF34F8FFEE7042B012086
:103C300070B5104A94790023D9B28C4201D8002083
:103C40000BE05D1C9B00D118B1F8076086420ED1D5
:103C5000B1F8092012B10848184470BD4FF0200394
:103C600083F31188BFF36F8FBFF34F8FFEE72B46AF
:103C7000E2E700BF042B01200B2B012010B5044606
:103C8000FFF7D6FF40B14FF0200383F31188BFF355
:103C90006F8FBFF34F8FFEE70B4B9879020608D565
:103CA0004FF0200383F31188BFF36F8FBFF34F8F63
:103CB000FEE7421C9A7103EB80020733A2F807402B
:103CC00003EB800010BD00BF042B012010B504469B
:103CD000FFF7AEFF40B94FF0200383F31188BFF325
:103CE0006F8FBFF34F8FFEE72046FFF7A1FF054A16
:103CF0009379013BDBB2937102EB8303D3F8073076
:103D0000036010BD042B012008B5FFF791FF00B13F
:103D1000408808BD09B91046704780B1037883EA2E
:103D2000122383EA131343EA022282EA033282EA6D
:103D3000431292B200B10130013989B2EAE7FF23A0
:103D4000EDE72DE9F04F85B081460E9E8A469046FC
:103D500006B11E4443449CB247465546A74203D190
:103D6000012005B0BDE8F08F95B36A4610232946BF
:103D700048460DF05BF9BDF80420944208D9BDF81F
:103D8000063013449BB29F4202D29C4203D91F4685
:103D9000BDF80A50E8E79742A4EB020128BFE31BF5
:103DA00089B234BF0B469BB2A4EB030432BFBDF80B
:103DB0000AB04746D346A4B246B110352944F61A94
:103DC000C91A324689B248460DF030F95D46C5E75A
:103DD0002846C6E72DE9F74FD4889688804689465D
:103DE00044F307254FF6FF77002D03DA384603B07A
:103DF000BDE8F08F1CD0A4F580741FFA84FA4FF44C
:103E00008074DFF834B0CDF800B02346324649461E
:103E10004046FFF796FF38B13A4621465846FFF72D
:103E200079FF2644B6B20746013D6DB25446DBE742
:103E3000002CDBD0A246E4E70B2D012010B5084C86
:103E400094F807030DF094F94FF48042002194F8A0
:103E500007030DF0B5F910B14FF48073A38010BDC6
:103E6000042B01202DE9F041094C05460E4617466A
:103E700013460A46014694F807030DF00DF93B4638
:103E80003246294694F80703BDE8F0410DF0E6B943
:103E9000042B01207FB545F24143ADF806300D4BB0
:103EA000CDE902300C4BC043B3F8083304904FF611
:103EB000FF7210210DF10600ADF81430FFF72AFF54
:103EC0001222ADF8040001A90020FFF7CBFF07B0D4
:103ED0005DF804FB534E7632042B01202DE9F041AE
:103EE000234CB4F80A33B4F80C530B449BB2FF2BA9
:103EF00006460F46A4F80A3304F207280BD80A46F0
:103F0000284441463D442AF065FD0127A4F80C539E
:103F10003846BDE8F081C5F58072414628442AF054
:103F200059FD4FF480723146A088FFF79BFF07468A
:103F30000028EDD000214FF48070FFF73FFEB4F869
:103F40000A53B4F80C13A5F580750023ADB2A4F89C
:103F50000C33A4F80A53002DDAD0C1F580712A463B
:103F600018FA81F130462AF035FDA4F80C53CFE75A
:103F7000042B01202DE9F04F714C94F807738FB09A
:103F80000021122309AA3846A4F80E13A4F810132E
:103F9000A4F80C13A4F80A130DF048F80B9B039334
:103FA00094F807330133DBB2012B88BF002384F878
:103FB000073394F80733BB4208D14FF0200383F353
:103FC0001188BFF36F8FBFF34F8FFEE7FFF736FF08
:103FD0000028E5D000230293DFF86C8182E0029B89
:103FE000DFF868A104EB830B05AABBF80990102346
:103FF000494638460DF01AF80026BDF81C50ADF8B9
:104000001A5005AA49463846ADF81860CDF81E602A
:10401000FFF7E0FE4FF6FF72ADF814000E2105A881
:10402000FFF778FEF022ADF82200FF2150462AF07B
:1040300015FF05AB03CB1035C8F80000C8F8041015
:10404000B4F80C2303CBA388C8F80800ADB213441E
:10405000B5F5807FC8F80C10ABF809301AD8CDF848
:1040600000A0BDF81C30324649463846FFF769FECD
:1040700058B1A388B4F80C231344ABF8093029468F
:104080000AF1FB00FFF72AFF40BB002420460FB0D7
:10409000BDE8F08F102300BFB5F5807FAA4628BF8A
:1040A0004FF4807AAAEB030B1FFA8BFB4344009377
:1040B00032465B4649463846FFF743FE0028E4D0C7
:1040C00051462048FFF70AFF0028DED0A5EB0A057D
:1040D0005E44ADB2B6B20023002DDDD1029B0133A8
:1040E000DBB20293A379029A93423FF678AFB4F819
:1040F0000A23F2B9B4F80A030021FFF75FFDA38891
:10410000A4F80833039B581EFFF7C4FE044600289A
:10411000BBD003210020FFF751FD1222FF2109A887
:104120002AF09CFE122309AA002138460CF0B4FFA5
:10413000ACE70449A088FFF795FE0028DAD1A4E790
:10414000042B0120162E01200B2D01201B2D0120F8
:1041500008B50A4B9B88C3F580439BB283420BD2C0
:10416000FFF708FF40B94FF0200383F31188BFF336
:104170006F8FBFF34F8FFEE708BD00BF042B0120F8
:104180002DE9F84F364D044605F2072988464FF4CD
:104190008072FF2148462AF061FEE1884FF6FF72E7
:1041A0004046FFF7B7FD4FF6FF7220800E212046F4
:1041B000FFF7B0FD2368E081C5F807326368C9F8EE
:1041C0000430A368C9F80830E368C9F80C30E28805
:1041D00002F11006B6B2B8F1000F07D0B6F5807F35
:1041E00016D8414605F217202AF0F4FBE2881D4953
:1041F000A888F02A28BFF022103292B2FFF732FED0
:104200000746E0881030032180B2FFF7D7FC24E096
:104210004FF0000B102000BFB6F5807F344628BF5A
:104220004FF48074A4EB000A524608EB0B0148449B
:104230002AF0D0FB22460B49A888FFF713FE074659
:1042400058B1361B20460321DA44B6B2FFF7B6FC5C
:104250001FFA8AFB0020002EDED13846BDE8F88F19
:10426000042B01200B2D01202DE9F041624C00258B
:104270008EB0A5714FF0FF38FF27122304AA00214A
:1042800028460CF0D3FEDDE906637340013326D1E6
:104290009DF81230412B22D19DF81330542B1ED1A2
:1042A0009DF81430532B1AD19DF815304E2B16D192
:1042B0009DF81630762B12D19DF81730322B0ED187
:1042C0004FF6FF7210210DF11200FFF723FDBDF82C
:1042D0001030834203D146453CBFB0462F46DDB186
:1042E000FF2F2BD1002384F807334FF6FF7500BF53
:1042F000FFF7A4FD90B994F807330133DBB2012B2B
:1043000084F80733F4D94FF0200383F31188BFF307
:104310006F8FBFF34F8FFEE70125AEE76FF001000F
:10432000A4F80853FFF7B6FD0028E4D00023A371DA
:10433000012384F812340EB0BDE8F0814FF480738D
:10434000A3803846122309AA002184F807730CF0D1
:104350006DFE4FF6FF77A388B3F5804FE8D2BDF826
:104360003420BA4201D09A4214D803210020FFF72A
:1043700025FC032510236A46A18894F807030CF056
:1043800055FE00231DF80320FF2A1CD10133102BFA
:10439000F8D1CDE70025EDE729461020FFF70EFC08
:1043A000D9E7BDF802603046FFF742FC10B930464D
:1043B000FFF764FCA3884380BDF80830B3B93046EA
:1043C000FFF784FC12E03A460E216846FFF7A2FC94
:1043D000BDF80E608642DFD16A46A18894F80703D3
:1043E000FFF7F8FCBDF800308342DAD0BDF80600D4
:1043F0001030294680B2D1E7042B012008B50CF01B
:104400006FFF044B93F812341BB9BDE80840FFF767
:104410002BBF08BD042B01202DE9FF478A46164615
:104420009846054630B12BB1FFF7BCFB044650B1AE
:10443000052044E04FF0200383F31188BFF36F8F12
:10444000BFF34F8FFEE706F1100080B2FFF780FE4A
:104450002846FFF7EDFB0746A0B3B0F802901C4DCD
:1044600010236A46494695F807030CF0DFFDBDF8B6
:1044700008300AEB06029A4226D8B34218BFBDF8AC
:104480000C40ADF804A01CBF0134A4B241466846FC
:10449000ADF80C40ADF80660ADF80A90AC88FFF7B7
:1044A0006FFE98B1BDF80C307C80642B4FF000009B
:1044B00005D9BDF80230A5F80E33A5F8100304B0F5
:1044C000BDE8F0870320FAE70420F8E70120F6E7CB
:1044D000042B012073B50C4615461E4628B123B1A6
:1044E000FFF712FC50B9032017E04FF0200383F3CD
:1044F0001188BFF36F8FBFF34F8FFEE76319B3F5DA
:10450000803F09D20146074800962B46224690F884
:104510000703FFF716FC10B9042002B070BD00209D
:10452000FBE700BF042B01201FB540B94FF020036B
:1045300083F31188BFF36F8FBFF34F8FFEE7FFF751
:10454000E3FB48B101460648102390F807036A468A
:104550000CF06CFDBDF8080005B05DF804FB00BF71
:10456000042B01202DE9F04F431E14469BB24FF659
:10457000FD72934289B007460D461DD8B1F5006F14
:104580001AD8FFF7C1FB00BBFFF70CFB064650BB78
:1045900005F1100080B2FFF7DBFD8E4B93F906208A
:1045A000002A80F2FA804FF0200383F31188BFF3D2
:1045B0006F8FBFF34F8FFEE74FF0200383F3118817
:1045C000BFF36F8FBFF34F8FFEE73846FFF7ACFFA7
:1045D000854210D07F4EA6F80E73A6F81053FFF751
:1045E000E1FAB14608B105200EE0B6F8100370B943
:1045F000B6F80E337BB9002C00F0E78023462A463C
:1046000000213846FFF766FF09B0BDE8F08F103093
:1046100080B2FFF79DFDB9F80E03FFF709FB804656
:104620000028E8D0B0F802A099F8070310230DEB9A
:10463000030251460CF0FAFCB9F81033F3B9BDF897
:104640001800103080B2FFF783FDB9F80E03FFF7B2
:10465000EFFA804640B94FF0200383F31188BFF38F
:104660006F8FBFF34F8FFEE7B0F802A099F80703F2
:1046700010230DEB030251460CF0D8FCB9F81023BF
:10468000B9F804300393BDF8183022B19342ADF865
:10469000182028BF13460022BDF81810ADF81420CA
:1046A000ADF81610CDF81A200DF1100CBCE803007F
:1046B000DFF824B1C9F8070203F11006CBF80410A3
:1046C000BCE80300B6B2B6F5807FCBF80800CBF8A3
:1046D0000C1031D80BF11001009199F807035146E5
:1046E000FFF72FFB002872D004AB03CBBDF81620D8
:1046F000C9F80702CBF8041003CB1032CBF808003E
:10470000CBF80C1092B25946B9F80400FFF7AAFB97
:1047100000283FF470AFBDF816001030032180B2BE
:10472000FFF74CFA2B4B0022A3F80E23A3F810231B
:10473000039BA8F802305EE793461023B6F5807F0E
:10474000B14628BF4FF48079A9EB030292B20292DE
:10475000214A2048134400935A46029B90F80703CD
:104760005146FFF7EEFA90B31B49A1F207204A46E3
:104770008088FFF777FB00283FF43DAF03214846D0
:10478000FFF71CFA029BA6EB09065B44B6B21FFAC0
:1047900083FB0023002ED1D1C4E7214604A8B3F83F
:1047A0000480ADF81270ADF81460ADF81650ADF895
:1047B0001850CDF81A60FFF7E3FC40B13846FFF718
:1047C0005DFAA0F8028002201EE720461CE70120C7
:1047D0001AE700BF042B01200B2D0120F0B507467E
:1047E00085B040B94FF0200383F31188BFF36F8F7A
:1047F000BFF34F8FFEE7FFF787FA00283FD0FFF7A0
:10480000D1F9044600283CD11020FFF7A1FC4FF657
:10481000FF720E216846ADF80020ADF80270CDE9B8
:104820000144ADF80C40FFF775FA174DADF80E00D6
:104830006B4603CB05F20726C5F80702716003CB70
:104840001022B060F160A8883146FFF70BFB60B919
:104850001022A98895F807030CF0B2FC18B90321BF
:104860001020FFF7ABF9012007E003211020FFF72C
:10487000A5F93846FFF72AFA204605B0F0BD032017
:10488000FBE70520F9E700BF042B0120F8B504463B
:10489000FFF788F9054660BB64B10CF069FC0120A4
:1048A0000CF066FC4FF40072294613482AF0D6FA41
:1048B00000201FE0114DAF79E3B29F420CD8FFF703
:1048C00059FB0028F4D14FF0200383F31188BFF384
:1048D0006F8FBFF34F8FFEE705EB8403B3F80760DC
:1048E000304604F0D7FE10B93046FFF7EFF9013437
:1048F000E2E70520F8BD00BF0B2B0120042B0120AF
:10490000014B1860704700BF042B012008B5FFF76A
:10491000FBF9003018BF012008BD08B5FFF72AFBDE
:1049200040B94FF0200383F31188BFF36F8FBFF3BB
:104930004F8FFEE708BD00BF80B584B000AF786040
:104940007B681B68002B04D07B681B6818460CF042
:1049500038FE0023FB7319E0104B1B68FA7B53F8F9
:1049600022307A689A420ED10C4B1B68FA7B53F8BE
:10497000223018460CF025FE084B1B68FA7B0021FC
:1049800043F8221006E0FB7B0133FB73FB7B072B14
:10499000E2D900BF00BF1037BD4680BD7036012090
:1049A000B0B582B000AF0023FB7130E01C4B1B6838
:1049B000FA7953F82230002B26D1194B1C68FD7967
:1049C00010200CF0F2FD034644F82530144B1B6810
:1049D000FA7953F82230002B10D0114B1B68FA796A
:1049E00053F822301022002118462AF037FA0C4BD7
:1049F0001B68FA7953F82230FA799A72084B1B68CF
:104A0000FA7953F8223006E0FB790133FB71FB7928
:104A1000072BCBD9002318460837BD46B0BD00BFD1
:104A20007036012080B485B000AF0346FB800023C0
:104A3000FB731FE0144B1B68FA7B53F82230002BEA
:104A400015D0114B1B68FA7B53F822301B89FA886A
:104A50009A420CD10C4B1B68FA7B53F82230FA7B3C
:104A60009A72094B1B68FA7B53F8223006E0FB7BF5
:104A70000133FB73FB7B072BDCD90023184614376B
:104A8000BD465DF8047B70477036012080B584B068
:104A900000AF7860094B1B68002B0AD000233B73E2
:104AA0007B681B89FB81054B1B6807F10C021046D4
:104AB000984700BF1037BD4680BD00BF6C3601204F
:104AC00080B588B000AF7860394B1A687B681B7B73
:104AD00019460B46DB000B449B0013443C331A6819
:104AE0007B689B7ADB0013445A687B685A607B685A
:104AF00058682F4B1A687B681B7B19460B46DB00F6
:104B00000B449B00134440331B781A4613465B004A
:104B100013445B001A4600212AF0A0F97B681B6849
:104B20000822002118462AF099F901233B814FF60B
:104B3000FF737B811E4B1A687B681B7B19460B46F3
:104B4000DB000B449B00134430331B783B73184B42
:104B50001A687B681B7B19460B46DB000B449B00E5
:104B60002033D118124B1A687B681B7B184603460A
:104B7000DB0003449B00134430331B781A4607F1D3
:104B800008030533184629F025FF7B681B8907F1C8
:104B900008021146184629F097FA0346072B03D15D
:104BA0007B681B6806225A7100BF2037BD4680BD56
:104BB0007036012080B582B000AF78607B681B7BC7
:104BC0000133DAB27B681A737B681A7B094B1B6866
:104BD00093F8F8309A4203D27868FFF771FF05E046
:104BE0007B6800225A737868FFF750FF00BF0837D0
:104BF000BD4680BD7036012080B584B000AF7860BE
:104C000000237B81224B1A687B681B7B19460B466D
:104C1000DB000B449B00134438331B68FB6000230C
:104C20007B7221E0FB681B681B7903F00103002BFA
:104C300014D07B6818897B681B6819887B681B689F
:104C40005B881A4628F08EFD0346072B03D17B684C
:104C50001B6804225A7101237B8114E07B7A0133A3
:104C60007B72FB680433FB60094B1A687B681B7B13
:104C700019460B46DB000B449B00134440331B7862
:104C80007A7A9A42CED37B8918461037BD4680BDCA
:104C90007036012090B587B000AF7860396000238E
:104CA0007B823B689B79152B02D110237B748DE0AE
:104CB00002237B748AE07B8A05333A6813440A3303
:104CC000FB6000233B74474B1A687B681B7B1946CB
:104CD0000B46DB000B449B00134438331B687B619D
:104CE0005FE07B691B681B7903F00103002B52D145
:104CF0007B691B681B681B7C7A7C9A424BD17B6961
:104D00001B681B6818467B7C1A46F96828F04BFE26
:104D10000346002B3FD17B8A3A6813449B7A1C469A
:104D20007B8A3A6813440A3301331B781B0299B219
:104D30007B6858683A7C13465B0013445B0003446D
:104D4000621892B29A807B8A03333A6813449B7A42
:104D50001C467B8A03333A6813440A3301331B78B9
:104D60001B0299B27B6858683A7C13465B00134477
:104D70005B000344621892B21A807B8A991C7B689C
:104D800058683A7C13465B0013445B0003443A685E
:104D90000A44927A9A703B7C01333B747B690433FA
:104DA0007B61104B1A687B681B7B19460B46DB0046
:104DB0000B449B00134440331B783A7C9A4290D3B7
:104DC0003B689B791A467B8A13447B823B681B892C
:104DD0007A8A9A42FFF46FAF00BF00BF1C37BD460E
:104DE00090BD00BF7036012090B587B000AF7860ED
:104DF000396000237B820223FB8170E07B8A0233CF
:104E00003A6813440A33BB6000233B82394B1A686B
:104E10007B681B7B19460B46DB000B449B0013444D
:104E200038331B687B6144E07B691B681B7903F0A6
:104E30000103002B37D07B6859683A8A13465B0020
:104E400013445B000B441B88002B2CD17B691B682F
:104E50001B681B7C1A46FB89934224D17B691B6823
:104E60001B681846FB891A46B96828F09CFD034662
:104E7000002B18D17B8A3A6813449B7A1C467B8AA4
:104E80003A6813440A3301331B781B0299B27B68DA
:104E900058683A8A13465B0013445B000344621867
:104EA00092B21A8015E03B8A01333B827B6904335E
:104EB0007B61104B1A687B681B7B19460B46DB0035
:104EC0000B449B00134440331B781A463B8A9342A1
:104ED000AAD37A8AFB8913449BB202337B823B6854
:104EE0001B897A8A9A4289D300BF00BF1C37BD460E
:104EF00090BD00BF7036012080B588B000AF7860EB
:104F000039603B681B78032B00F0A780032B00F36C
:104F10002E81002B03D0012B00F0868027E13B6817
:104F20009B78002B40F02581FFF73AFD38613B6903
:104F3000002B00F01E813B689A883B691A813B690F
:104F400000221A733B689A793B69DA7208200CF0E8
:104F50002CFB02463B691A600023FB7713E0894B68
:104F60001968FA7F1346DB0013449B000B443C3363
:104F70001A683B699B7ADB0013443A6892881A806E
:104F8000FB7F0133FB777F4B1B6893F8F830FA7F88
:104F90009A42E4D33B691B68002B39D03B691B68FC
:104FA00008220021184629F059FF7B681B7803F07E
:104FB0000803DBB2002B23D17B681B7803F00203CC
:104FC000DBB2002B03D03B69DB7A002B0AD07B6875
:104FD0001B7803F00403DBB2002B19D03B69DB7AAA
:104FE000012B15D17B681B7803F00103DBB2002B8A
:104FF0000ED13B6901225A733869FFF761FD07E062
:105000007A68137823F0080313703B6901229A73BE
:1050100002233B733B691B89FB815B4B1B6807F1D8
:105020000C0210469847A4E03B685B881846FFF7DF
:10503000F9FC78617B69002B00F09D807869FFF7AF
:105040007BFC03233B723B685B887B814E4B1B6878
:1050500007F10802104698478DE03B681B79002B4A
:1050600040F08B803B685B881846FFF7DBFCB8613B
:10507000BB69002B00F08180BB691B68002B41D00D
:10508000BB691B689B79002B3CD0BB691B689B7973
:10509000062B03D1B869FFF713FD2EE0BB691B682F
:1050A0009B79082B12D1BB691889BB691B681988C9
:1050B000BB691B685B881A4628F043FB0346072B35
:1050C0001BD1BB691B6808225A7116E0BB691B68BB
:1050D0009B79042B11D1BB691889BB691B6819889E
:1050E000BB691B685B881A4628F03CFB0346072B0C
:1050F00003D1BB691B6804225A71BB691B6800227B
:105100009A713AE07B681B7803F00103DBB2002B55
:1051100033D01C4B1B6893F8F830002B2DD0BB69A3
:105120001B68002B29D0BB699B7B83F00103DBB29A
:10513000002B22D07B681B7803F00203DBB2002B2C
:1051400003D0BB69DB7A002B0AD07B681B7803F0A5
:105150000403DBB2002B10D0BB69DB7A012B0CD12E
:10516000BB6901225A73B869FFF7AAFC05E000BFCA
:1051700004E000BF02E000BF00E000BF00BF203736
:10518000BD4680BD703601206C36012080B58AB0E6
:1051900000AF78607B681B78132B00F2B38101A20B
:1051A00052F823F0F551000105550001CB520001E2
:1051B000BF530001115400010555000105550001C0
:1051C0000555000105550001055500010555000173
:1051D0000555000105550001055500010555000163
:1051E0000555000105550001055500010555000153
:1051F000535400017B689B881846FFF713FC386105
:105200003B69002B00F080813B695B7B83F00103ED
:10521000DBB2002B40F07A817B689B7A0F2B03D0A6
:105220007B689B7A052B15D13B691B687A6892795C
:105230009A71964B1B68002B00F06A8101233B7228
:105240003B691B897B81914B1B6807F10802104663
:1052500098475DE17B689B79062B1CD13B691B68F5
:105260001B79002B13D03B6918893B691B6819888F
:105270003B691B685B881A4628F063FA0346072BD4
:1052800040F042813B691B6808225A713CE1386951
:10529000FFF790FC38E17B689B79082B0CD13869CB
:1052A000FFF7AAFC0346FB81FB89002B40F02C8111
:1052B0003869FFF77FFC27E17B689B79042B40F07E
:1052C00023813869FFF776FC1EE17B689B881846CE
:1052D000FFF7A8FB78617B695B7B83F00103DBB29E
:1052E000002B40F017817B69002B00F015817B6853
:1052F0001B7A19467B68083301331B781B029AB26C
:105300007B691B680A4492B21A807B689B7A1946B3
:105310007B680A3301331B781B029AB27B691B68D6
:105320000A4492B25A805A4B1A687B691B7B194611
:105330000B46DB000B449B00134434331B68002BEB
:105340001FD07B691A68524B19687B691B7B184612
:105350000346DB0003449B000B4434331B68128874
:105360001A807B691A684A4B19687B691B7B18464F
:105370000346DB0003449B000B4434331B68528814
:105380005A807B691B6801221A717B6893F8FE3092
:10539000012B40F0C1807B6918897B691B681988E3
:1053A0007B691B685B881A4628F0CBF90346072BFC
:1053B00040F0B2807B691B6808225A71ACE07B68C0
:1053C0009B881846FFF72EFBF861FB695B7B83F037
:1053D0000103DBB2002B40F0A180FB69002B00F041
:1053E0009F807968F869FFF755FC7B6893F8FF3078
:1053F000012B40F09580F869FFF7FEFB03467B83A5
:105400007B8B002B40F08C80F869FFF7D3FB87E0A3
:105410007B689B881846FFF705FB38623B6A5B7B1D
:1054200083F00103DBB2002B7CD13B6A002B7BD0E5
:105430007B681B89002B03D07968386AFFF7D4FC9E
:105440007B6893F8FF30012B6ED1386AFFF7B2FB0F
:105450006AE07B689B881846FFF7E4FA78627B6A0B
:105460005B7B83F00103DBB2002B5FD17B6A002BF7
:105470005ED07B6A1B685B79062B0BD17B6A1B684D
:1054800000225A71786AFFF71BFB51E06C3601204D
:10549000703601207B6A1B685B79082B16D17B6A0A
:1054A0001B6800225A717B6A18897B6A1B681988FD
:1054B0007B6A1B685B881A4628F043F90346072B72
:1054C00036D17B6A1B6808225A7131E07B6A1B68FF
:1054D0005B79042B2CD17B6A1B6800225A717B6A92
:1054E00018897B6A1B6819887B6A1B685B881A4667
:1054F00028F038F90346072B1AD17B6A1B6804226F
:105500005A7115E000BF14E000BF12E000BF10E0C8
:1055100000BF0EE000BF0CE000BF0AE000BF08E0E3
:1055200000BF06E000BF04E000BF02E000BF00E0F3
:1055300000BF2837BD4680BD80B582B000AF1A4B92
:105540001B68002B0BD1FC200CF02FF80346164AE9
:105550001360154B1B68002B19D100231FE000239B
:10556000FB7111E0104B1B68FA7953F82230002BC5
:1055700007D00D4B1B68FA7953F822301846FFF715
:10558000DBF9FB790133FB71FB79072BEAD9064B79
:105590001B68FC220021184629F060FC01231846F4
:1055A0000837BD4680BD00BF7036012080B483B08F
:1055B00000AF7860044A7B68136000BF0C37BD46BB
:1055C0005DF8047B704700BF6C36012080B582B067
:1055D00000AF7860144B1B6893F8F830052B1DD88A
:1055E000114B1A68104B1B6893F8F83019460B469C
:1055F000DB000B449B0020331344242279681846B7
:1056000029F0E8F9084B1B6893F8F820064B1B6853
:105610000132D2B283F8F820002300E001231846BB
:105620000837BD4680BD00BF7036012080B582B00E
:1056300000AF786039603B681B78012B02D0042BE7
:105640000AD010E07B68002B0CD03B685B681946E1
:105650007868FFF751FC05E03B685B681846FFF788
:1056600095FD00E000BF00BF0837BD4680BD80B596
:1056700084B000AF0346FB80FB881846FFF7D2F9E1
:10568000F860FB68002B17D0FB681B68002B11D05B
:10569000FB681B6808220021184629F0DFFBFB6825
:1056A00000221A73FB6801225A73F868FFF708FAA0
:1056B000002302E0022300E0032318461037BD4612
:1056C00080BD00BF80B485B000AF0346FB800023DF
:1056D000FB731CE0FB7B134A52F82330002B13D0E2
:1056E000FB7B104A52F823305B78012B0CD1FB7BFB
:1056F0000C4A52F823305B88FA889A4204D1FB7B2B
:10570000084A52F8233006E0FB7B0133FB73FB7B36
:10571000072BDFD9002318461437BD465DF8047BFC
:10572000704700BF0835012090B583B000AF00235B
:105730003B600023FB7124E0FB79174A52F82330C9
:10574000002B1BD1FC7994200BF02FFF0346124A4B
:1057500042F82430FB79104A52F823303B603B6812
:10576000002B12D094220021386829F077FB3B6887
:1057700017229A803B6801225A7006E0FB790133B8
:10578000FB71FB79072BD7D900E000BF3B681846B7
:105790000C37BD4690BD00BF0835012080B584B0F0
:1057A00000AF78600023FB7316E0FB7B0E4A52F8D3
:1057B00023307A689A420CD1FB7B0B4A52F8233093
:1057C00018460BF0FEFEFB7B074A002142F823102F
:1057D00006E0FB7B0133FB73FB7B072BE5D900BFA6
:1057E00000BF1037BD4680BD0835012080B5C2B06E
:1057F00000AF07F58473A3F58273186007F584730F
:10580000A3F582731B68DB79002B00F089801B23D2
:1058100087F80431A723BB810523FB8107F5847337
:10582000A3F5807307F10C0204321A6007F5847344
:10583000A3F580731B6800221A7007F58473A3F523
:1058400080731B685A1C07F58473A3F580731A6074
:1058500007F58473A3F580731B6814221A7007F58B
:105860008473A3F580731B685A1C07F58473A3F532
:1058700080731A6007F58473A3F582731B689B8895
:105880001B0A9AB207F58473A3F580731B68D2B222
:105890001A7007F58473A3F582731B689A8807F55D
:1058A0008473A3F580731B680133D2B21A7007F5B5
:1058B0008473A3F580731B689A1C07F58473A3F5A2
:1058C00080731A6007F58473A3F580731B6807F56E
:1058D0008472A2F582721268D2791A7007F5847305
:1058E000A3F580731B685A1C07F58473A3F58073B6
:1058F0001A6007F58473A3F582731B685B8807F150
:105900000C021146184628F0FBFB0346002B08D179
:1059100007F58473A3F582731B680022DA7100E037
:1059200000BF07F58477BD4680BD80B588B000AF65
:10593000F8607B600B46FB7213463B81FB681B7C67
:105940000F2B5FD80023FB6107F110030C2200210D
:10595000184629F083FA3B8918460BF026FEF861B9
:10596000FB69002B0CD108233B74284B1B68002BD0
:1059700047D0264B1B6807F110021046984741E0BC
:105980003B891A467968F86929F024F8FB685B7C42
:10599000FA680233DB001344FA7A1A71FB685B7C05
:1059A000FA680233DB0013443A89DA80FB685B7CD7
:1059B000FA680233DB001344FA699A60FB685B7C87
:1059C0000133DAB2FB685A74FB685B7C0F2B02D997
:1059D000FB6800225A74FB681B7C0133DAB2FB6857
:1059E0001A7405233B74FB685B88BB82074B1B68FA
:1059F000002B07D0054B1B6807F110021046984793
:105A000000E000BF2037BD4680BD00BF0435012047
:105A100080B582B000AF78607B68DB68002B0AD06D
:105A20007B68DB6818460BF0CCFD7B680022DA60EF
:105A30007B6800225A7200BF0837BD4680BD80B423
:105A400083B000AF0023FB7121E0FB79154A52F8C7
:105A50002330002B18D0FB79124A52F823305B78A0
:105A6000012B08D1FB790F4A52F82330DB790C2B3C
:105A700001D901230FE0FB790A4A52F82330DB6891
:105A8000002B01D0012306E0FB790133FB71FB7988
:105A9000072BDAD9002318460C37BD465DF8047B86
:105AA000704700BF0835012080B588B000AF0346BD
