:02000004008179
:100F8800FFFF000000400E8438FC745F3B480014EB
:080F98000B006079000000006D
:040FBC000000001021
:020000040100F9
:1000000000000000000000000000000000000000F0
:1000100000000000000000005048434D00000000B8
:1000200000000000000000000000000000000000D0
:10003000000000000000000000000000FEFFFFFFC5
:100040000301000000007400000000010002000134
:100050000002000180F50200000000000000000026
:100060000000000000000000000000000000000090
:100070000000000000000000000000000000000080
:100080000000000000000000000000000000000070
:100090000000000000000000000000000000000060
:1000A0000000000000000000000000000000000050
:1000B0000000000000000000000000000000000040
:1000C0000000000000000000000000000000000030
:1000D0000000000000000000000000000000000020
:1000E0000000000000000000000000000000000010
:1000F0000000000000000000000000000000000000
:1001000000000000000000000000000000000000EF
:1001100000000000000000000000000000000000DF
:1001200000000000000000000000000000000000CF
:1001300000000000000000000000000000000000BF
:1001400000000000000000000000000000000000AF
:10015000000000000000000000000000000000009F
:10016000000000000000000000000000000000008F
:10017000000000000000000000000000000000007F
:10018000000000000000000000000000000000006F
:10019000000000000000000000000000000000005F
:1001A000000000000000000000000000000000004F
:1001B000000000000000000000000000000000003F
:1001C000000000000000000000000000000000002F
:1001D000000000000000000000000000000000001F
:1001E000000000000000000000000000000000000F
:1001F00000000000000000000000000000000000FF
:10020000F8FF0720C17D02018DCF020193CF0201CB
:100210009FCF0201A5CF0201ABCF02010000000079
:10022000000000000000000000000000A91D010106
:1002300099CF020100000000D11E0101371F01010A
:10024000BFE10001BFE10001BFE10001ADF4000129
:10025000BFE10001BFE10001BFE10001BFE100011A
:10026000BFE10001BFE10001BFE10001BFE100010A
:10027000BFE10001BFE10001BFE10001616E0001CB
:10028000BFE10001BFE10001BFE10001BFE10001EA
:10029000BFE10001BFE10001BFE10001BFE10001DA
:1002A000BFE10001A13E0101BFE10001BFE100018A
:1002B000BFE10001BFE10001BFE10001BFE10001BA
:1002C000BFE10001BFE10001BFE10001BFE10001AA
:1002D000BFE10001BFE10001BFE10001BFE100019A
:1002E000BFE10001BFE10001BFE10001BFE100018A
:1002F00071960201A9D10201BFE10001BFE1000135
:10030000BFE10001BFE10001BFE10001BFE1000169
:10031000BFE10001BFE10001BFE10001BFE1000159
:10032000BFE10001595E020100203200B03301201C
:10033000000000000000000001203200B033012066
:10034000000000000000000002203200B033012055
:10035000000000000000000003203200B033012044
:10036000000000000000000004203200B033012033
:10037000000000000000000005203200B033012022
:10038000000000000000000006203200B033012011
:10039000000000000000000007203200B033012000
:1003A000000000000000000008202000E4330120CD
:1003B000000000000000000009202000E4330120BC
:1003C00000000000000000000A202000E4330120AB
:1003D00000000000000000000B202000E43301209A
:1003E00000000000000000000C202000E433012089
:1003F00000000000000000000D202000E433012078
:1004000000000000000000000E202000E433012066
:1004100000000000000000000F202000E433012055
:100420000000000000000000F8B500BFF8BC08BCE8
:100430009E4670479D9B0201F8B500BFF8BC08BC02
:100440009E467047799B02010C16010001000000D6
:1004500080B58AB004AFF860B9603B601346FB809A
:10046000FB889B0018460CF0D1F838613B69002BE3
:1004700013D054200CF0CAF878617B69002B08D0A7
:100480005422002178692EF039FC7B693A691A639D
:1004900005E038690CF06CF901E000237B617B69B1
:1004A000002B0DD0FA88002303937B6902937B6AAB
:1004B00001933B6A00933B68B968F86800F029F83B
:1004C0007B6918461837BD4680BD80B588B002AF3D
:1004D000F860B9603B601346FB80FA887B6A019341
:1004E0003B6A00933B68B968F868FFF7B1FF386171
:1004F0003B69002B05D0386900F07CF801237B6153
:1005000002E04FF0FF337B617B6918461837BD4628
:1005100080BD80B586B000AFF860B9603B6013461F
:10052000FB80BB6A186BFB889B001A46A5212EF046
:10053000E5FBBB6A1A6BFB8803F18043013B9B0020
:1005400013443B613B6923F007033B61BB68002B0D
:100550001ED000237B6112E0BA687B6913441978CE
:10056000BA6A7B69134434330A461A70BA687B69E5
:1005700013441B78002B06D07B6901337B617B69B8
:100580000F2BE9D900E000BFBB6A002283F84320AB
:100590003B6A042B01D904233B62BB6A3A6ADA62E4
:1005A000BB6A3A6A5A64BB6A0433184618F0DCF82E
:1005B000BB6A1833184618F0D7F8BB6ABA6A1A61D2
:1005C0003B6AC3F10502BB6A9A61BB6ABA6A5A62A6
:1005D0003A68F968386911F09BFB0246BB6A1A60F9
:1005E0007B6A002B02D07B6ABA6A1A6000BF183798
:1005F000BD4680BD80B584B000AF786011F035FC99
:100600003F4B1B6801333E4A13603E4B1B68002B77
:1006100009D13C4A7B681360394B1B68012B10D110
:1006200001F008FB0DE0384B1B68002B09D1354B5E
:100630001B68DA6A7B68DB6A9A4202D8314A7B68B7
:100640001360324B1B680133304A13607B68DB6AEE
:1006500001229A402E4B1B6813432D4A13607B687E
:10066000DA6A2C4913469B0013449B000B44043365
:100670001B68FB607B68FA689A60FB689A687B6815
:10068000DA60FB689B687A6804325A607B681A1DDE
:10069000FB689A607B68DA6A13469B0013449B00F0
:1006A0001C4A1A447B685A617B68DA6A1949134606
:1006B0009B0013449B000B441B687A68D26A591C48
:1006C000144813469B0013449B000344196011F027
:1006D000E5FB0D4B1B68002B0ED00A4B1B68DA6A3A
:1006E0007B68DB6A9A4207D20B4B4FF080521A604C
:1006F000BFF34F8FBFF36F8F00BF1037BD4680BD74
:100700004831012070300120543101206431012032
:10071000503101207430012004ED00E080B586B036
:1007200000AF786000237B6111F09FFB7B68002B9A
:1007300002D1394B1B6800E07B683B613B690433A5
:10074000184618F07BF80346002B15D13B69DA6A8E
:10075000324913469B0013449B000B441B68002B3B
:100760000AD13B69DB6A012202FA03F3DA432C4B1C
:100770001B6813402A4A13603B699B6A002B04D014
:100780003B691833184618F059F8264B1B6801339B
:10079000244A1360204B1B683A699A4201D1012315
:1007A00000E00023FB60204B1B68002B10D0FB688F
:1007B000002B0DD03B69043319461C4817F0E1FFAC
:1007C0001B4B1B6801331A4A136001237B6106E04F
:1007D000184B1B68013B174A136001F0A7FA11F090
:1007E0005DFB7B69012B02D0386901F08FFA0E4B5B
:1007F0001B68002B0CD0084B1B683A699A4207D142
:100800000D4B4FF080521A60BFF34F8FBFF36F8FC5
:1008100000BF1837BD4680BD703001207430012004
:100820005031012064310120543101201C3101205C
:10083000303101204831012004ED00E080B586B060
:1008400000AF7860396000237B6100F023FC224B0D
:100850001B683B617B681B683A681344FB607B68DC
:100860001B683A699A420BD27B681B68FA689A4205
:1008700011D2FA683B699A420DD901237B610AE0E3
:100880007B681B68FA689A4203D3FA683B699A420C
:1008900001D901237B617B68FA681A607B69002BB0
:1008A00006D0FA683B69D31A0021184602F0B0F866
:1008B00000F0FEFBB860BB68002B07D1074B4FF080
:1008C00080521A60BFF34F8FBFF36F8F7B6918465A
:1008D0001837BD4680BD00BF4C31012004ED00E05B
:1008E00080B584B000AF78600023FB607B68002B8C
:1008F00008D000F0CFFB0021786802F089F800F002
:10090000D7FBF860FB68002B07D1064B4FF08052F5
:100910001A60BFF34F8FBFF36F8F00BF1037BD4614
:1009200080BD00BF04ED00E080B58AB000AF786004
:100930007B68FB61324B1B68FA699A4203D1002342
:1009400087F8273056E011F090FAFB695B69BB61CC
:10095000FB699B6A7B612B4B1B683B612A4B1B68C5
:10096000FB6011F09BFA7B69284A934203D1012373
:1009700087F827303EE0BA693B699A4203D0BA69EA
:10098000FB689A4203D1022387F8273032E0BB6923
:100990001F4A934220D1FB699B6A002B18D1032385
:1009A00087F8273000233B620EE0FA693B6A134464
:1009B00050331B78DBB2012B03D1022387F8273099
:1009C00018E03B6A01333B623B6A002BEDDD11E02E
:1009D000022387F827300DE0BB690E4A934202D00C
:1009E000BB69002B03D1042387F8273002E00123E1
:1009F00087F8273097F8273018462837BD4680BD3E
:100A00007030012000310120043101200831012023
:100A1000343101201C31012080B584B000AF7860F2
:100A200011F023FA7B68002B02D1074B1B6800E012
:100A30007B68FB60FB68DB6ABB6011F02FFABB6868
:100A400018461037BD4680BD7030012080B489B093
:100A500000AF7860EFF311824FF0200383F3118829
:100A6000BFF36F8FBFF34F8F3A61FB603B69FB6150
:100A70007B68002B02D10A4B1B6800E07B68BB61DE
:100A8000BB69DB6A7B61FB69BB60BB6883F3118870
:100A90007B6918462437BD465DF8047B704700BF6C
:100AA0007030012080B584B000AF786011F0DDF9BE
:100AB0007B68002B02D1074B1B6800E07B68FB6062
:100AC000FB685B6CBB6011F0E9F9BB681846103736
:100AD000BD4680BD7030012080B489B000AF786021
:100AE000EFF311824FF0200383F31188BFF36F8F70
:100AF000BFF34F8F3A61FB603B69FB617B68002B62
:100B000002D10A4B1B6800E07B68BB61BB695B6C70
:100B10007B61FB69BB60BB6883F311887B69184606
:100B20002437BD465DF8047B704700BF703001205C
:100B300080B588B000AF786039600023FB613B6806
:100B4000042B01D904233B6011F08FF97B68002B43
:100B500002D1594B1B6800E07B68BB61BB695B6CD1
:100B60007B617A693B689A4200F09F803A687B69B2
:100B70009A420DD9504B1B68BA699A420FD04E4B1E
:100B80001B68DB6A3A689A4209D90123FB6106E0D7
:100B9000494B1B68BA699A4201D10123FB61BB69C9
:100BA000DB6A3B61BB695A6CBB69DB6A9A4204D061
:100BB000BB69DB6A3A689A4202D9BB693A68DA6271
:100BC000BB693A685A64BB699B69002B04DB3B68CC
:100BD000C3F10502BB699A61BB6959693A69134659
:100BE0009B0013449B00354A1344994252D1BB6980
:100BF0000433184617F022FE0346002B09D10122C8
:100C00003B6902FA03F3DA432D4B1B6813402C4A6D
:100C10001360BB69DB6A01229A40294B1B681343AE
:100C2000274A1360BB69DA6A244913469B001344C0
:100C30009B000B4404331B68FB60BB69FA689A6035
:100C4000FB689A68BB69DA60FB689B68BA69043222
:100C50005A60BB691A1DFB689A60BB69DA6A134661
:100C60009B0013449B00154A1A44BB695A61BB6937
:100C7000DA6A124913469B0013449B000B441B681D
:100C8000BA69D26A591C0D4813469B0013449B0055
:100C900003441960FB69002B07D00A4B4FF08052C8
:100CA0001A60BFF34F8FBFF36F8F11F0F7F800BFDB
:100CB0002037BD4680BD00BF703001207430012058
:100CC0005031012004ED00E080B586B000AF7860BF
:100CD00011F0CBF87B68002B02D13C4B1B6800E085
:100CE0007B683B613B690433184617F0A7FD034658
:100CF000002B15D13B69DA6A354913469B00134432
:100D00009B000B441B68002B0AD13B69DB6A012264
:100D100002FA03F3DA432F4B1B6813402D4A13608A
:100D20003B699B6A002B04D03B691833184617F0C7
:100D300085FD3B6904331946274817F022FD00233F
:100D40007B6110E03A697B69134450331B78DBB256
:100D5000012B05D13A697B691344503300221A7084
:100D60007B6901337B617B69002BEBDD11F096F829
:100D70001A4B1B68002B05D011F077F800F0D6FF56
:100D800011F08CF8114B1B683A699A421AD1134B37
:100D90001B68002B08D0124B4FF080521A60BFF333
:100DA0004F8FBFF36F8F0DE00B4B1B68FB600D4B3C
:100DB0001B68FA689A4203D1044B00221A6001E0D2
:100DC00000F060FC00BF1837BD4680BD70300120C8
:100DD0007430012050310120343101205431012080
:100DE00004ED00E04831012080B487B000AF7860A6
:100DF00000237B617B68FB60FB685B69144A93425C
:100E00001ED1FB689B6A134A934219D0FB689B6A08
:100E1000002B15D101237B6100233B610DE0FA68B3
:100E20003B69134450331B78DBB2012B02D1002302
:100E30007B6105E03B6901333B613B69002BEEDDE3
:100E40007B6918461C37BD465DF8047B704700BFC0
:100E5000343101200831012080B584B000AF7860C2
:100E60007B68FB60354B1B68FA689A4261D0FB686F
:100E7000002B5ED010F0F9FFF868FFF7B5FF0346CE
:100E8000002B54D0FB680433184617F0D7FCFB68DE
:100E9000DB6A01229A402A4B1B681343284A1360DD
:100EA000FB68DA6A274913469B0013449B000B44F6
:100EB00004331B68BB60FB68BA689A60BB689A68B9
:100EC000FB68DA60BB689B68FA6804325A60FB68AA
:100ED0001A1DBB689A60FB68DA6A13469B001344CC
:100EE0009B00184A1A44FB685A61FB68DA6A154984
:100EF00013469B0013449B000B441B68FA68D26A9C
:100F0000591C104813469B0013449B00034419606E
:100F10000A4B1B68DA6AFB68DB6A9A4207D20A4B03
:100F20004FF080521A60BFF34F8FBFF36F8F10F0F6
:100F3000B5FF00BF1037BD4680BD00BF7030012037
:100F4000503101207430012004ED00E080B58AB0FA
:100F500002AF0123FB6100233B6100237B6111E0B1
:100F60001D4A7B69134419783A467B6913440A4643
:100F70001A703A467B6913441B78002B06D07B69B4
:100F800001337B617B690F2BEADD00E000BF0023AA
:100F9000BB6116E0114B3B61BB699B00104A1344D7
:100FA000394601930023009300234FF4807238697F
:100FB000FFF78BFAF861FB69002B06D0BB690133A0
:100FC000BB61BB69002BE5DD00E000BFFB69184693
:100FD0002037BD4680BD00BF9CF50201011C000109
:100FE0006C31012080B582B000AFFFF7AFFF7860B1
:100FF0007B68012B14D14FF0200383F31188BFF3DA
:101000006F8FBFF34F8F3B60084B4FF0FF321A607A
:10101000074B01221A60074B00221A6010F0EFFE06
:10102000054B1B6800BF0837BD4680BD68310120F5
:10103000543101204C310120D03C012080B582B0D8
:1010400000AF00237B6009E0104A7B6852F8233030
:101050001846FFF763FB7B6801337B607B68002BDE
:10106000F2DD00F027FE4FF0200383F31188BFF379
:101070006F8FBFF34F8F3B60054B00221A6010F05B
:10108000EDFE00BF0837BD4680BD00BF6C310120BA
:101090005431012080B400AF044B1B680133034A74
:1010A000136000BFBD465DF8047B704770310120BE
:1010B00080B588B000AF0023FB610023BB6110F056
:1010C000D4FE00233B616D4B1B68013B6B4A1360F0
:1010D0006A4B1B68002B40F0CA80694B1B68002BD1
:1010E00000F0C5808EE0674BDB68DB68FB61FB6965
:1010F0009B6AFB60FB69DB69FA69126A9A60FB69AB
:101100001B6AFA69D2695A60FB685A68FB6918332E
:101110009A4203D1FB691A6AFB685A60FB69002294
:101120009A62FB681B685A1EFB681A60FB695B6960
:10113000BB60FB699B68FA69D2689A60FB69DB68EF
:10114000FA6992685A60BB685A68FB6904339A422C
:1011500003D1FB69DA68BB685A60FB6900225A61F7
:10116000BB681B685A1EBB681A60FB69DB6A0122F8
:101170009A40454B1B681343434A1360FB69DA6A84
:10118000424913469B0013449B000B4404331B68E5
:101190007B60FB697A689A607B689A68FB69DA60B1
:1011A0007B689B68FA6904325A60FB691A1D7B6888
:1011B0009A60FB69DA6A13469B0013449B00334A2A
:1011C0001A44FB695A61FB69DA6A304913469B008D
:1011D00013449B000B441B68FA69D26A591C2B48C4
:1011E00013469B0013449B0003441960FB69DA6AB1
:1011F000274B1B68DB6A9A4204D9264A3B690121C6
:1012000042F823101F4B1B68002B7FF46CAFFB6967
:10121000002B01D000F08AFD1F4B1B687B617B69AE
:10122000002B12D000F01EF90346002B04D0194AFF
:101230003B69012142F823107B69013B7B617B699B
:10124000002BEFD1144B00221A60124A3B6952F86E
:101250002330002B0BD00123BB610D4B1B680F4BC0
:101260004FF080521A60BFF34F8FBFF36F8F10F0B3
:1012700015FEBB6918462037BD4680BD7031012080
:101280004831012008310120503101207430012003
:10129000703001205C3101205831012004ED00E064
:1012A00080B483B000AF054B1B687B607B68184639
:1012B0000C37BD465DF8047B704700BF4C31012000
:1012C00080B483B000AF00237B60054B1B683B609C
:1012D0003B6818460C37BD465DF8047B704700BF7D
:1012E0004C31012080B400AF034B1B681846BD464B
:1012F0005DF8047B704700BF4831012080B485B0A1
:1013000000AF78607B68002B02D1064B1B6800E0C1
:101310007B68FB60FB68343318461437BD465DF8C4
:10132000047B70477030012080B584B000AF7860D6
:10133000FFF7B0FE10F099FD074B1A687B68134465
:10134000054A136010F0AAFDFFF7B2FEF860FB68D3
:1013500018461037BD4680BD5831012080B586B093
:1013600000AF78607B683B61FFF794FE7868FFF719
:10137000DBFA0346022B63D101237B613B69043313
:10138000184617F05BFA10F070FD3B699B6A002B62
:1013900008D03B691833184617F050FA3B69012210
:1013A00083F8512010F07AFD3B69DB6A01229A40F4
:1013B000284B1B681343274A13603B69DA6A2649A6
:1013C00013469B0013449B000B4404331B68FB60D3
:1013D0003B69FA689A60FB689A683B69DA60FB6867
:1013E0009B683A6904325A603B691A1DFB689A602F
:1013F0003B69DA6A13469B0013449B00164A1A4461
:101400003B695A613B69DA6A134913469B001344EE
:101410009B000B441B683A69D26A591C0E4813465C
:101420009B0013449B00034419603B69DA6A0B4B31
:101430001B68DB6A9A4205D9094B01221A6001E058
:1014400000237B61FFF734FE7B6918461837BD46E1
:1014500080BD00BF50310120743001207030012068
:101460005C31012080B588B000AF0023FB617A4B6E
:101470001B68002B40F0E480784B1B680133BB6194
:10148000764ABB691360BB69002B10D1744B1B6893
:101490007B61744B1B68724A1360724A7B691360EC
:1014A000714B1B680133704A136000F03FFC6F4BB7
:1014B0001B68BA699A42C0F0A880694B1B681B6818
:1014C000002B04D1694B4FF0FF321A609DE0644B52
:1014D0001B68DB68DB683B613B695B68FB60BA6982
:1014E000FB689A4203D2614AFB6813608DE03B6956
:1014F0005B69BB603B699B683A69D2689A603B69EB
:10150000DB683A6992685A60BB685A683B69043381
:101510009A4203D13B69DA68BB685A603B69002292
:101520005A61BB681B685A1EBB681A603B699B6A9C
:10153000002B1ED03B699B6A7B603B69DB693A6983
:10154000126A9A603B691B6A3A69D2695A607B6881
:101550005A683B6918339A4203D13B691A6A7B681F
:101560005A603B6900229A627B681B685A1E7B683E
:101570001A603B69DB6A01229A403D4B1B681343AA
:101580003B4A13603B69DA6A3A4913469B001344AD
:101590009B000B4404331B683B603B693A689A60CC
:1015A0003B689A683B69DA603B689B683A69043239
:1015B0005A603B691A1D3B689A603B69DA6A1346B8
:1015C0009B0013449B002B4A1A443B695A613B69B8
:1015D000DA6A284913469B0013449B000B441B689E
:1015E0003A69D26A591C234813469B0013449B0056
:1015F000034419603B69DA6A1F4B1B68DB6A9A4235
:101600007FF65BAF0123FB6157E71B4B1B68DA6A70
:10161000184913469B0013449B000B441B68012B85
:1016200001D90123FB61154B1B68002B01D122F06E
:101630004FFC134B1B68002B09D00123FB6106E014
:101640000E4B1B6801330D4A136022F041FCFB690D
:1016500018462037BD4680BD703101204C31012035
:101660000031012004310120603101206831012066
:101670005031012074300120703001205831012098
:101680005C31012080B588B000AF304B1B68002B67
:1016900003D02F4B01221A6053E02D4B00221A6019
:1016A0002C4B1B681B6BFB614FF0A533BB61FB69C7
:1016B0001B68BA699A4211D1FB6904331B68BA6985
:1016C0009A420BD1FB6908331B68BA699A4205D16B
:1016D000FB690C331B68BA699A4209D01D4B1B6821
:1016E00034337B611B4B1B687969184622F0CEFBB3
:1016F000194B1B68BB60BB68B3FA83F3FB71FB79C2
:10170000C3F11F033B613A6913469B0013449B00DE
:10171000124A1344FB60FB685B685A68FB685A60B6
:10172000FB685A68FB6808339A4203D1FB68DA68A1
:10173000FB685A60FB685B68DB68064A1360054B10
:101740001B6800BF2037BD4680BD00BF703101203F
:101750005C310120703001205031012074300120B3
:1017600080B582B000AF78603960074B1B681833D2
:101770001946786817F029F80121386801F048F90E
:1017800000BF0837BD4680BD7030012080B586B0EF
:1017900000AFF860B9607A60174B1B68BA6842F016
:1017A00000429A61FB685B687B61134B1B687A6936
:1017B000DA61114B1B687A6992681A620E4B1A68DB
:1017C0007B699B6818325A600B4B1B6803F1180247
:1017D0007B699A60084B1B68FA689A62FB681B6811
:1017E0005A1CFB681A600121786801F011F900BFEA
:1017F0001837BD4680BD00BF7030012080B489B06D
:1018000000AF78607B68DB68DB68BB61BB699B6AA3
:101810007B61BB69DB69BA69126A9A60BB691B6A42
:10182000BA69D2695A607B695A68BB6918339A42AF
:1018300003D1BB691A6A7B695A60BB6900229A624C
:101840007B691B685A1E7B691A604B4B1B68002B17
:1018500060D1BB695B693B61BB699B68BA69D2684F
:101860009A60BB69DB68BA6992685A603B695A68DA
:10187000BB6904339A4203D1BB69DA683B695A6099
:10188000BB6900225A613B691B685A1E3B691A609A
:10189000BB69DB6A01229A40384B1B681343374A05
:1018A0001360BB69DA6A364913469B0013449B00F8
:1018B0000B4404331B68FB60BB69FA689A60FB68E1
:1018C0009A68BB69DA60FB689B68BA6904325A603F
:1018D000BB691A1DFB689A60BB69DA6A13469B00F4
:1018E00013449B00264A1A44BB695A61BB69DA6AF1
:1018F000234913469B0013449B000B441B68BA69A1
:10190000D26A591C1E4813469B0013449B00034493
:1019100019601BE01B4B5B68BB60BB69BA68DA618E
:10192000BB689A68BB691A62BB689B68BA6918325F
:101930005A60BB6903F11802BB689A60BB69114A1F
:101940009A62104B1B6801330E4A1360BB69DA6A56
:101950000D4B1B68DB6A9A4205D90123FB610B4BD7
:1019600001221A6001E00023FB61FB69184624375D
:10197000BD465DF8047B7047703101205031012075
:101980007430012008310120703001205C310120C9
:1019900080B487B000AF786039603B6843F00042A4
:1019A0007B681A607B68DB687B617B681B693B61D5
:1019B0007B685B687A6892689A607B689B687A68E3
:1019C00052685A603B695B687A689A4203D17B68C7
:1019D0009A683B695A607B6800221A613B691B6800
:1019E0005A1E3B691A607B695B69FB607B699B6877
:1019F0007A69D2689A607B69DB687A6992685A6012
:101A0000FB685A687B6904339A4203D17B69DA68C0
:101A1000FB685A607B6900225A61FB681B685A1E8A
:101A2000FB681A607B69DB6A01229A40264B1B68BF
:101A30001343254A13607B69DA6A244913469B00E5
:101A400013449B000B4404331B68BB607B69BA687A
:101A50009A60BB689A687B69DA60BB689B687A6940
:101A600004325A607B691A1DBB689A607B69DA6A26
:101A700013469B0013449B00144A1A447B695A6125
:101A80007B69DA6A114913469B0013449B000B449F
:101A90001B687A69D26A591C0C4813469B00134490
:101AA0009B00034419607B69DA6A094B1B68DB6A97
:101AB0009A4202D9074B01221A6000BF1C37BD466B
:101AC0005DF8047B704700BF503101207430012065
:101AD000703001205C31012080B582B000AF7860A9
:101AE00010F0C3F9064B1A687B681A60054B1A6838
:101AF0007B685A6010F0D2F900BF0837BD4680BD40
:101B0000603101204C31012080B483B000AF786097
:101B1000064B1A687B681A60054B1A687B685A6026
:101B200000BF0C37BD465DF8047B70476031012073
:101B30004C31012080B586B000AF7860396010F07C
:101B400094F9264B1B683B617B685B683A69D31A42
:101B5000FB60234B1B6893F85130002B07D0204BC0
:101B60001B68002283F8512001237B612EE03B6833
:101B70001B68B3F1FF3F02D100237B6126E07B6845
:101B80001A68184B1B689A420AD07B685B683A69EE
:101B90009A4205D301237B613B6800221A6015E05D
:101BA0003B681B68FA689A420BD23B681A68FB686C
:101BB000D21A3B681A607868FFF7A6FF00237B61A2
:101BC00004E03B6800221A6001237B6110F066F993
:101BD0007B6918461837BD4680BD00BF4C310120D7
:101BE000703001206031012080B400AF034B01222E
:101BF0001A6000BFBD465DF8047B70475C31012070
:101C000080B582B000AF786000F054F8074B1B68D5
:101C1000012B07D9064B4FF080521A60BFF34F8F4C
:101C2000BFF36F8F22F04EF9EEE700BF7430012052
:101C300004ED00E080B582B000AF00237B600CE0D3
:101C40007A6813469B0013449B00124A13441846BB
:101C500016F06AFD7B6801337B607B68042BEFD94B
:101C60000D4816F061FD0D4816F05EFD0C4816F0AB
:101C70005BFD0C4816F058FD0B4816F055FD0B4B5C
:101C8000054A1A600A4B054A1A6000BF0837BD466C
:101C900080BD00BF74300120D8300120EC3001201D
:101CA000083101201C310120343101200031012094
:101CB0000431012080B582B000AF19E010F0D5F8F2
:101CC0000F4BDB68DB687B607B680433184616F0DB
:101CD000B5FD0C4B1B68013B0A4A13600A4B1B689D
:101CE000013B094A136010F0D9F8786800F00EF84B
:101CF000054B1B68002BE1D100BF0837BD4680BDF6
:101D00001C310120483101203031012080B582B0E2
:101D100000AF78607B681B6B18460AF029FD786875
:101D20000AF026FD00BF0837BD4680BD80B400AF75
:101D30000A4B1B681B68002B04D1094B4FF0FF3284
:101D40001A6005E0054B1B68DB681B68044A1360DA
:101D500000BFBD465DF8047B704700BF0031012025
:101D60006831012080B483B000AF054B1B687B60F5
:101D70007B6818460C37BD465DF8047B704700BF92
:101D80007030012080B485B000AF78600023FB6024
:101D90007B68002B05DB7B68002B02DC044B1B6897
:101DA000FB60FB6818461437BD465DF8047B70473E
:101DB0007030012080B586B000AF78607B683B61F1
:101DC00000237B617B68002B00F089803B69DA6A25
:101DD000454B1B68DB6A9A4278D23B699B69002BB2
:101DE00006DB414B1B68DB6AC3F105023B699A6164
:101DF0003B6959693B69DA6A13469B0013449B00AF
:101E00003A4A1344994259D13B690433184616F0B3
:101E100015FD0346002B0AD13B69DB6A012202FA59
:101E200003F3DA43324B1B681340314A13602E4BE5
:101E30001B68DA6A3B69DA623B69DB6A01229A4015
:101E40002B4B1B6813432A4A13603B69DA6A274904
:101E500013469B0013449B000B4404331B68FB6038
:101E60003B69FA689A60FB689A683B69DA60FB68CC
:101E70009B683A6904325A603B691A1DFB689A6094
:101E80003B69DA6A13469B0013449B00174A1A44C5
:101E90003B695A613B69DA6A144913469B00134453
:101EA0009B000B441B683A69D26A591C0F481346C1
:101EB0009B0013449B000344196004E00A4B1B6819
:101EC000DA6A3B69DA6201237B6108E03B695A6C9C
:101ED000054B1B68DB6A9A4201D201237B617B6957
:101EE00018461837BD4680BD70300120743001207F
:101EF0005031012080B586B000AF78607B683B61CF
:101F000000237B617B68002B6ED03B699B6C5A1E63
:101F10003B699A643B69DA6A3B695B6C9A4263D0BD
:101F20003B699B6C002B5FD13B690433184616F06C
:101F300085FC0346002B0AD13B69DB6A012202FAC9
:101F400003F3DA432B4B1B6813402A4A13603B69A7
:101F50005A6C3B69DA623B69DB6AC3F105023B6993
:101F60009A613B69DB6A01229A40224B1B6813434A
:101F7000204A13603B69DA6A1F4913469B001344E9
:101F80009B000B4404331B68FB603B69FA689A6052
:101F9000FB689A683B69DA60FB689B683A690432BF
:101FA0005A603B691A1DFB689A603B69DA6A1346FE
:101FB0009B0013449B00104A1A443B695A613B69D9
:101FC000DA6A0D4913469B0013449B000B441B68BF
:101FD0003A69D26A591C084813469B0013449B0077
:101FE0000344196001237B617B6918461837BD469D
:101FF00080BD00BF503101207430012080B588B011
:1020000000AF786039607B68BB6101237B617B68CE
:10201000002B00F08380BB695B6C3A689A4202D95E
:102020003B68FB6102E0BB695B6CFB61BB69DB6A1F
:10203000FA699A4272D0BB699B6C7A699A426DD1F7
:10204000BB69DB6A3B61BB69FA69DA62BB699B69A0
:10205000002B04DBFB69C3F10502BB699A61BB6914
:1020600059693A6913469B0013449B002D4A134457
:10207000994253D1BB690433184616F0DFFB03467F
:10208000002B0AD1BB69DB6A012202FA03F3DA43AF
:10209000254B1B681340244A1360BB69DB6A01228D
:1020A0009A40214B1B6813431F4A1360BB69DA6ACD
:1020B0001C4913469B0013449B000B4404331B68CC
:1020C000FB60BB69FA689A60FB689A68BB69DA6072
:1020D000FB689B68BA6904325A60BB691A1DFB68C9
:1020E0009A60BB69DA6A13469B0013449B000D4A51
:1020F0001A44BB695A61BB69DA6A0A4913469B00F4
:1021000013449B000B441B68BA69D26A591C0548EA
:1021100013469B0013449B000344196000BF203703
:10212000BD4680BD743001205031012080B483B0A1
:1021300000AF094B1B689B697B60074B1B68DA6A21
:10214000054B1B68C2F105029A617B6818460C3783
:10215000BD465DF8047B70477030012080B483B0C9
:1021600000AF094B1B687B607B68002B04D07B6849
:102170009B6C5A1C7B689A647B6818460C37BD467A
:102180005DF8047B704700BF7030012080B588B0D7
:1021900000AFF860B9607A600023FB61FEF77AFF58
:1021A0000FF063FE2F4B1A68FB6812339B00134439
:1021B0005B68002B0BD12B4B1A68FB681344503320
:1021C00001221A707B68002B01D00123FB610FF004
:1021D00065FEFB69012B03D10121786800F018FC32
:1021E000FEF766FFB861FB69012B0AD1BB69002BC2
:1021F00007D11D4B4FF080521A60BFF34F8FBFF3D2
:102200006F8F0FF032FE174B1A68FB6812339B007A
:1022100013445B687B617B69002B14D0BB68002B87
:1022200008D0104B1A68FB6812339B00134400223D
:102230005A6008E00B4B19687B695A1EFB68123321
:102240009B000B445A60074B1A68FB6813445033D9
:1022500000221A700FF022FE7B6918462037BD4617
:1022600080BD00BF7030012004ED00E080B588B073
:1022700000AFF860B9607A603B600023BB61FEF795
:1022800009FF0FF0F2FD3B4B1A68FB681344503313
:102290001B78DBB2022B1AD0364B1A68FB6812335C
:1022A0009B0013445968BB68DB431940FB68123339
:1022B0009B00134459602F4B1A68FB68134450333A
:1022C00001221A70BB6A002B01D00123BB610FF001
:1022D000E5FDBB69012B03D10121B86A00F098FB31
:1022E000FEF7E6FE7861BB69012B0AD17B69002B02
:1022F00007D1214B4FF080521A60BFF34F8FBFF3CD
:102300006F8F0FF0B2FD3B68002B08D0194B1A6895
:10231000FB6812339B0013445A683B681A60154BE4
:102320001A68FB68134450331B78DBB2022B02D0CF
:102330000023FB6110E00F4B1A68FB6812339B000F
:10234000134459687B68DB431940FB6812339B00D8
:10235000134459600123FB61064B1A68FB68134460
:10236000503300221A700FF099FDFB691846203790
:10237000BD4680BD7030012004ED00E080B58AB01C
:1023800000AFF860B9607A60FB7001237B62FB6884
:102390003B620FF06AFD3B6B002B07D03A6ABB68CB
:1023A00012339B0013445A683B6B1A603A6ABB684D
:1023B000134450331B78FB773A6ABB68134450339D
:1023C00002221A70FB78042B3FD801A252F823F0A6
:1023D0004B240001E5230001032400011F24000118
:1023E0002F2400013A6ABB6812339B0013445A68D9
:1023F0007B681A43396ABB6812339B000B445A60EE
:1024000024E03A6ABB6812339B0013445B685A1C91
:10241000396ABB6812339B000B445A6016E03A6A73
:10242000BB6812339B0013447A685A600EE0FB7F4E
:10243000022B07D03A6ABB6812339B0013447A68B8
:102440005A6003E000237B6200E000BFFB7F012BAA
:102450006ED13B6A5B69BB613B6A9B683A6AD26832
:102460009A603B6ADB683A6A92685A60BB695A684C
:102470003B6A04339A4203D13B6ADA68BB695A600B
:102480003B6A00225A61BB691B685A1EBB691A600D
:102490003B6ADB6A01229A40294B1B681343284A96
:1024A00013603B6ADA6A274913469B0013449B007A
:1024B0000B4404331B687B613B6A7A699A607B69D1
:1024C0009A683B6ADA607B699B683A6A04325A60B0
:1024D0003B6A1A1D7B699A603B6ADA6A13469B0065
:1024E00013449B00174A1A443B6A5A613B6ADA6AF2
:1024F000144913469B0013449B000B441B683A6A23
:10250000D26A591C0F4813469B0013449B00034496
:1025100019600D4B1B68DA6A3B6ADB6A9A4207D284
:102520000A4B4FF080521A60BFF34F8FBFF36F8F8B
:102530000FF0B4FC7B6A18462837BD4680BD00BF4B
:1025400050310120743001207030012004ED00E092
:1025500080B48FB000AFF860B9607A60FB7001237F
:102560007B63FB683B63EFF311824FF0200383F33F
:102570001188BFF36F8FBFF34F8FBA617B61BB6967
:10258000FB623B6C002B07D03A6BBB6812339B009D
:1025900013445A683B6C1A603A6BBB68134450335F
:1025A0001B7887F82B303A6BBB68134450330222F8
:1025B0001A70FB78042B41D801A252F823F000BF17
:1025C0003D260001D5250001F32500010F2600015D
:1025D0001F2600013A6BBB6812339B0013445A68F4
:1025E0007B681A43396BBB6812339B000B445A60FB
:1025F00025E03A6BBB6812339B0013445B685A1C9E
:10260000396BBB6812339B000B445A6017E03A6B7E
:10261000BB6812339B0013447A685A600FE097F846
:102620002B30022B07D03A6BBB6812339B0013444C
:102630007A685A6003E000237B6300E000BF97F8EC
:102640002B30012B40F091804E4B1B68002B60D14A
:102650003B6B5B697B623B6B9B683A6BD2689A60B1
:102660003B6BDB683A6B92685A607B6A5A683B6BDB
:1026700004339A4203D13B6BDA687B6A5A603B6B46
:1026800000225A617B6A1B685A1E7B6A1A603B6B88
:10269000DB6A01229A403C4B1B6813433A4A1360A1
:1026A0003B6BDA6A394913469B0013449B000B4489
:1026B00004331B683B623B6B3A6A9A603B6A9A68D8
:1026C0003B6BDA603B6A9B683A6B04325A603B6B47
:1026D0001A1D3B6A9A603B6BDA6A13469B001344EF
:1026E0009B002A4A1A443B6B5A613B6BDA6A2749C2
:1026F00013469B0013449B000B441B683A6BD26A41
:10270000591C224813469B0013449B000344196044
:102710001BE01F4B5B68FB613B6BFA69DA61FB698D
:102720009A683B6B1A62FB699B683A6B18325A6075
:102730003B6B03F11802FB699A603B6B144A9A6287
:10274000134B1B680133124A13603B6BDA6A114B5F
:102750001B68DB6A9A4208D97B6C002B02D07B6C29
:1027600001221A600C4B01221A60FB6A3B613B6933
:1027700083F311887B6B18463C37BD465DF8047BBC
:10278000704700BF703101205031012074300120AA
:1027900008310120703001205C31012080B48FB0FD
:1027A00000AFF860B9607A60FB687B63EFF3118279
:1027B0004FF0200383F31188BFF36F8FBFF34F8F68
:1027C000FA61BB61FB693B637A6BBB6813445033AE
:1027D0001B7887F82F307A6BBB6813445033022282
:1027E0001A707A6BBB6812339B0013445B685A1CE7
:1027F000796BBB6812339B000B445A6097F82F30FB
:10280000012B40F091804E4B1B68002B60D17B6BFD
:102810005B69BB627B6B9B687A6BD2689A607B6BEF
:10282000DB687A6B92685A60BB6A5A687B6B0433C8
:102830009A4203D17B6BDA68BB6A5A607B6B0022D9
:102840005A61BB6A1B685A1EBB6A1A607B6BDB6AE3
:1028500001229A403B4B1B6813433A4A13607B6B3F
:10286000DA6A394913469B0013449B000B44043336
:102870001B687B627B6B7A6A9A607B6A9A687B6B67
:10288000DA607B6A9B687A6B04325A607B6B1A1D34
:102890007B6A9A607B6BDA6A13469B0013449B0049
:1028A000294A1A447B6B5A617B6BDA6A26491346C4
:1028B0009B0013449B000B441B687A6BD26A591C23
:1028C000214813469B0013449B00034419601BE0FE
:1028D0001E4B5B683B627B6B3A6ADA613B6A9A68C3
:1028E0007B6B1A623B6A9B687A6B18325A607B6B0F
:1028F00003F118023B6A9A607B6B144A9A62134B8D
:102900001B680133114A13607B6BDA6A104B1B683A
:10291000DB6A9A4208D97B68002B02D07B680122CF
:102920001A600C4B01221A603B6B7B617B6983F35D
:10293000118800BF3C37BD465DF8047B704700BF7F
:102940007031012050310120743001200831012004
:10295000703001205C31012080B584B000AF786018
:1029600039607B68002B02D1104B1B6800E07B684C
:10297000BB600FF07AFABA683B68134450331B7897
:10298000DBB2022B08D1BA683B68134450330022F3
:102990001A700123FB6001E00023FB600FF07EFA58
:1029A000FB6818461037BD4680BD00BF703001205F
:1029B00080B586B000AFF860B9607A60FB68002B24
:1029C00002D1124B1B6800E0FB687B610FF04DFAEF
:1029D0007A69BB6812339B0013445B683B617A6978
:1029E000BB6812339B0013445A687B68DB431A4070
:1029F0007969BB6812339B000B445A600FF04EFAA2
:102A00003B6918461837BD4680BD00BF70300120B5
:102A100080B588B000AF78603960394B1B68FB61C6
:102A2000384B1B68BB61384B1B687B61374B1B689D
:102A3000002283F85120354B1B680433184615F0EB
:102A4000FDFE0346002B0BD1304B1B68DB6A0122D5
:102A500002FA03F3DA432E4B1B6813402C4A13602F
:102A60007B68B3F1FF3F24D13B68002B21D0294B79
:102A70005B683B61254B1B683A699A60234B1B6876
:102A80003A699268DA60214B1A683B699B680432A4
:102A90005A601E4B1B681A1D3B699A601B4B1B68D2
:102AA0001C4A5A611B4B1B6801331A4A136000BF52
:102AB00022E0FA697B681344FB60144B1B68FA68D8
:102AC0005A60FA68FB699A4207D2104B1B680433BC
:102AD0001946786915F079FE0EE00C4B1B6804333B
:102AE0001946B86915F071FE0B4B1B68FA689A42DB
:102AF00002D2094AFB68136000BF2037BD4680BD83
:102B00004C310120003101200431012070300120BE
:102B100050310120343101206831012080B483B06C
:102B200000AF1A4B00221A60194B00221A60194B91
:102B300000221A60184B00221A60184B00221A60FB
:102B4000174B00221A60174B00221A6000237B608B
:102B500007E0154A7B68002142F823107B680133A7
:102B60007B607B68002BF4DD104B00221A60104B59
:102B700000221A600F4B00221A600F4B00221A60CD
:102B800000BF0C37BD465DF8047B704770300120F4
:102B900030310120483101204C31012050310120D9
:102BA00054310120583101205C3101206031012075
:102BB00064310120683101207031012080B584B07A
:102BC00000AF786039600123FB607B68BB60BB6845
:102BD000002B5DD0BB68DB6B002B59D0BB681A6C37
:102BE000BB68DB6B0021A3FB0223002B00D001217B
:102BF0000B46002B4CD10FF038F9BB681A68BB6844
:102C0000DB6BB968096C01FB03F31A44BB689A607B
:102C1000BB6800229A63BB681A68BB685A60BB68CD
:102C20001A68BB68DB6B013BB968096C01FB03F3F5
:102C30001A44BB68DA60BB68FF2283F84420BB6893
:102C4000FF2283F845203B68002B14D1BB681B6929
:102C5000002B1AD0BB6810331846FEF7CFFD034691
:102C6000002B12D00E4B4FF080521A60BFF34F8FE3
:102C7000BFF36F8F09E0BB681033184615F054FDA1
:102C8000BB682433184615F04FFD0FF007F901E03B
:102C90000023FB60FB6818461037BD4680BD00BFAF
:102CA00004ED00E080B58AB002AFF860B960134669
:102CB000FB710023FB61FB68002B2DD00021BA685B
:102CC000FB68A3FB0223002B00D001210B46002B45
:102CD00022D1FB68BA6802FB03F313F14D0F1BD836
:102CE000FB68BA6802FB03F3BB61BB694C3318464F
:102CF00009F08CFCF861FB69002B0DD0FB697B614E
:102D00007B694C337B61FA79FB69009313467A69DE
:102D1000B968F86800F005F8FB6918462037BD4629
:102D200080BD80B584B000AFF860B9607A60FB7098
:102D3000BB68002B03D1BB69BA691A6002E0BB69AA
:102D40007A681A60BB69FA68DA63BB69BA681A64A0
:102D50000121B869FFF732FFBB6900229A6400BF06
:102D60001037BD4680BD80B582B000AF78607B680B
:102D7000002B0ED07B6800229A607B6800221A60CC
:102D80007B680022DA60002300220021786800F0CE
:102D90003BF800BF0837BD4680BD80B586B000AFA8
:102DA0000346FB7101237B6100233B61FB791A46DB
:102DB00039697869FFF776FFF860F868FFF7D3FFA5
:102DC000FB6818461837BD4680BD80B584B000AF9B
:102DD000786039600023FB607B68002B0FD03A6875
:102DE0007B689A420BD8022200217868FFF75AFFCD
:102DF000F860FB68002B02D0FB683A689A63FB68B6
:102E000018461037BD4680BD80B58AB000AFF86067
:102E1000B9607A603B6000237B62FB683B620FF025
:102E200024F83B6A9A6B3B6ADB6B9A4202D33B689D
:102E3000022B45D13B6A9B6BFB613A68B968386AE3
:102E400000F0A2FCB8613B6A9B6C002B14D03B687D
:102E5000022B02D1FB69002B2ED1386A00F058FEFC
:102E60000346002B28D04A4B4FF080521A60BFF324
:102E70004F8FBFF36F8F1FE03B6A5B6A002B10D050
:102E80003B6A24331846FEF7B9FC0346002B13D0E7
:102E90003F4B4FF080521A60BFF34F8FBFF36F8FDD
:102EA0000AE0BB69002B07D0394B4FF080521A6003
:102EB000BFF34F8FBFF36F8F0EF0F0FF012363E07E
:102EC0007B68002B03D10EF0E9FF00235CE07B6AF6
:102ED000002B06D107F110031846FEF715FE01235B
:102EE0007B620EF0DBFFFEF7D5F80EF0BEFF3B6A0B
:102EF00093F844305BB2B3F1FF3F03D13B6A002249
:102F000083F844203B6A93F845305BB2B3F1FF3F4E
:102F100003D13B6A002283F845200EF0BFFF3A1D23
:102F200007F1100311461846FEF704FE0346002B76
:102F300024D1386A00F043FD0346002B18D03B6AC9
:102F400010337A6811461846FEF70AFC386A00F01A
:102F5000ABFCFEF7ADF80346002B7FF460AF0C4BE3
:102F60004FF080521A60BFF34F8FBFF36F8F56E759
:102F7000386A00F099FCFEF79BF850E7386A00F0D9
:102F800093FCFEF795F8002318462837BD4680BD10
:102F900004ED00E080B58EB000AFF860B9607A60F3
:102FA0003B60FB683B63EFF311824FF0200383F338
:102FB0001188BFF36F8FBFF34F8FFA61BB61FB695D
:102FC000FB623B6B9A6B3B6BDB6B9A4202D33B68B9
:102FD000022B4ED13B6B93F8453087F82B303B6B7F
:102FE0009B6B7B623A68B968386B00F0CDFB97F950
:102FF0002B30B3F1FF3F29D13B6B9B6C002B12D0E0
:103000003B68022B02D17B6A002B2FD1386B00F07A
:103010007FFD0346002B29D07B68002B26D07B68E0
:1030200001221A6022E03B6B5B6A002B1ED03B6BD7
:1030300024331846FEF7E2FB0346002B16D07B68CC
:10304000002B13D07B6801221A600FE0FEF74AF9CB
:10305000386297F92B303A6A9A4207D997F82B30A1
:103060000133DBB25AB23B6B83F8452001237B630B
:1030700001E000237B63FB6A7B617B6983F311883A
:103080007B6B18463837BD4680BD80B58CB000AF2D
:10309000786039607B68BB62EFF311824FF02003E8
:1030A00083F31188BFF36F8FBFF34F8F7A613B615A
:1030B0007B697B62BB6A9B6B3B62BB6ADB6B3A6A78
:1030C0009A4242D2BB6A93F84530FB773B6A5A1C5E
:1030D000BB6A9A6397F91F30B3F1FF3F23D1BB6AF4
:1030E0009B6C002B0CD0B86A00F012FD0346002B3D
:1030F00028D03B68002B25D03B6801221A6021E0D4
:10310000BB6A5B6A002B1DD0BB6A24331846FEF7EE
:1031100075FB0346002B15D03B68002B12D03B6893
:1031200001221A600EE0FEF7DDF8B86197F91F3052
:10313000BA699A4206D9FB7F0133DBB25AB2BB6A45
:1031400083F845200123FB6201E00023FB627B6AD8
:10315000FB60FB6883F31188FB6A18463037BD4675
:1031600080BD80B58AB000AFF860B9607A60002396
:103170007B62FB683B620EF078FE3B6A9B6BFB61F7
:10318000FB69002B1FD0B968386A00F067FBFB6948
:103190005A1E3B6A9A633B6A1B69002B0FD03B6A3D
:1031A00010331846FEF72AFB0346002B07D03D4B91
:1031B0004FF080521A60BFF34F8FBFF36F8F0EF046
:1031C0006DFE012369E07B68002B03D10EF066FEE3
:1031D000002362E07B6A002B06D107F11403184636
:1031E000FEF792FC01237B620EF058FEFDF752FFC2
:1031F0000EF03BFE3B6A93F844305BB2B3F1FF3F05
:1032000003D13B6A002283F844203B6A93F845309F
:103210005BB2B3F1FF3F03D13B6A002283F8452044
:103220000EF03CFE3A1D07F1140311461846FEF756
:1032300081FC0346002B23D1386A00F094FB03463F
:10324000002B17D03B6A24337A6811461846FEF7E4
:1032500087FA386A00F028FBFDF72AFF0346002BA7
:1032600089D1104B4FF080521A60BFF34F8FBFF3DC
:103270006F8F80E7386A00F017FBFDF719FF7AE7D8
:10328000386A00F011FBFDF713FF386A00F06BFBA2
:103290000346002B3FF46FAF002318462837BD4686
:1032A00080BD00BF04ED00E080B58AB000AF78605B
:1032B000396000237B627B68FB6100233B620EF078
:1032C000D4FDFB699B6BBB61BB69002B24D0BB6940
:1032D0005A1EFB699A63FB691B68002B04D1FEF739
:1032E0003DFF0246FB699A60FB691B69002B0FD00A
:1032F000FB6910331846FEF781FA0346002B07D00E
:103300004C4B4FF080521A60BFF34F8FBFF36F8F5B
:103310000EF0C4FD012389E03B68002B03D10EF0C1
:10332000BDFD002382E07B6A002B06D107F10C0370
:103330001846FEF7E9FB01237B620EF0AFFDFDF7B7
:10334000A9FE0EF092FDFB6993F844305BB2B3F135
:10335000FF3F03D1FB69002283F84420FB6993F807
:1033600045305BB2B3F1FF3F03D1FB69002283F824
:1033700045200EF093FD3A4607F10C03114618461E
:10338000FEF7D8FB0346002B32D1F86900F0EBFAC8
:103390000346002B26D0FB691B68002B09D10EF0D9
:1033A00064FDFB699B681846FEF704FD38620EF069
:1033B00075FDFB6924333A6811461846FEF7D0F9CB
:1033C000F86900F071FAFDF773FE0346002B7FF4F5
:1033D00076AF184B4FF080521A60BFF34F8FBFF398
:1033E0006F8F6CE7F86900F05FFAFDF761FE66E742
:1033F000F86900F059FAFDF75BFEF86900F0B3FADE
:103400000346002B3FF45BAF3B6A002B0DD00EF060
:103410002CFDF86900F0A0F97861FB699B68796977
:103420001846FEF7EBFD0EF039FD0023184628374D
:10343000BD4680BD04ED00E080B58AB000AFF86005
:10344000B9607A6000237B62FB683B620EF00DFD81
:103450003B6A9B6BFB61FB69002B21D03B6ADB68FD
:10346000BB61B968386A00F0F9F93B6ABA69DA6099
:103470003B6A5B6A002B0FD03B6A24331846FEF789
:10348000BDF90346002B07D03C4B4FF080521A6029
:10349000BFF34F8FBFF36F8F0EF000FD012369E084
:1034A0007B68002B03D10EF0F9FC002362E07B6AFD
:1034B000002B06D107F110031846FEF725FB012368
:1034C0007B620EF0EBFCFDF7E5FD0EF0CEFC3B6AF7
:1034D00093F844305BB2B3F1FF3F03D13B6A002263
:1034E00083F844203B6A93F845305BB2B3F1FF3F69
:1034F00003D13B6A002283F845200EF0CFFC3A1D31
:1035000007F1100311461846FEF714FB0346002B83
:1035100023D1386A00F027FA0346002B17D03B6A04
:1035200024337A6811461846FEF71AF9386A00F013
:10353000BBF9FDF7BDFD0346002B87D10F4B4FF0C4
:1035400080521A60BFF34F8FBFF36F8F7EE7386AE8
:1035500000F0AAF9FDF7ACFD78E7386A00F0A4F9AD
:10356000FDF7A6FD386A00F0FEF90346002B3FF494
:103570006DAF002318462837BD4680BD04ED00E03E
:1035800080B58EB000AFF860B9607A60FB683B63CD
:10359000EFF311824FF0200383F31188BFF36F8F95
:1035A000BFF34F8FFA61BB61FB69FB623B6B9B6BA7
:1035B000BB62BB6A002B37D03B6B93F8443087F873
:1035C0002730B968386B00F049F9BB6A5A1E3B6B6B
:1035D0009A6397F92730B3F1FF3F12D13B6B1B6918
:1035E000002B1ED03B6B10331846FEF707F903463D
:1035F000002B16D07B68002B13D07B6801221A6049
:103600000FE0FDF76FFE386297F927303A6A9A4269
:1036100007D997F827300133DBB25AB23B6B83F8F6
:10362000442001237B6301E000237B63FB6A7B6111
:103630007B6983F311887B6B18463837BD4680BDA4
:1036400080B58AB000AF786039607B683B62EFF389
:1036500011824FF0200383F31188BFF36F8FBFF304
:103660004F8F7A613B617B69FB613B6A9B6B002BEF
:103670000CD03B6ADB68BB613968386A00F0EEF851
:103680003B6ABA69DA6001237B6201E000237B6256
:10369000FB69FB60FB6883F311887B6A1846283757
:1036A000BD4680BD80B584B000AF78600EF0DDFB14
:1036B0007B689B6BFB600EF0F1FBFB6818461037D4
:1036C000BD4680BD80B584B000AF78607B68FB608C
:1036D0000EF0CBFBFB68DA6BFB689B6BD31ABB600D
:1036E0000EF0DCFBBB6818461037BD4680BD80B4C9
:1036F00085B000AF78607B68FB60FB689B6BBB604C
:10370000BB6818461437BD465DF8047B704780B52A
:1037100084B000AF78607B68FB60F86809F028F837
:1037200000BF1037BD4680BD80B483B000AF786065
:103730007B681B6C18460C37BD465DF8047B7047F0
:1037400080B483B000AF78607B68DB6B18460C37C1
:10375000BD465DF8047B704780B485B000AF7860EB
:103760007B685B6A002B06D07B681B6B1B68C3F110
:103770000503FB6001E00023FB60FB68184614377B
:10378000BD465DF8047B704780B586B000AFF86039
:10379000B9607A6000237B61FB689B6B3B61FB68CF
:1037A0001B6C002B0DD1FB681B68002B4DD1FB68F7
:1037B0009B681846FEF79EFB7861FB6800229A60C2
:1037C00043E07B68002B19D1FB685868FB681B6CD1
:1037D0001A46B9682AF0B0FDFB685A68FB681B6C92
:1037E0001A44FB685A60FB685A68FB689B689A42F7
:1037F0002BD3FB681A68FB685A6026E0FB68D86820
:10380000FB681B6C1A46B9682AF096FDFB68DA68FB
:10381000FB681B6C5B421A44FB68DA60FB68DA6881
:10382000FB681B689A4207D2FB689A68FB681B6CAE
:103830005B421A44FB68DA607B68022B05D13B6966
:10384000002B02D03B69013B3B613B695A1CFB6882
:103850009A637B6918461837BD4680BD80B582B033
:1038600000AF786039607B681B6C002B18D07B68D8
:10387000DA687B681B6C1A447B68DA607B68DA68FC
:103880007B689B689A4203D37B681A687B68DA601E
:103890007B68D9687B681B6C1A4638682AF04CFD37
:1038A00000BF0837BD4680BD80B584B000AF7860EA
:1038B0000EF0DBFA7B6893F84530FB731EE07B6803
:1038C0009B6C002B08D0786800F022F90346002B8F
:1038D00010D0FEF789F90DE07B685B6A002B12D0EF
:1038E0007B6824331846FDF789FF0346002B01D07F
:1038F000FEF77AF9FB7B013BDBB2FB7397F90F30E4
:10390000002BDCDC00E000BF7B68FF2283F8452051
:103910000EF0C4FA0EF0A9FA7B6893F84430BB733A
:1039200011E07B681B69002B12D07B6810331846AE
:10393000FDF764FF0346002B01D0FEF755F9BB7B72
:10394000013BDBB2BB7397F90E30002BE9DC00E0E2
:1039500000BF7B68FF2283F844200EF09FFA00BF6F
:103960001037BD4680BD80B584B000AF78600EF0E2
:103970007CFA7B689B6B002B02D10123FB6001E08A
:103980000023FB600EF08AFAFB6818461037BD462C
:1039900080BD80B485B000AF78607B68BB60BB68D9
:1039A0009B6B002B02D10123FB6001E00023FB6035
:1039B000FB6818461437BD465DF8047B704780B538
:1039C00084B000AF78600EF050FA7B689A6B7B6829
:1039D000DB6B9A4202D10123FB6001E00023FB6014
:1039E0000EF05CFAFB6818461037BD4680BD80B407
:1039F00085B000AF78607B68BB60BB689A6BBB68C2
:103A0000DB6B9A4202D10123FB6001E00023FB60E3
:103A1000FB6818461437BD465DF8047B704780B5D7
:103A200084B000AF7860002204217868FFF73AF98B
:103A3000F860FB6818461037BD4680BD80B584B07D
:103A400000AF786039600EF010FA7B689B6C002B39
:103A500002D00023FB600BE07B689B6B002B02D045
:103A60000023FB6004E07B683A689A640123FB60F2
:103A70000EF014FAFB6818461037BD4680BD80B5BD
:103A800084B000AF786039607B68BB60BB689B6CBA
:103A90003A689A4202D00023FB600FE0BB689B6B40
:103AA000002B02D00023FB6008E00EF0DEF9BB68BB
:103AB00000229A640EF0F2F90123FB60FB681846BD
:103AC0001037BD4680BD80B584B000AF78603960E6
:103AD0000023FB6007F10C033A6819467868FFF78A
:103AE00040FBFB6818461037BD4680BD80B584B0EA
:103AF00000AF78600023FB6007F10C030022194639
:103B00007868FFF73DFDFB6818461037BD4680BD5D
:103B100080B586B000AF78607B689B6C3B6100230A
:103B20007B613B699A6B3B69DB6B9A422DD23B69A7
:103B300093F84530FB733B1D002219463869FFF7A7
:103B400023FE786197F90F30B3F1FF3F0ED13B6947
:103B50005B6A002B19D03B6924331846FDF74EFEF3
:103B60000346002B11D001237B610EE0FDF7BAFB69
:103B7000B86097F90F30BA689A4206D9FB7B0133D7
:103B8000DBB25AB23B6983F845207B691846183787
:103B9000BD4680BD08B5044B186818B1804780F059
:103BA0000100C0B208BD00BF042B012004292CD89D
:103BB000DFE801F00308161D2400184A9388184412
:103BC00090807047154A9388184480B2C11C4FF604
:103BD000FC730B40984201D90430F1E793807047A1
:103BE0000E4A93880F33184420F00F00E8E70B4A81
:103BF00093881F33184420F01F00E1E7074A938899
:103C00003F33184420F03F00DAE74FF0200383F3FE
:103C10001188BFF36F8FBFF34F8FFEE7042B012096
:103C200070B5104A94790023D9B28C4201D8002093
:103C30000BE05D1C9B00D118B1F8076086420ED1E5
:103C4000B1F8092012B10848184470BD4FF02003A4
:103C500083F31188BFF36F8FBFF34F8FFEE72B46BF
:103C6000E2E700BF042B01200B2B012010B5044616
:103C7000FFF7D6FF40B14FF0200383F31188BFF365
:103C80006F8FBFF34F8FFEE70B4B9879020608D575
:103C90004FF0200383F31188BFF36F8FBFF34F8F73
:103CA000FEE7421C9A7103EB80020733A2F807403B
:103CB00003EB800010BD00BF042B012010B50446AB
:103CC000FFF7AEFF40B94FF0200383F31188BFF335
:103CD0006F8FBFF34F8FFEE72046FFF7A1FF054A26
:103CE0009379013BDBB2937102EB8303D3F8073086
:103CF000036010BD042B012008B5FFF791FF00B150
:103D0000408808BD09B91046704780B1037883EA3E
:103D1000122383EA131343EA022282EA033282EA7D
:103D2000431292B200B10130013989B2EAE7FF23B0
:103D3000EDE72DE9F04F85B081460E9E8A4690460C
:103D400006B11E4443449CB247465546A74203D1A0
:103D5000012005B0BDE8F08F95B36A4610232946CF
:103D600048460DF0C3F8BDF80420944208D9BDF8C8
:103D7000063013449BB29F4202D29C4203D91F4695
:103D8000BDF80A50E8E79742A4EB020128BFE31B05
:103D900089B234BF0B469BB2A4EB030432BFBDF81B
:103DA0000AB04746D346A4B246B110352944F61AA4
:103DB000C91A324689B248460DF098F85D46C5E703
:103DC0002846C6E72DE9F74FD4889688804689466D
:103DD00044F307254FF6FF77002D03DA384603B08A
:103DE000BDE8F08F1CD0A4F580741FFA84FA4FF45C
:103DF0008074DFF834B0CDF800B02346324649462F
:103E00004046FFF796FF38B13A4621465846FFF73D
:103E100079FF2644B6B20746013D6DB25446DBE752
:103E2000002CDBD0A246E4E70B2D012010B5084C96
:103E300094F807030DF0FCF84FF48042002194F849
:103E400007030DF01DF910B14FF48073A38010BD6E
:103E5000042B01202DE9F041094C05460E4617467A
:103E600013460A46014694F807030DF075F83B46E1
:103E70003246294694F80703BDE8F0410DF04EB9EB
:103E8000042B01207FB545F24143ADF806300D4BC0
:103E9000CDE902300C4BC043B3F8083304904FF621
:103EA000FF7210210DF10600ADF81430FFF72AFF64
:103EB0001222ADF8040001A90020FFF7CBFF07B0E4
:103EC0005DF804FB534E7632042B01202DE9F041BE
:103ED000234CB4F80A33B4F80C530B449BB2FF2BB9
:103EE00006460F46A4F80A3304F207280BD80A4600
:103EF000284441463D442AF01FFA0127A4F80C53F8
:103F00003846BDE8F081C5F58072414628442AF064
:103F100013FA4FF480723146A088FFF79BFF0746E3
:103F20000028EDD000214FF48070FFF73FFEB4F879
:103F30000A53B4F80C13A5F580750023ADB2A4F8AC
:103F40000C33A4F80A53002DDAD0C1F580712A464B
:103F500018FA81F130462AF0EFF9A4F80C53CFE7B4
:103F6000042B01202DE9F04F714C94F807738FB0AA
:103F70000021122309AA3846A4F80E13A4F810133E
:103F8000A4F80C13A4F80A130CF0B0FF0B9B0393D6
:103F900094F807330133DBB2012B88BF002384F888
:103FA000073394F80733BB4208D14FF0200383F363
:103FB0001188BFF36F8FBFF34F8FFEE7FFF736FF18
:103FC0000028E5D000230293DFF86C8182E0029B99
:103FD000DFF868A104EB830B05AABBF80990102356
:103FE000494638460CF082FF0026BDF81C50ADF85B
:103FF0001A5005AA49463846ADF81860CDF81E603B
:10400000FFF7E0FE4FF6FF72ADF814000E2105A891
:10401000FFF778FEF022ADF82200FF2150462AF08B
:104020006DFE05AB03CB1035C8F80000C8F80410CE
:10403000B4F80C2303CBA388C8F80800ADB213442E
:10404000B5F5807FC8F80C10ABF809301AD8CDF858
:1040500000A0BDF81C30324649463846FFF769FEDD
:1040600058B1A388B4F80C231344ABF8093029469F
:104070000AF1FB00FFF72AFF40BB002420460FB0E7
:10408000BDE8F08F102300BFB5F5807FAA4628BF9A
:104090004FF4807AAAEB030B1FFA8BFB4344009387
:1040A00032465B4649463846FFF743FE0028E4D0D7
:1040B00051462048FFF70AFF0028DED0A5EB0A058D
:1040C0005E44ADB2B6B20023002DDDD1029B0133B8
:1040D000DBB20293A379029A93423FF678AFB4F829
:1040E0000A23F2B9B4F80A030021FFF75FFDA388A1
:1040F000A4F80833039B581EFFF7C4FE04460028AB
:10410000BBD003210020FFF751FD1222FF2109A897
:104110002AF0F4FD122309AA002138460CF01CFFF6
:10412000ACE70449A088FFF795FE0028DAD1A4E7A0
:10413000042B0120162E01200B2D01201B2D012008
:1041400008B50A4B9B88C3F580439BB283420BD2D0
:10415000FFF708FF40B94FF0200383F31188BFF346
:104160006F8FBFF34F8FFEE708BD00BF042B012008
:104170002DE9F84F364D044605F2072988464FF4DD
:104180008072FF2148462AF0B9FDE1884FF6FF72A0
:104190004046FFF7B7FD4FF6FF7220800E21204604
:1041A000FFF7B0FD2368E081C5F807326368C9F8FE
:1041B0000430A368C9F80830E368C9F80C30E28815
:1041C00002F11006B6B2B8F1000F07D0B6F5807F45
:1041D00016D8414605F217202AF0AEF8E2881D49AC
:1041E000A888F02A28BFF022103292B2FFF732FEE0
:1041F0000746E0881030032180B2FFF7D7FC24E0A7
:104200004FF0000B102000BFB6F5807F344628BF6A
:104210004FF48074A4EB000A524608EB0B014844AB
:104220002AF08AF822460B49A888FFF713FE0746B2
:1042300058B1361B20460321DA44B6B2FFF7B6FC6C
:104240001FFA8AFB0020002EDED13846BDE8F88F29
:10425000042B01200B2D01202DE9F041624C00259B
:104260008EB0A5714FF0FF38FF27122304AA00215A
:1042700028460CF03BFEDDE906637340013326D18E
:104280009DF81230412B22D19DF81330542B1ED1B2
:104290009DF81430532B1AD19DF815304E2B16D1A2
:1042A0009DF81630762B12D19DF81730322B0ED197
:1042B0004FF6FF7210210DF11200FFF723FDBDF83C
:1042C0001030834203D146453CBFB0462F46DDB196
:1042D000FF2F2BD1002384F807334FF6FF7500BF63
:1042E000FFF7A4FD90B994F807330133DBB2012B3B
:1042F00084F80733F4D94FF0200383F31188BFF318
:104300006F8FBFF34F8FFEE70125AEE76FF001001F
:10431000A4F80853FFF7B6FD0028E4D00023A371EA
:10432000012384F812340EB0BDE8F0814FF480739D
:10433000A3803846122309AA002184F807730CF0E1
:10434000D5FD4FF6FF77A388B3F5804FE8D2BDF8CF
:104350003420BA4201D09A4214D803210020FFF73A
:1043600025FC032510236A46A18894F807030CF066
:10437000BDFD00231DF80320FF2A1CD10133102BA3
:10438000F8D1CDE70025EDE729461020FFF70EFC18
:10439000D9E7BDF802603046FFF742FC10B930465D
:1043A000FFF764FCA3884380BDF80830B3B93046FA
:1043B000FFF784FC12E03A460E216846FFF7A2FCA4
:1043C000BDF80E608642DFD16A46A18894F80703E3
:1043D000FFF7F8FCBDF800308342DAD0BDF80600E4
:1043E0001030294680B2D1E7042B012008B50CF02B
:1043F000D7FE044B93F812341BB9BDE80840FFF711
:104400002BBF08BD042B01202DE9FF478A46164625
:104410009846054630B12BB1FFF7BCFB044650B1BE
:10442000052044E04FF0200383F31188BFF36F8F22
:10443000BFF34F8FFEE706F1100080B2FFF780FE5A
:104440002846FFF7EDFB0746A0B3B0F802901C4DDD
:1044500010236A46494695F807030CF047FDBDF85E
:1044600008300AEB06029A4226D8B34218BFBDF8BC
:104470000C40ADF804A01CBF0134A4B2414668460C
:10448000ADF80C40ADF80660ADF80A90AC88FFF7C7
:104490006FFE98B1BDF80C307C80642B4FF00000AB
:1044A00005D9BDF80230A5F80E33A5F8100304B005
:1044B000BDE8F0870320FAE70420F8E70120F6E7DB
:1044C000042B012073B50C4615461E4628B123B1B6
:1044D000FFF712FC50B9032017E04FF0200383F3DD
:1044E0001188BFF36F8FBFF34F8FFEE76319B3F5EA
:1044F000803F09D20146074800962B46224690F895
:104500000703FFF716FC10B9042002B070BD0020AD
:10451000FBE700BF042B01201FB540B94FF020037B
:1045200083F31188BFF36F8FBFF34F8FFEE7FFF761
:10453000E3FB48B101460648102390F807036A469A
:104540000CF0D4FCBDF8080005B05DF804FB00BF1A
:10455000042B01202DE9F04F431E14469BB24FF669
:10456000FD72934289B007460D461DD8B1F5006F24
:104570001AD8FFF7C1FB00BBFFF70CFB064650BB88
:1045800005F1100080B2FFF7DBFD8E4B93F906209A
:10459000002A80F2FA804FF0200383F31188BFF3E2
:1045A0006F8FBFF34F8FFEE74FF0200383F3118827
:1045B000BFF36F8FBFF34F8FFEE73846FFF7ACFFB7
:1045C000854210D07F4EA6F80E73A6F81053FFF761
:1045D000E1FAB14608B105200EE0B6F8100370B953
:1045E000B6F80E337BB9002C00F0E78023462A464C
:1045F00000213846FFF766FF09B0BDE8F08F1030A4
:1046000080B2FFF79DFDB9F80E03FFF709FB804666
:104610000028E8D0B0F802A099F8070310230DEBAA
:10462000030251460CF062FCB9F81033F3B9BDF83F
:104630001800103080B2FFF783FDB9F80E03FFF7C2
:10464000EFFA804640B94FF0200383F31188BFF39F
:104650006F8FBFF34F8FFEE7B0F802A099F8070302
:1046600010230DEB030251460CF040FCB9F8102367
:10467000B9F804300393BDF8183022B19342ADF875
:10468000182028BF13460022BDF81810ADF81420DA
:10469000ADF81610CDF81A200DF1100CBCE803008F
:1046A000DFF824B1C9F8070203F11006CBF80410B3
:1046B000BCE80300B6B2B6F5807FCBF80800CBF8B3
:1046C0000C1031D80BF11001009199F807035146F5
:1046D000FFF72FFB002872D004AB03CBBDF81620E8
:1046E000C9F80702CBF8041003CB1032CBF808004E
:1046F000CBF80C1092B25946B9F80400FFF7AAFBA8
:1047000000283FF470AFBDF816001030032180B2CE
:10471000FFF74CFA2B4B0022A3F80E23A3F810232B
:10472000039BA8F802305EE793461023B6F5807F1E
:10473000B14628BF4FF48079A9EB030292B20292EE
:10474000214A2048134400935A46029B90F80703DD
:104750005146FFF7EEFA90B31B49A1F207204A46F3
:104760008088FFF777FB00283FF43DAF03214846E0
:10477000FFF71CFA029BA6EB09065B44B6B21FFAD0
:1047800083FB0023002ED1D1C4E7214604A8B3F84F
:104790000480ADF81270ADF81460ADF81650ADF8A5
:1047A0001850CDF81A60FFF7E3FC40B13846FFF728
:1047B0005DFAA0F8028002201EE720461CE70120D7
:1047C0001AE700BF042B01200B2D0120F0B507468E
:1047D00085B040B94FF0200383F31188BFF36F8F8A
:1047E000BFF34F8FFEE7FFF787FA00283FD0FFF7B0
:1047F000D1F9044600283CD11020FFF7A1FC4FF668
:10480000FF720E216846ADF80020ADF80270CDE9C8
:104810000144ADF80C40FFF775FA174DADF80E00E6
:104820006B4603CB05F20726C5F80702716003CB80
:104830001022B060F160A8883146FFF70BFB60B929
:104840001022A98895F807030CF01AFC18B9032167
:104850001020FFF7ABF9012007E003211020FFF73C
:10486000A5F93846FFF72AFA204605B0F0BD032027
:10487000FBE70520F9E700BF042B0120F8B504464B
:10488000FFF788F9054660BB64B10CF0D1FB01204D
:104890000CF0CEFB4FF40072294613482AF02EFA92
:1048A00000201FE0114DAF79E3B29F420CD8FFF713
:1048B00059FB0028F4D14FF0200383F31188BFF394
:1048C0006F8FBFF34F8FFEE705EB8403B3F80760EC
:1048D000304605F0B9F910B93046FFF7EFF9013469
:1048E000E2E70520F8BD00BF0B2B0120042B0120BF
:1048F000014B1860704700BF042B012008B5FFF77B
:10490000FBF9003018BF012008BD08B5FFF72AFBEE
:1049100040B94FF0200383F31188BFF36F8FBFF3CB
:104920004F8FFEE708BD00BF80B584B000AF786050
:104930007B681B68002B04D07B681B6818460CF052
:10494000A0FD0023FB7319E0104B1B68FA7B53F8A2
:1049500022307A689A420ED10C4B1B68FA7B53F8CE
:10496000223018460CF08DFD084B1B68FA7B0021A5
:1049700043F8221005E0FB7B0133FB73FB7B072B25
:10498000E2D900BF1037BD4680BD00BF70360120A0
:10499000B0B582B000AF0023FB7130E01C4B1B6848
:1049A000FA7953F82230002B26D1194B1C68FD7977
:1049B00010200CF05AFD034644F82530144B1B68B8
:1049C000FA7953F82230002B10D0114B1B68FA797A
:1049D00053F822301022002118462AF08FF90C4B90
:1049E0001B68FA7953F82230FA799A72084B1B68DF
:1049F000FA7953F8223006E0FB790133FB71FB7939
:104A0000072BCBD9002318460837BD46B0BD00BFE1
:104A10007036012080B485B000AF0346FB800023D0
:104A2000FB731FE0144B1B68FA7B53F82230002BFA
:104A300015D0114B1B68FA7B53F822301B89FA887A
:104A40009A420CD10C4B1B68FA7B53F82230FA7B4C
:104A50009A72094B1B68FA7B53F8223006E0FB7B05
:104A60000133FB73FB7B072BDCD90023184614377B
:104A7000BD465DF8047B70477036012080B584B078
:104A800000AF7860094B1B68002B0AD000233B73F2
:104A90007B681B89FB81054B1B6807F10C021046E4
:104AA000984700BF1037BD4680BD00BF6C3601205F
:104AB00080B588B000AF78603A4B1A687B681B7B82
:104AC00019460B46DB000B449B0013443C331A6829
:104AD0007B689B7ADB0013445A687B685A607B686A
:104AE0005868304B1A687B681B7B19460B46DB0005
:104AF0000B449B00134440331B781A4613465B005B
:104B000013445B001A4600212AF0F8F87B681B6802
:104B10000822002118462AF0F1F801233B814FF6C4
:104B2000FF737B811F4B1A687B681B7B19460B4602
:104B3000DB000B449B00134430331B783B73194B51
:104B40001A687B681B7B19460B46DB000B449B00F5
:104B50002033D018134B1A687B681B7B19460B4611
:104B6000DB000B449B00134430331B781A4607F1DB
:104B7000080305330146184629F0DEFB7B681B89D4
:104B800007F108021146184629F0DEF90346072B03
:104B900003D17B681B6806225A7100BF2037BD46CF
:104BA00080BD00BF7036012080B582B000AF786054
:104BB0007B681B7B0133DAB27B681A737B681A7BD4
:104BC000094B1B6893F8F8309A4203D27868FFF7D4
:104BD0006FFF05E07B6800225A737868FFF74EFF8D
:104BE00000BF0837BD4680BD7036012080B584B057
:104BF00000AF786000237B81224B1A687B681B7BA7
:104C000019460B46DB000B449B00134438331B68EA
:104C1000FB6000237B7221E0FB681B681B7903F0BB
:104C20000103002B14D07B6818897B681B681988E6
:104C30007B681B685B881A4628F004FD0346072B37
:104C400003D17B681B6804225A7101237B8114E025
:104C50007B7A01337B72FB680433FB60094B1A6873
:104C60007B681B7B19460B46DB000B449B001344FF
:104C700040331B787A7A9A42CED37B891846103714
:104C8000BD4680BD7036012090B587B000AF78601A
:104C9000396000237B823B689B79152B02D110235E
:104CA0007B748FE002237B748CE07B8A05333A6847
:104CB00013440A33FB6000233B74474B1A687B683C
:104CC0001B7B19460B46DB000B449B001344383317
:104CD0001B687B6161E07B691B681B7903F0010342
:104CE000002B54D17B691B681B681B7C7A7C9A4221
:104CF0004DD17B691B681B6818467B7C1A46F96896
:104D000029F00CFB0346002B41D17B8A3A681344FF
:104D10009B7A98B27B8A3A6813440A3301331B7832
:104D20009BB21B0299B27B685C683A7C13465B00BD
:104D300013445B002344421892B29A807B8A033367
:104D40003A6813449B7A98B27B8A03333A681344D7
:104D50000A3301331B789BB21B0299B27B685C68F3
:104D60003A7C13465B0013445B002344421892B222
:104D70001A807B8A991C7B6858683A7C13465B00D2
:104D800013445B0003443A680A44927A9A703B7C6D
:104D900001333B747B6904337B610F4B1A687B687A
:104DA0001B7B19460B46DB000B449B00134440332E
:104DB0001B783A7C9A428ED33B689B799AB27B8A65
:104DC00013447B823B681B897A8A9A42FFF46DAF59
:104DD00000BF1C37BD4690BD7036012090B587B02E
:104DE00000AF7860396000237B820223FB8171E091
:104DF0007B8A02333A6813440A33BB6000233B8248
:104E0000394B1A687B681B7B19460B46DB000B4449
:104E10009B00134438331B687B6145E07B691B684A
:104E20001B7903F00103002B38D07B6859683A8A5C
:104E300013465B0013445B000B441B88002B2DD1F1
:104E40007B691B681B681B7C9BB2FA899A4225D13F
:104E50007B691B681B681846FB891A46B96829F0EC
:104E60005DFA0346002B19D17B8A3A6813449B7A7A
:104E700098B27B8A3A6813440A3301331B789BB299
:104E80001B0299B27B685C683A8A13465B00134444
:104E90005B002344421892B21A8015E03B8A01332A
:104EA0003B827B6904337B610F4B1A687B681B7BF9
:104EB00019460B46DB000B449B00134440331B7820
:104EC0009BB23A8A9A42A9D37A8AFB8913449BB24D
:104ED00002337B823B681B897A8A9A4288D300BF5F
:104EE0001C37BD4690BD00BF7036012080B588B02C
:104EF00000AF786039603B681B78012B00F08B8035
:104F0000032B00F0A180002B40F028813B689B78A8
:104F1000002B40F02581FFF73BFDB861BB69002BFA
:104F200000F01E813B689A88BB691A81BB69002228
:104F30001A733B689A79BB69DA7208200CF095FA0B
:104F40000246BB691A600023FB7713E0894B19689E
:104F5000FA7F1346DB0013449B000B443C331A6872
:104F6000BB699B7ADB0013443A6892881A80FB7F06
:104F70000133FB777F4B1B6893F8F830FA7F9A4236
:104F8000E4D3BB691B68002B39D0BB691B680822BE
:104F90000021184629F0B2FE7B681B7803F0080355
:104FA000DBB2002B23D17B681B7803F00203DBB25A
:104FB000002B03D0BB69DB7A002B0AD07B681B78FF
:104FC00003F00403DBB2002B19D0BB69DB7A012BA1
:104FD00015D17B681B7803F00103DBB2002B0ED1E7
:104FE000BB6901225A73B869FFF762FD07E07A686E
:104FF00013786FF3C3031370BB6901229A73022302
:105000003B73BB691B89FB815B4B1B6807F10C027F
:1050100010469847A4E03B685B881846FFF7FAFC07
:1050200078617B69002B00F09D807869FFF77CFC3C
:1050300003233B723B685B887B814F4B1B6807F106
:105040000802104698478DE03B681B79002B40F022
:105050008B803B685B881846FFF7DCFC38613B6956
:10506000002B00F081803B691B68002B41D03B691D
:105070001B689B79002B3CD03B691B689B79062BF6
:1050800003D13869FFF714FD2EE03B691B689B795B
:10509000082B12D13B6918893B691B6819883B6949
:1050A0001B685B881A4628F0BCFA0346072B1BD105
:1050B0003B691B6808225A7116E03B691B689B79A3
:1050C000042B11D13B6918893B691B6819883B691E
:1050D0001B685B881A4628F0B5FA0346072B03D1F4
:1050E0003B691B6804225A713B691B6800229A7154
:1050F0003AE07B681B7803F00103DBB2002B33D06E
:105100001C4B1B6893F8F830002B2DD03B691B68B3
:10511000002B29D03B699B7B83F00103DBB2002B82
:1051200022D07B681B7803F00203DBB2002B03D094
:105130003B69DB7A002B0AD07B681B7803F0040301
:10514000DBB2002B10D03B69DB7A012B0CD13B6921
:1051500001225A733869FFF7ABFC05E000BF04E099
:1051600000BF02E000BF00E000BF00BF2037BD4627
:1051700080BD00BF703601206C36012080B58AB03A
:1051800000AF78607B681B78132B00F2B58101A219
:1051900052F823F0E5510001F9540001BB5200011F
:1051A000B353000105540001F9540001F954000102
:1051B000F9540001F9540001F9540001F9540001B7
:1051C000F9540001F9540001F9540001F9540001A7
:1051D000F9540001F9540001F9540001F954000197
:1051E000475400017B689B881846FFF713FC7862E0
:1051F0007B6A002B00F082817B6A5B7B83F001037A
:10520000DBB2002B40F07C817B689B7A0F2B03D0B4
:105210007B689B7A052B15D17B6A1B687A6892792B
:105220009A71A54B1B68002B00F06C8101233B7227
:105230007B6A1B897B81A04B1B6807F10802104623
:1052400098475FE17B689B79062B1CD17B6A1B68C2
:105250001B79002B13D07B6A18897B6A1B6819881D
:105260007B6A1B685B881A4628F0DBF90346072B2C
:1052700040F044817B6A1B6808225A713EE1786ADB
:10528000FFF792FC3AE17B689B79082B0CD1786A96
:10529000FFF7ACFC03467B847B8C002B40F02E8117
:1052A000786AFFF781FC29E17B689B79042B40F049
:1052B0002581786AFFF778FC20E17B689B88184697
:1052C000FFF7A8FBF861FB695B7B83F00103DBB2AE
:1052D000002B40F01981FB69002B00F017817B68DF
:1052E0001B7A99B27B68083301331B789BB21B028F
:1052F0009AB2FB691B680A4492B21A807B689B7A57
:1053000099B27B680A3301331B789BB21B029AB2B5
:10531000FB691B680A4492B25A80684B1A68FB69A1
:105320001B7B19460B46DB000B449B0013443433B4
:105330001B68002B1FD0FB691A68604B1968FB695A
:105340001B7B18460346DB0003449B000B443433AD
:105350001B6812881A80FB691A68584B1968FB6928
:105360001B7B18460346DB0003449B000B4434338D
:105370001B6852885A80FB691B6801221A717B687E
:1053800093F8FE30012B40F0C180FB691889FB695E
:105390001B681988FB691B685B881A4628F041F96D
:1053A0000346072B40F0B280FB691B6808225A7144
:1053B000ACE07B689B881846FFF72CFBB861BB69A3
:1053C0005B7B83F00103DBB2002B40F0A180BB6963
:1053D000002B00F09F807968B869FFF755FC7B6867
:1053E00093F8FF30012B40F09580B869FFF7FEFB82
:1053F0000346FB82FB8A002B40F08C80B869FFF7E4
:10540000D3FB87E07B689B881846FFF703FB386176
:105410003B695B7B83F00103DBB2002B7CD13B69F2
:10542000002B7BD07B681B89002B03D079683869FF
:10543000FFF7D4FC7B6893F8FF30012B6ED13869FD
:10544000FFF7B2FB6AE07B689B881846FFF7E2FA39
:10545000F860FB685B7B83F00103DBB2002B5FD15C
:10546000FB68002B5ED0FB681B685B79062B07D1BD
:10547000FB681B6800225A71F868FFF719FB51E0BE
:10548000FB681B685B79082B1AD1FB681B6800223C
:105490005A71FB681889FB681B681988FB681B68D0
:1054A0005B881A4628F0BDF80346072B3AD1FB6803
:1054B0001B6808225A7135E06C36012070360120D5
:1054C000FB681B685B79042B2CD1FB681B680022EE
:1054D0005A71FB681889FB681B681988FB681B6890
:1054E0005B881A4628F0AEF80346072B1AD1FB68F2
:1054F0001B6804225A7115E000BF14E000BF12E0DF
:1055000000BF10E000BF0EE000BF0CE000BF0AE0EB
:1055100000BF08E000BF06E000BF04E000BF02E0FB
:1055200000BF00E000BF2837BD4680BD80B582B017
:1055300000AF1A4B1B68002B0BD1FC200BF095FF22
:105540000246164B1A60154B1B68002B19D100231D
:105550001FE00023FB7111E0104B1B68FA7953F830
:105560002230002B07D00D4B1B68FA7953F82230FC
:105570001846FFF7D9F9FB790133FB71FB79072B4B
:10558000EAD9064B1B68FC220021184629F0B6FB1D
:10559000012318460837BD4680BD00BF7036012084
:1055A00080B483B000AF7860044A7B68136000BFAA
:1055B0000C37BD465DF8047B704700BF6C36012098
:1055C00080B582B000AF7860144B1B6893F8F83058
:1055D000052B1DD8114B1A68104B1B6893F8F83037
:1055E00019460B46DB000B449B0020331344242256
:1055F0007968184628F0A0FE084B1B6893F8F8203D
:10560000064B1B680132D2B283F8F820002300E079
:10561000012318460837BD4680BD00BF7036012003
:1056200080B582B000AF786039603B681B78012B91
:1056300002D0042B0AD010E07B68002B0CD03B6812
:105640005B6819467868FFF751FC05E03B685B68CA
:105650001846FFF793FD00E000BF00BF0837BD46C6
:1056600080BD80B584B000AF0346FB80FB88184640
:10567000FFF7D0F9F860FB68002B17D0FB681B68B8
:10568000002B11D0FB681B6808220021184629F066
:1056900035FBFB6800221A73FB6801225A73F86815
:1056A000FFF706FA002302E0022300E00323184676
:1056B0001037BD4680BD00BF80B485B000AF034643
:1056C000FB800023FB731CE0FB7B134A52F8233062
:1056D000002B13D0FB7B104A52F823305B78012B50
:1056E0000CD1FB7B0C4A52F823305B88FA889A4233
:1056F00004D1FB7B084A52F8233006E0FB7B0133E0
:10570000FB73FB7B072BDFD9002318461437BD46FC
:105710005DF8047B704700BF0835012090B583B069
:1057200000AF00233B600023FB7124E0FB79174AA4
:1057300052F82330002B1BD1FC7994200BF095FEFE
:105740000246124B43F82420FB79104A52F82330CA
:105750003B603B68002B12D094220021386829F06E
:10576000CDFA3B6817229A803B6801225A7006E006
:10577000FB790133FB71FB79072BD7D900E000BF20
:105780003B6818460C37BD4690BD00BF0835012068
:1057900080B584B000AF78600023FB7316E0FB7B1C
:1057A0000E4A52F823307A689A420CD1FB7B0B4A9E
:1057B00052F8233018460BF064FEFB7B074A0021A9
:1057C00042F8231005E0FB7B0133FB73FB7B072BC7
:1057D000E5D900BF1037BD4680BD00BF08350120A8
:1057E00080B5C2B000AF3B1D18603B1D1B68DB7964
:1057F000002B5DD01B2387F80431A723BB81052331
:10580000FB8107F1080307F10C0204321A6007F16B
:1058100008031B6800221A7007F108031B685A1C52
:1058200007F108031A6007F108031B6814221A70B5
:1058300007F108031B685A1C07F108031A603B1D97
:105840001B689B881B0A9AB207F108031B68D2B237
:105850001A703B1D1B689A8807F108031B68013307
:10586000D2B21A7007F108031B689A1C07F10803EB
:105870001A6007F108031B683A1D1268D2791A7082
:1058800007F108031B685A1C07F108031A603B1D47
:105890001B685B8807F10C021146184628F070FB64
:1058A0000346002B05D13B1D1B680022DA7100E086
:1058B00000BF07F58477BD4680BD80B588B000AFD6
:1058C000F8607B600B46FB7213463B81FB681B7CD8
:1058D0000F2B5FD80023FB6107F110030C2200217E
:1058E000184629F00BFA3B8918460BF0BEFDF8610B
:1058F000FB69002B0CD108233B74284B1B68002B41
:1059000047D0264B1B6807F110021046984741E02C
:105910003B891A467968F86928F00EFDFB685B7CC4
:10592000FA680233DB001344FA7A1A71FB685B7C75
:10593000FA680233DB0013443A89DA80FB685B7C47
:10594000FA680233DB001344FA699A60FB685B7CF7
:105950000133DAB2FB685A74FB685B7C0F2B02D907
:10596000FB6800225A74FB681B7C0133DAB2FB68C7
:105970001A7405233B74FB685B88BB82074B1B686A
:10598000002B07D0054B1B6807F110021046984703
:1059900000E000BF2037BD4680BD00BF04350120B8
:1059A00080B582B000AF78607B68DB68002B0AD0DE
:1059B0007B68DB6818460BF064FD7B680022DA60C8
:1059C0007B6800225A7200BF0837BD4680BD80B494
:1059D00083B000AF0023FB7121E0FB79154A52F838
:1059E0002330002B18D0FB79124A52F823305B7811
:1059F000012B08D1FB790F4A52F82330DB790C2BAD
:105A000001D901230FE0FB790A4A52F82330DB6801
:105A1000002B01D0012306E0FB790133FB71FB79F8
:105A2000072BDAD9002318460C37BD465DF8047BF6
:105A3000704700BF0835012080B588B000AF03462D
:105A4000FB80FB881846FFF737FEF861FB69002BE7
:105A50000CD107233B73254B1B68002B42D0234BF3
:105A60001B6807F10C02104698473BE0FB69DB68B6
:105A7000002B2CD0FB695B7A012B10D1FB695A8873
:105A8000FB69DB681946104628F0CEFA03467B8393
:105A90007B8B002B1BD1F869FFF782FF17E0FB69B6
:105AA0005B7A022B10D1FB695A88FB69DB681946C7
