:02000004008179
:100F8800FFFF000000400E8438FC745F3B400014F3
:080F98000B006079000000006D
:040FBC000000001021
:020000040100F9
:1000000000000000000000000000000000000000F0
:1000100000000000000000005048434D00000000B8
:1000200000000000000000000000000000000000D0
:10003000000000000000000000000000FEFFFFFFC5
:100040000301000000007400000000010002000134
:100050000002000180010300000000000000000019
:100060000000000000000000000000000000000090
:100070000000000000000000000000000000000080
:100080000000000000000000000000000000000070
:100090000000000000000000000000000000000060
:1000A0000000000000000000000000000000000050
:1000B0000000000000000000000000000000000040
:1000C0000000000000000000000000000000000030
:1000D0000000000000000000000000000000000020
:1000E0000000000000000000000000000000000010
:1000F0000000000000000000000000000000000000
:1001000000000000000000000000000000000000EF
:1001100000000000000000000000000000000000DF
:1001200000000000000000000000000000000000CF
:1001300000000000000000000000000000000000BF
:1001400000000000000000000000000000000000AF
:10015000000000000000000000000000000000009F
:10016000000000000000000000000000000000008F
:10017000000000000000000000000000000000007F
:10018000000000000000000000000000000000006F
:10019000000000000000000000000000000000005F
:1001A000000000000000000000000000000000004F
:1001B000000000000000000000000000000000003F
:1001C000000000000000000000000000000000002F
:1001D000000000000000000000000000000000001F
:1001E000000000000000000000000000000000000F
:1001F00000000000000000000000000000000000FF
:10020000F8FF07207D8C020199DF02019FDF0201C8
:10021000ABDF0201B1DF0201B7DF02010000000025
:1002200000000000000000000000000029EE0001B6
:10023000A5DF02010000000051EF0001B7EF00014F
:10024000975A0101975A0101975A0101190D0101AD
:10025000975A0101975A0101975A0101975A0101D2
:10026000975A0101975A0101975A0101975A0101C2
:10027000975A0101975A0101975A010151960001BD
:10028000975A0101975A0101975A0101975A0101A2
:10029000975A0101975A0101975A0101975A010192
:1002A000975A0101975A0101975A0101975A010182
:1002B000975A0101975A0101975A0101975A010172
:1002C000975A0101975A0101975A0101975A010162
:1002D000975A0101975A0101975A0101975A010152
:1002E000975A0101975A0101975A0101975A010142
:1002F000ADA30201D9E10201975A0101975A010108
:10030000975A010100000000975A0101975A010114
:10031000975A0101975A0101975A0101975A010111
:10032000975A01013D6F020100203200B0FA00200F
:10033000000000000000000001203200B0FA0020A0
:10034000000000000000000002203200B0FA00208F
:10035000000000000000000003203200B0FA00207E
:10036000000000000000000004203200B0FA00206D
:10037000000000000000000005203200B0FA00205C
:10038000000000000000000006203200B0FA00204B
:10039000000000000000000007203200B0FA00203A
:1003A000000000000000000008202000E4FA002007
:1003B000000000000000000009202000E4FA0020F6
:1003C00000000000000000000A202000E4FA0020E5
:1003D00000000000000000000B202000E4FA0020D4
:1003E00000000000000000000C202000E4FA0020C3
:1003F00000000000000000000D202000E4FA0020B2
:1004000000000000000000000E202000E4FA0020A0
:1004100000000000000000000F202000E4FA00208F
:100420000000000000000000F8B500BFF8BC08BCE8
:100430009E467047D9A80201F8B500BFF8BC08BCB9
:100440009E467047B5A802011C340100010000005F
:1004500080B58AB004AFF860B9603B601346FB809A
:10046000FB889B0018460DF06FFD38613B69002B3F
:1004700013D054200DF068FD78617B69002B08D003
:100480005422002178692FF037FA7B693A691A63A0
:1004900005E038690DF00AFE01E000237B617B690D
:1004A000002B0DD0FA88002303937B6902937B6AAB
:1004B00001933B6A00933B68B968F86800F029F83B
:1004C0007B6918461837BD4680BD80B588B002AF3D
:1004D000F860B9603B601346FB80FA887B6A019341
:1004E0003B6A00933B68B968F868FFF7B1FF386171
:1004F0003B69002B05D0386900F07CF801237B6153
:1005000002E04FF0FF337B617B6918461837BD4628
:1005100080BD80B586B000AFF860B9603B6013461F
:10052000FB80BB6A186BFB889B001A46A5212FF045
:10053000E3F9BB6A1A6BFB8803F18043013B9B0024
:1005400013443B613B6923F007033B61BB68002B0D
:100550001ED000237B6112E0BA687B6913441978CE
:10056000BA6A7B69134434330A461A70BA687B69E5
:1005700013441B78002B06D07B6901337B617B69B8
:100580000F2BE9D900E000BFBB6A002283F84320AB
:100590003B6A042B01D904233B62BB6A3A6ADA62E4
:1005A000BB6A3A6A5A64BB6A0433184619F0D6FC2F
:1005B000BB6A1833184619F0D1FCBB6ABA6A1A61D3
:1005C0003B6AC3F10502BB6A9A61BB6ABA6A5A62A6
:1005D0003A68F96838690EF0DBFB0246BB6A1A60BC
:1005E0007B6A002B02D07B6ABA6A1A6000BF183798
:1005F000BD4680BD80B584B000AF78600EF075FC5C
:100600003F4B1B6801333E4A13603E4B1B68002B77
:1006100009D13C4A7B681360394B1B68012B10D110
:1006200001F0FCFB0DE0384B1B68002B09D1354B6A
:100630001B68DA6A7B68DB6A9A4202D8314A7B68B7
:100640001360324B1B680133304A13607B68DB6AEE
:1006500001229A402E4B1B6813432D4A13607B687E
:10066000DA6A2C4913469B0013449B000B44043365
:100670001B68FB607B68FA689A60FB689A687B6815
:10068000DA60FB689B687A6804325A607B681A1DDE
:10069000FB689A607B68DA6A13469B0013449B00F0
:1006A0001C4A1A447B685A617B68DA6A1949134606
:1006B0009B0013449B000B441B687A68D26A591C48
:1006C000144813469B0013449B00034419600EF02A
:1006D00025FC0D4B1B68002B0ED00A4B1B68DA6AF9
:1006E0007B68DB6A9A4207D20B4B4FF080521A604C
:1006F000BFF34F8FBFF36F8F00BF1037BD4680BD74
:1007000000F7002028F600200CF700201CF700203E
:1007100008F700202CF6002004ED00E080B586B03C
:1007200000AF786000237B610EF0DFFB7B68002B5D
:1007300002D1394B1B6800E07B683B613B690433A5
:10074000184619F075FC0346002B15D13B69DA6A8F
:10075000324913469B0013449B000B441B68002B3B
:100760000AD13B69DB6A012202FA03F3DA432C4B1C
:100770001B6813402A4A13603B699B6A002B04D014
:100780003B691833184619F053FC264B1B6801339C
:10079000244A1360204B1B683A699A4201D1012315
:1007A00000E00023FB60204B1B68002B10D0FB688F
:1007B000002B0DD03B69043319461C4819F0DBFBB4
:1007C0001B4B1B6801331A4A136001237B6106E04F
:1007D000184B1B68013B174A136001F09BFB0EF09E
:1007E0009DFB7B69012B02D0386901F083FB0E4B26
:1007F0001B68002B0CD0084B1B683A699A4207D142
:100800000D4B4FF080521A60BFF34F8FBFF36F8FC5
:1008100000BF1837BD4680BD28F600202CF600200A
:1008200008F700201CF700200CF70020D4F6002069
:10083000E8F6002000F7002004ED00E080B586B067
:1008400000AF7860396000237B6100F02FFC224B01
:100850001B683B617B681B683A681344FB607B68DC
:100860001B683A699A420BD27B681B68FA689A4205
:1008700011D2FA683B699A420DD901237B610AE0E3
:100880007B681B68FA689A4203D3FA683B699A420C
:1008900001D901237B617B68FA681A607B69002BB0
:1008A00006D0FA683B69D31A0021184602F0C4F951
:1008B00000F046FCB860BB68002B07D1074B4FF037
:1008C00080521A60BFF34F8FBFF36F8F7B6918465A
:1008D0001837BD4680BD00BF04F7002004ED00E0DE
:1008E00080B584B000AF78600023FB607B68002B8C
:1008F00008D000F0DBFB0021786802F09DF900F0E1
:100900001FFCF860FB68002B07D1064B4FF08052AC
:100910001A60BFF34F8FBFF36F8F00BF1037BD4614
:1009200080BD00BF04ED00E080B58AB000AF786004
:100930007B68FB61324B1B68FA699A4203D1002342
:1009400087F8273056E00EF0D0FAFB695B69BB618F
:10095000FB699B6A7B612B4B1B683B612A4B1B68C5
:10096000FB600EF0DBFA7B69284A934203D1012336
:1009700087F827303EE0BA693B699A4203D0BA69EA
:10098000FB689A4203D1022387F8273032E0BB6923
:100990001F4A934220D1FB699B6A002B18D1032385
:1009A00087F8273000233B620EE0FA693B6A134464
:1009B00050331B78DBB2012B03D1022387F8273099
:1009C00018E03B6A01333B623B6A002BEDDD11E02E
:1009D000022387F827300DE0BB690E4A934202D00C
:1009E000BB69002B03D1042387F8273002E00123E1
:1009F00087F8273097F8273018462837BD4680BD3E
:100A000028F60020B8F60020BCF60020C0F6002032
:100A1000ECF60020D4F6002080B584B000AF7860FA
:100A20000EF063FA7B68002B02D1074B1B6800E0D5
:100A30007B68FB60FB68DB6ABB600EF06FFABB682B
:100A400018461037BD4680BD28F6002080B489B016
:100A500000AF7860EFF311824FF0200383F3118829
:100A6000BFF36F8FBFF34F8F3A61FB603B69FB6150
:100A70007B68002B02D10A4B1B6800E07B68BB61DE
:100A8000BB69DB6A7B61FB69BB60BB6883F3118870
:100A90007B6918462437BD465DF8047B704700BF6C
:100AA00028F6002080B584B000AF78600EF01DFA03
:100AB0007B68002B02D1074B1B6800E07B68FB6062
:100AC000FB685B6CBB600EF029FABB6818461037F8
:100AD000BD4680BD28F6002080B489B000AF7860A4
:100AE000EFF311824FF0200383F31188BFF36F8F70
:100AF000BFF34F8F3A61FB603B69FB617B68002B62
:100B000002D10A4B1B6800E07B68BB61BB695B6C70
:100B10007B61FB69BB60BB6883F311887B69184606
:100B20002437BD465DF8047B704700BF28F60020DF
:100B300080B588B000AF786039600023FB613B6806
:100B4000042B01D904233B600EF0CFF97B68002B06
:100B500002D1594B1B6800E07B68BB61BB695B6CD1
:100B60007B617A693B689A4200F09F803A687B69B2
:100B70009A420DD9504B1B68BA699A420FD04E4B1E
:100B80001B68DB6A3A689A4209D90123FB6106E0D7
:100B9000494B1B68BA699A4201D10123FB61BB69C9
:100BA000DB6A3B61BB695A6CBB69DB6A9A4204D061
:100BB000BB69DB6A3A689A4202D9BB693A68DA6271
:100BC000BB693A685A64BB699B69002B04DB3B68CC
:100BD000C3F10502BB699A61BB6959693A69134659
:100BE0009B0013449B00354A1344994252D1BB6980
:100BF0000433184619F01CFA0346002B09D10122D0
:100C00003B6902FA03F3DA432D4B1B6813402C4A6D
:100C10001360BB69DB6A01229A40294B1B681343AE
:100C2000274A1360BB69DA6A244913469B001344C0
:100C30009B000B4404331B68FB60BB69FA689A6035
:100C4000FB689A68BB69DA60FB689B68BA69043222
:100C50005A60BB691A1DFB689A60BB69DA6A134661
:100C60009B0013449B00154A1A44BB695A61BB6937
:100C7000DA6A124913469B0013449B000B441B681D
:100C8000BA69D26A591C0D4813469B0013449B0055
:100C900003441960FB69002B07D00A4B4FF08052C8
:100CA0001A60BFF34F8FBFF36F8F0EF037F900BF9D
:100CB0002037BD4680BD00BF28F600202CF600205E
:100CC00008F7002004ED00E080B586B000AF786042
:100CD0000EF00BF97B68002B02D13C4B1B6800E047
:100CE0007B683B613B690433184619F0A1F9034660
:100CF000002B15D13B69DA6A354913469B00134432
:100D00009B000B441B68002B0AD13B69DB6A012264
:100D100002FA03F3DA432F4B1B6813402D4A13608A
:100D20003B699B6A002B04D03B691833184619F0C5
:100D30007FF93B6904331946274819F01CF9002351
:100D40007B6110E03A697B69134450331B78DBB256
:100D5000012B05D13A697B691344503300221A7084
:100D60007B6901337B617B69002BEBDD0EF0D6F8EC
:100D70001A4B1B68002B05D00EF0B7F801F0CAF82B
:100D80000EF0CCF8114B1B683A699A421AD1134BFA
:100D90001B68002B08D0124B4FF080521A60BFF333
:100DA0004F8FBFF36F8F0DE00B4B1B68FB600D4B3C
:100DB0001B68FA689A4203D1044B00221A6001E0D2
:100DC00000F0D2FC00BF1837BD4680BD28F60020D9
:100DD0002CF6002008F70020ECF600200CF700208D
:100DE00004ED00E000F7002080B487B000AF786029
:100DF00000237B617B68FB60FB685B69144A93425C
:100E00001ED1FB689B6A134A934219D0FB689B6A08
:100E1000002B15D101237B6100233B610DE0FA68B3
:100E20003B69134450331B78DBB2012B02D1002302
:100E30007B6105E03B6901333B613B69002BEEDDE3
:100E40007B6918461C37BD465DF8047B704700BFC0
:100E5000ECF60020C0F6002080B584B000AF7860CA
:100E60007B68FB60354B1B68FA689A4261D0FB686F
:100E7000002B5ED00EF039F8F868FFF7B5FF034697
:100E8000002B54D0FB680433184619F0D1F8FB68E6
:100E9000DB6A01229A402A4B1B681343284A1360DD
:100EA000FB68DA6A274913469B0013449B000B44F6
:100EB00004331B68BB60FB68BA689A60BB689A68B9
:100EC000FB68DA60BB689B68FA6804325A60FB68AA
:100ED0001A1DBB689A60FB68DA6A13469B001344CC
:100EE0009B00184A1A44FB685A61FB68DA6A154984
:100EF00013469B0013449B000B441B68FA68D26A9C
:100F0000591C104813469B0013449B00034419606E
:100F10000A4B1B68DA6AFB68DB6A9A4207D20A4B03
:100F20004FF080521A60BFF34F8FBFF36F8F0DF0F9
:100F3000F5FF00BF1037BD4680BD00BF28F600207A
:100F400008F700202CF6002004ED00E080B58AB000
:100F500002AF0123FB6100233B6100237B6111E0B1
:100F60001D4A7B69134419783A467B6913440A4643
:100F70001A703A467B6913441B78002B06D07B69B4
:100F800001337B617B690F2BEADD00E000BF0023AA
:100F9000BB6116E0114B3B61BB699B00104A1344D7
:100FA000394601930023009300234FF4807238697F
:100FB000FFF78BFAF861FB69002B06D0BB690133A0
:100FC000BB61BB69002BE5DD00E000BFFB69184693
:100FD0002037BD4680BD00BF60010301551D0001E3
:100FE00024F7002080B582B000AFFFF7AFFF786034
:100FF0007B68012B02D108F09DFB78607B68012B98
:1010000014D14FF0200383F31188BFF36F8FBFF328
:101010004F8F3B60084B4FF0FF321A60074B0122A5
:101020001A60074B00221A600DF029FF054B1B6860
:1010300000BF0837BD4680BD20F700200CF7002018
:1010400004F70020DC01012080B582B000AF08F079
:101050003BFC03461846FFF761FB00237B6009E079
:10106000104A7B6852F823301846FFF757FB7B681D
:1010700001337B607B68002BF2DD00F00FFF4FF047
:10108000200383F31188BFF36F8FBFF34F8F3B6053
:10109000054B00221A600DF021FF00BF0837BD4646
:1010A00080BD00BF24F700200CF7002080B400AF03
:1010B000044B1B680133034A136000BFBD465DF853
:1010C000047B704728F7002080B485B000AF002370
:1010D000BB6001237B60154B1B687A689A4201D282
:1010E0000123BB60124B1B68DB6A002B02D000237C
:1010F000FB6014E00F4B1B68012B02D90023FB603F
:101100000DE0BB68002B02D00023FB6007E00A4B18
:101110001B68FB60094B1B68FA68D31AFB60FB680D
:1011200018461437BD465DF8047B704708F7002069
:1011300028F600202CF6002020F7002004F70020DD
:1011400080B588B000AF0023FB610023BB610DF0C8
:10115000CCFE00233B616D4B1B68013B6B4A136067
:101160006A4B1B68002B40F0CA80694B1B68002B40
:1011700000F0C5808EE0674BDB68DB68FB61FB69D4
:101180009B6AFB60FB69DB69FA69126A9A60FB691A
:101190001B6AFA69D2695A60FB685A68FB6918339E
:1011A0009A4203D1FB691A6AFB685A60FB69002204
:1011B0009A62FB681B685A1EFB681A60FB695B69D0
:1011C000BB60FB699B68FA69D2689A60FB69DB685F
:1011D000FA6992685A60BB685A68FB6904339A429C
:1011E00003D1FB69DA68BB685A60FB6900225A6167
:1011F000BB681B685A1EBB681A60FB69DB6A012268
:101200009A40454B1B681343434A1360FB69DA6AF3
:10121000424913469B0013449B000B4404331B6854
:101220007B60FB697A689A607B689A68FB69DA6020
:101230007B689B68FA6904325A60FB691A1D7B68F7
:101240009A60FB69DA6A13469B0013449B00334A99
:101250001A44FB695A61FB69DA6A304913469B00FC
:1012600013449B000B441B68FA69D26A591C2B4833
:1012700013469B0013449B0003441960FB69DA6A20
:10128000274B1B68DB6A9A4204D9264A3B69012135
:1012900042F823101F4B1B68002B7FF46CAFFB69D7
:1012A000002B01D000F036FE1F4B1B687B617B6971
:1012B000002B12D000F048F90346002B04D0194A45
:1012C0003B69012142F823107B69013B7B617B690B
:1012D000002BEFD1144B00221A60124A3B6952F8DE
:1012E0002330002B0BD00123BB610D4B1B680F4B30
:1012F0004FF080521A60BFF34F8FBFF36F8F0DF026
:101300000DFEBB6918462037BD4680BD28F700207A
:1013100000F70020C0F6002008F700202CF600207F
:1013200028F6002014F7002010F7002004ED00E05C
:1013300080B483B000AF054B1B687B607B681846A8
:101340000C37BD465DF8047B704700BF04F70020F2
:1013500080B483B000AF00237B60054B1B683B600B
:101360003B6818460C37BD465DF8047B704700BFEC
:1013700004F7002080B400AF034B1B681846BD463D
:101380005DF8047B704700BF00F7002080B485B093
:1013900000AF78607B68002B02D1064B1B6800E031
:1013A0007B68FB60FB68343318461437BD465DF834
:1013B000047B704728F6002080B584B000AF7860C9
:1013C0000F4B1B687A681344FB600E4B1B68FA686E
:1013D0009A420BD10DF089FD0B4B1B6801330A4A71
:1013E00013600DF09BFD7B68013B7B60044B1A682A
:1013F0007B681344024A136000BF1037BD4680BDAE
:1014000004F7002020F7002010F7002080B584B0FA
:1014100000AF7860FFF74AFE0DF067FD074B1A68D2
:101420007B681344054A13600DF078FDFFF788FED2
:10143000F860FB6818461037BD4680BD10F70020E5
:1014400080B586B000AF78607B683B61FFF72EFE09
:101450007868FFF769FA0346022B63D101237B61A9
:101460003B690433184618F0E3FD0DF03EFD3B697F
:101470009B6A002B08D03B691833184618F0D8FD3A
:101480003B69012283F851200DF048FD3B69DB6A7E
:1014900001229A40284B1B681343274A13603B697B
:1014A000DA6A264913469B0013449B000B4404331D
:1014B0001B68FB603B69FA689A60FB689A683B6945
:1014C000DA60FB689B683A6904325A603B691A1D0E
:1014D000FB689A603B69DA6A13469B0013449B00E1
:1014E000164A1A443B695A613B69DA6A1349134642
:1014F0009B0013449B000B441B683A69D26A591C39
:101500000E4813469B0013449B00034419603B693B
:10151000DA6A0B4B1B68DB6A9A4205D9094B012238
:101520001A6001E000237B61FFF70AFE7B69184621
:101530001837BD4680BD00BF08F700202CF60020FC
:1015400028F6002014F7002080B588B000AF0023F3
:10155000FB617A4B1B68002B40F0E480784B1B68E2
:101560000133BB61764ABB691360BB69002B10D1A4
:10157000744B1B687B61744B1B68724A1360724A20
:101580007B691360714B1B680133704A136000F074
:10159000C1FC6F4B1B68BA699A42C0F0A880694BC6
:1015A0001B681B68002B04D1694B4FF0FF321A6097
:1015B0009DE0644B1B68DB68DB683B613B695B68F3
:1015C000FB60BA69FB689A4203D2614AFB68136008
:1015D0008DE03B695B69BB603B699B683A69D26897
:1015E0009A603B69DB683A6992685A60BB685A68DE
:1015F0003B6904339A4203D13B69DA68BB685A609D
:101600003B6900225A61BB681B685A1EBB681A609E
:101610003B699B6A002B1ED03B699B6A7B603B69E0
:10162000DB693A69126A9A603B691B6A3A69D26956
:101630005A607B685A683B6918339A4203D13B6908
:101640001A6A7B685A603B6900229A627B681B6851
:101650005A1E7B681A603B69DB6A01229A403D4B47
:101660001B6813433B4A13603B69DA6A3A491346E5
:101670009B0013449B000B4404331B683B603B6995
:101680003A689A603B689A683B69DA603B689B6895
:101690003A6904325A603B691A1D3B689A603B699B
:1016A000DA6A13469B0013449B002B4A1A443B6999
:1016B0005A613B69DA6A284913469B0013449B0030
:1016C0000B441B683A69D26A591C234813469B0095
:1016D00013449B00034419603B69DA6A1F4B1B6883
:1016E000DB6A9A427FF65BAF0123FB6157E71B4B36
:1016F0001B68DA6A184913469B0013449B000B448D
:101700001B68012B01D90123FB61154B1B68002BC2
:1017100001D123F082FE134B1B68002B09D001235B
:10172000FB6106E00E4B1B6801330D4A136023F08A
:1017300074FEFB6918462037BD4680BD28F700209F
:1017400004F70020B8F60020BCF6002018F70020AF
:1017500020F7002008F700202CF6002028F60020B3
:1017600010F7002014F7002080B588B000AF304B90
:101770001B68002B03D02F4B01221A6053E02D4B26
:1017800000221A602C4B1B681B6BFB614FF0A533CA
:10179000BB61FB691B68BA699A4211D1FB690433CA
:1017A0001B68BA699A420BD1FB6908331B68BA6996
:1017B0009A4205D1FB690C331B68BA699A4209D079
:1017C0001D4B1B6834337B611B4B1B6879691846C2
:1017D00023F001FE194B1B68BB60BB68B3FA83F3AF
:1017E000FB71FB79C3F11F033B613A6913469B0010
:1017F00013449B00124A1344FB60FB685B685A6801
:10180000FB685A60FB685A68FB6808339A4203D148
:10181000FB68DA68FB685A60FB685B68DB68064A4D
:101820001360054B1B6800BF2037BD4680BD00BF5D
:1018300028F7002014F7002028F6002008F70020E1
:101840002CF6002080B582B000AF78603960074B7D
:101850001B6818331946786818F0B1FB0121386805
:1018600001F0EAF900BF0837BD4680BD28F6002028
:1018700080B586B000AFF860B9607A60174B1B681E
:10188000BA6842F000429A61FB685B687B61134B67
:101890001B687A69DA61114B1B687A6992681A626F
:1018A0000E4B1A687B699B6818325A600B4B1B6899
:1018B00003F118027B699A60084B1B68FA689A6208
:1018C000FB681B685A1CFB681A600121786801F0EC
:1018D000B3F900BF1837BD4680BD00BF28F6002011
:1018E00080B586B000AFF860B9607A60FB685B686D
:1018F0007B61164B1B687A69DA61144B1B687A6945
:1019000092681A62114B1A687B699B6818325A6098
:101910000E4B1B6803F118027B699A600B4B1B6826
:10192000FA689A62FB681B685A1CFB681A607B683D
:10193000002B02D04FF0FF33BB607968B86801F02C
:101940007BF900BF1837BD4680BD00BF28F60020D8
:1019500080B588B000AF78607B68DB68DB68BB610E
:10196000BB699B6A7B61BB69DB69BA69126A9A6071
:10197000BB691B6ABA69D2695A607B695A68BB69DC
:1019800018339A4203D1BB691A6A7B695A60BB69F2
:1019900000229A627B691B685A1E7B691A604B4B56
:1019A0001B68002B62D1BB695B693B61BB699B68AB
:1019B000BA69D2689A60BB69DB68BA6992685A6092
:1019C0003B695A68BB6904339A4203D1BB69DA6840
:1019D0003B695A60BB6900225A613B691B685A1E09
:1019E0003B691A60BB69DB6A01229A40384B1B686D
:1019F0001343374A1360BB69DA6A364913469B00C2
:101A000013449B000B4404331B68FB60BB69FA68FA
:101A10009A60FB689A68BB69DA60FB689B68BA6980
:101A200004325A60BB691A1DFB689A60BB69DA6AA6
:101A300013469B0013449B00264A1A44BB695A6113
:101A4000BB69DA6A234913469B0013449B000B448D
:101A50001B68BA69D26A591C1E4813469B0013447E
:101A60009B000344196000F055FA1BE01A4B5B68B9
:101A7000BB60BB69BA68DA61BB689A68BB691A6205
:101A8000BB689B68BA6918325A60BB6903F11802D7
:101A9000BB689A60BB69104A9A620F4B1B6801339E
:101AA0000D4A1360BB69DA6A0C4B1B68DB6A9A4209
:101AB00005D90123FB610A4B01221A6001E00023D2
:101AC000FB61FB6918462037BD4680BD28F7002022
:101AD00008F700202CF60020C0F6002028F6002091
:101AE00014F7002080B586B000AF786039603B689D
:101AF00043F000427B681A607B68DB687B617B682F
:101B00001B693B617B685B687A6892689A607B6856
:101B10009B687A6852685A603B695B687A689A4247
:101B200003D17B689A683B695A607B6800221A611E
:101B30003B691B685A1E3B691A6000F0EBF97B6930
:101B40005B69FB607B699B687A69D2689A607B6994
:101B5000DB687A6992685A60FB685A687B6904336B
:101B60009A4203D17B69DA68FB685A607B6900227C
:101B70005A61FB681B685A1EFB681A607B69DB6A46
:101B800001229A40254B1B681343244A13607B694A
:101B9000DA6A234913469B0013449B000B44043329
:101BA0001B68BB607B69BA689A60BB689A687B698E
:101BB000DA60BB689B687A6904325A607B691A1DD7
:101BC000BB689A607B69DA6A13469B0013449B00EA
:101BD000134A1A447B695A617B69DA6A10491346D1
:101BE0009B0013449B000B441B687A69D26A591C02
:101BF0000B4813469B0013449B00034419607B6908
:101C0000DA6A084B1B68DB6A9A4202D9064B01224A
:101C10001A6000BF1837BD4680BD00BF08F700201E
:101C20002CF6002028F6002014F7002080B582B0A2
:101C300000AF78600DF059F9064B1A687B681A609E
:101C4000054B1A687B685A600DF068F900BF0837C9
:101C5000BD4680BD18F7002004F7002080B483B093
:101C600000AF7860064B1A687B681A60054B1A68EB
:101C70007B685A6000BF0C37BD465DF8047B704737
:101C800018F7002004F7002080B586B000AF786018
:101C900039600DF02AF9264B1B683B617B685B6855
:101CA0003A69D31AFB60234B1B6893F85130002B21
:101CB00007D0204B1B68002283F8512001237B6151
:101CC0002EE03B681B68B3F1FF3F02D100237B612C
:101CD00026E07B681A68184B1B689A420AD07B681A
:101CE0005B683A699A4205D301237B613B68002215
:101CF0001A6015E03B681B68FA689A420BD23B6891
:101D00001A68FB68D21A3B681A607868FFF7A6FF6A
:101D100000237B6104E03B6800221A6001237B61A1
:101D20000DF0FCF87B6918461837BD4680BD00BF32
:101D300004F7002028F6002018F7002080B400AF38
:101D4000034B01221A6000BFBD465DF8047B70475B
:101D500014F7002080B584B000AF786000F09EF8E2
:101D6000104B1B68012B07D90F4B4FF080521A60A4
:101D7000BFF34F8FBFF36F8F23F049FBFFF7A4F939
:101D8000F860FB68042BE9D9FFF790F9FFF79CF99D
:101D9000F860FB68042B02D9F8680DF02DF9FFF705
:101DA000CFF9DBE72CF6002004ED00E080B483B02F
:101DB00000AF01233B600123FB71134B1B68002B19
:101DC00002D00023FB7117E0104B1B68002B02D0E0
:101DD0000023FB7110E00E4B1B68002B02D0002388
:101DE000FB7109E00B4B1A680B4B19683B68CB1A67
:101DF0009A4201D10223FB71FB7918460C37BD468C
:101E00005DF8047B704700BFC0F6002014F7002087
:101E100010F70020ECF6002000F7002080B582B01B
:101E200000AF00237B600CE07A6813469B001344EC
:101E30009B00124A1344184618F070F87B6801336F
:101E40007B607B68042BEFD90D4818F067F80D48CC
:101E500018F064F80C4818F061F80C4818F05EF8B7
:101E60000B4818F05BF80B4B054A1A600A4B054A01
:101E70001A6000BF0837BD4680BD00BF2CF60020A9
:101E800090F60020A4F60020C0F60020D4F6002032
:101E9000ECF60020B8F60020BCF6002080B582B039
:101EA00000AF19E00DF021F80F4BDB68DB687B60B9
:101EB0007B680433184618F0BBF80C4B1B68013BD9
:101EC0000A4A13600A4B1B68013B094A13600DF074
:101ED00025F8786800F00EF8054B1B68002BE1D15F
:101EE00000BF0837BD4680BDD4F6002000F70020B3
:101EF000E8F6002080B582B000AF78607B681B6B8D
:101F000018460CF0D3F878680CF0D0F800BF08370A
:101F1000BD4680BD80B400AF0A4B1B681B68002B18
:101F200004D1094B4FF0FF321A6005E0054B1B68E6
:101F3000DB681B68044A136000BFBD465DF8047B84
:101F4000704700BFB8F6002020F7002080B483B0AF
:101F500000AF054B1B687B607B6818460C37BD469D
:101F60005DF8047B704700BF28F6002080B485B080
:101F700000AF78600023FB607B68002B05DB7B688B
:101F8000002B02DC044B1B68FB60FB68184614370F
:101F9000BD465DF8047B704728F6002080B483B00E
:101FA00000AF0B4B1B68002B02D101237B6008E0C4
:101FB000084B1B68002B02D102237B6001E0002349
:101FC0007B607B6818460C37BD465DF8047B704724
:101FD0000CF7002028F7002080B586B000AF7860AD
:101FE0007B683B6100237B617B68002B00F089806C
:101FF0003B69DA6A454B1B68DB6A9A4278D23B69D7
:102000009B69002B06DB414B1B68DB6AC3F10502B1
:102010003B699A613B6959693B69DA6A13469B00DF
:1020200013449B003A4A1344994259D13B69043303
:10203000184617F0FDFF0346002B0AD13B69DB6A07
:10204000012202FA03F3DA43324B1B681340314A90
:1020500013602E4B1B68DA6A3B69DA623B69DB6A04
:1020600001229A402B4B1B6813432A4A13603B6999
:10207000DA6A274913469B0013449B000B44043340
:102080001B68FB603B69FA689A60FB689A683B6969
:10209000DA60FB689B683A6904325A603B691A1D32
:1020A000FB689A603B69DA6A13469B0013449B0005
:1020B000174A1A443B695A613B69DA6A1449134664
:1020C0009B0013449B000B441B683A69D26A591C5D
:1020D0000F4813469B0013449B000344196004E01F
:1020E0000A4B1B68DA6A3B69DA6201237B6108E00C
:1020F0003B695A6C054B1B68DB6A9A4201D201238B
:102100007B617B6918461837BD4680BD28F60020E4
:102110002CF6002008F7002080B586B000AF78606C
:102120007B683B6100237B617B68002B6ED03B6941
:102130009B6C5A1E3B699A643B69DA6A3B695B6C2B
:102140009A4263D03B699B6C002B5FD13B6904339F
:10215000184617F06DFF0346002B0AD13B69DB6A76
:10216000012202FA03F3DA432B4B1B6813402A4A7D
:1021700013603B695A6C3B69DA623B69DB6AC3F105
:1021800005023B699A613B69DB6A01229A40224B56
:102190001B681343204A13603B69DA6A1F491346E0
:1021A0009B0013449B000B4404331B68FB603B699A
:1021B000FA689A60FB689A683B69DA60FB689B681A
:1021C0003A6904325A603B691A1DFB689A603B69A0
:1021D000DA6A13469B0013449B00104A1A443B6979
:1021E0005A613B69DA6A0D4913469B0013449B0010
:1021F0000B441B683A69D26A591C084813469B0075
:1022000013449B000344196001237B617B691846DA
:102210001837BD4680BD00BF08F700202CF600200F
:1022200080B588B000AF786039607B68BB610123FE
:102230007B617B68002B00F08380BB695B6C3A6834
:102240009A4202D93B68FB6102E0BB695B6CFB61AF
:10225000BB69DB6AFA699A4272D0BB699B6C7A6986
:102260009A426DD1BB69DB6A3B61BB69FA69DA628C
:10227000BB699B69002B04DBFB69C3F10502BB69E9
:102280009A61BB6959693A6913469B0013449B00E4
:102290002D4A1344994253D1BB690433184617F0B1
:1022A000C7FE0346002B0AD1BB69DB6A012202FA92
:1022B00003F3DA43254B1B681340244A1360BB69C0
:1022C000DB6A01229A40214B1B6813431F4A1360AB
:1022D000BB69DA6A1C4913469B0013449B000B44FC
:1022E00004331B68FB60BB69FA689A60FB689A68F4
:1022F000BB69DA60FB689B68BA6904325A60BB69E3
:102300001A1DFB689A60BB69DA6A13469B00134486
:102310009B000D4A1A44BB695A61BB69DA6A0A49D3
:1023200013469B0013449B000B441B68BA69D26A96
:10233000591C054813469B0013449B000344196035
:1023400000BF2037BD4680BD2CF6002008F70020D6
:1023500080B483B000AF094B1B689B697B60074B5F
:102360001B68DA6A054B1B68C2F105029A617B683B
:1023700018460C37BD465DF8047B704728F60020F0
:1023800080B483B000AF094B1B687B607B68002B77
:1023900004D07B689B6C5A1C7B689A647B681846E7
:1023A0000C37BD465DF8047B704700BF28F600205F
:1023B00080B588B000AFF860B9607A600023FB6137
:1023C000FEF774FE0CF091FD2F4B1A68FB68123378
:1023D0009B0013445B68002B0BD12B4B1A68FB68E6
:1023E0001344503301221A707B68002B01D0012363
:1023F000FB610CF093FDFB69012B03D1012178688F
:1024000000F01AFCFEF79CFEB861FB69012B0AD1B3
:10241000BB69002B07D11D4B4FF080521A60BFF3F0
:102420004F8FBFF36F8F0CF060FD174B1A68FB687E
:1024300012339B0013445B687B617B69002B14D0D3
:10244000BB68002B08D0104B1A68FB6812339B0046
:10245000134400225A6008E00B4B19687B695A1E2E
:10246000FB6812339B000B445A60074B1A68FB68E9
:102470001344503300221A700CF050FD7B6918464B
:102480002037BD4680BD00BF28F6002004ED00E0E7
:1024900080B588B000AFF860B9607A603B60002317
:1024A000BB61FEF703FE0CF020FD3B4B1A68FB6896
:1024B000134450331B78DBB2022B1AD0364B1A6808
:1024C000FB6812339B0013445968BB68DB43194017
:1024D000FB6812339B00134459602F4B1A68FB684A
:1024E0001344503301221A70BB6A002B01D0012320
:1024F000BB610CF013FDBB69012B03D10121B86A4C
:1025000000F09AFBFEF71CFE7861BB69012B0AD133
:102510007B69002B07D1214B4FF080521A60BFF32B
:102520004F8FBFF36F8F0CF0E0FC3B68002B08D09F
:10253000194B1A68FB6812339B0013445A683B68B6
:102540001A60154B1A68FB68134450331B78DBB2D2
:10255000022B02D00023FB6110E00F4B1A68FB68CE
:1025600012339B00134459687B68DB431940FB68B6
:1025700012339B00134459600123FB61064B1A6818
:10258000FB681344503300221A700CF0C7FCFB693F
:1025900018462037BD4680BD28F6002004ED00E037
:1025A00080B58AB000AFF860B9607A60FB70012333
:1025B0007B62FB683B620CF098FC3B6B002B07D006
:1025C0003A6ABB6812339B0013445A683B6B1A602B
:1025D0003A6ABB68134450331B78FB773A6ABB688E
:1025E0001344503302221A70FB78042B3FD801A207
:1025F00052F823F06F26000109260001272600016A
:1026000043260001532600013A6ABB6812339B003F
:1026100013445A687B681A43396ABB6812339B00BB
:102620000B445A6024E03A6ABB6812339B0013449F
:102630005B685A1C396ABB6812339B000B445A60B2
:1026400016E03A6ABB6812339B0013447A685A60FA
:102650000EE0FB7F022B07D03A6ABB6812339B0067
:1026600013447A685A6003E000237B6200E000BFF5
:10267000FB7F012B70D13B6A5B69BB613B6A9B6846
:102680003A6AD2689A603B6ADB683A6A92685A6032
:10269000BB695A683B6A04339A4203D13B6ADA68E1
:1026A000BB695A603B6A00225A61BB691B685A1EAB
:1026B000BB691A603B6ADB6A01229A402A4B1B689D
:1026C0001343294A13603B6ADA6A284913469B0080
:1026D00013449B000B4404331B687B613B6A7A699B
:1026E0009A607B699A683B6ADA607B699B683A6AA0
:1026F00004325A603B6A1A1D7B699A603B6ADA6A47
:1027000013469B0013449B00184A1A443B6A5A61C3
:102710003B6ADA6A154913469B0013449B000B443D
:102720001B683A6AD26A591C104813469B0013442E
:102730009B0003441960FFF7EDFB0D4B1B68DA6A41
:102740003B6ADB6A9A4207D20A4B4FF080521A600A
:10275000BFF34F8FBFF36F8F0CF0E0FB7B6A18461F
:102760002837BD4680BD00BF08F700202CF60020AA
:1027700028F6002004ED00E080B48FB000AFF860D0
:10278000B9607A60FB7001237B63FB683B63EFF306
:1027900011824FF0200383F31188BFF36F8FBFF3D3
:1027A0004F8FBA617B61BB69FB623B6C002B07D02A
:1027B0003A6BBB6812339B0013445A683B6C1A6037
:1027C0003A6BBB68134450331B7887F82B303A6B55
:1027D000BB681344503302221A70FB78042B41D893
:1027E00001A252F823F000BF65280001FD27000177
:1027F0001B28000137280001472800013A6BBB68FD
:1028000012339B0013445A687B681A43396BBB68C8
:1028100012339B000B445A6025E03A6BBB681233BD
:102820009B0013445B685A1C396BBB6812339B00D6
:102830000B445A6017E03A6BBB6812339B00134499
:102840007A685A600FE097F82B30022B07D03A6B6A
:10285000BB6812339B0013447A685A6003E000237C
:102860007B6300E000BF97F82B30012B40F0918094
:102870004E4B1B68002B60D13B6B5B697B623B6BF3
:102880009B683A6BD2689A603B6BDB683A6B9268E4
:102890005A607B6A5A683B6B04339A4203D13B6BA4
:1028A000DA687B6A5A603B6B00225A617B6A1B685C
:1028B0005A1E7B6A1A603B6BDB6A01229A403C4BD2
:1028C0001B6813433A4A13603B6BDA6A3949134673
:1028D0009B0013449B000B4404331B683B623B6B1F
:1028E0003A6A9A603B6A9A683B6BDA603B6A9B681B
:1028F0003A6B04325A603B6B1A1D3B6A9A603B6B21
:10290000DA6A13469B0013449B002A4A1A443B6B25
:102910005A613B6BDA6A274913469B0013449B00BC
:102920000B441B683A6BD26A591C224813469B0021
:1029300013449B00034419601BE01F4B5B68FB6161
:102940003B6BFA69DA61FB699A683B6B1A62FB6957
:102950009B683A6B18325A603B6B03F11802FB69B3
:102960009A603B6B144A9A62134B1B680133124AFC
:1029700013603B6BDA6A114B1B68DB6A9A4208D919
:102980007B6C002B02D07B6C01221A600C4B012265
:102990001A60FB6A3B613B6983F311887B6B1846C5
:1029A0003C37BD465DF8047B704700BF28F7002028
:1029B00008F700202CF60020C0F6002028F60020A2
:1029C00014F7002080B48FB000AFF860B9607A606F
:1029D000FB687B63EFF311824FF0200383F31188D0
:1029E000BFF36F8FBFF34F8FFA61BB61FB693B632E
:1029F0007A6BBB68134450331B7887F82F307A6B9F
:102A0000BB681344503302221A707A6BBB681233CE
:102A10009B0013445B685A1C796BBB6812339B00A4
:102A20000B445A6097F82F30012B40F091804E4BA9
:102A30001B68002B60D17B6B5B69BB627B6B9B6807
:102A40007A6BD2689A607B6BDB687A6B92685A60AB
:102A5000BB6A5A687B6B04339A4203D17B6BDA689A
:102A6000BB6A5A607B6B00225A61BB6A1B685A1EA4
:102A7000BB6A1A607B6BDB6A01229A403B4B1B6886
:102A800013433A4A13607B6BDA6A394913469B0059
:102A900013449B000B4404331B687B627B6B7A6A94
:102AA0009A607B6A9A687B6BDA607B6A9B687A6B58
:102AB00004325A607B6B1A1D7B6A9A607B6BDA6A00
:102AC00013469B0013449B00294A1A447B6B5A61AE
:102AD0007B6BDA6A264913469B0013449B000B4428
:102AE0001B687A6BD26A591C214813469B00134419
:102AF0009B00034419601BE01E4B5B683B627B6BD1
:102B00003A6ADA613B6A9A687B6B1A623B6A9B6835
:102B10007A6B18325A607B6B03F118023B6A9A6039
:102B20007B6B144A9A62134B1B680133114A136082
:102B30007B6BDA6A104B1B68DB6A9A4208D97B68A8
:102B4000002B02D07B6801221A600C4B01221A6014
:102B50003B6B7B617B6983F3118800BF3C37BD46CB
:102B60005DF8047B704700BF28F7002008F70020BD
:102B70002CF60020C0F6002028F6002014F70020D4
:102B800080B584B000AF786039607B68002B02D1DB
:102B9000104B1B6800E07B68BB600CF0A6F9BA68BC
:102BA0003B68134450331B78DBB2022B08D1BA6860
:102BB0003B681344503300221A700123FB6001E08C
:102BC0000023FB600CF0AAF9FB6818461037BD46DD
:102BD00080BD00BF28F6002080B586B000AFF86049
:102BE000B9607A60FB68002B02D1124B1B6800E0D1
:102BF000FB687B610CF079F97A69BB6812339B0042
:102C000013445B683B617A69BB6812339B001344D1
:102C10005A687B68DB431A407969BB6812339B00B2
:102C20000B445A600CF07AF93B6918461837BD46D8
:102C300080BD00BF28F6002080B588B000AF786066
:102C40003960394B1B68FB61384B1B68BB61384BE3
:102C50001B687B61374B1B68002283F85120354B82
:102C60001B680433184617F0E3F90346002B0BD119
:102C7000304B1B68DB6A012202FA03F3DA432E4B66
:102C80001B6813402C4A13607B68B3F1FF3F24D1CB
:102C90003B68002B21D0294B5B683B61254B1B68AF
:102CA0003A699A60234B1B683A699268DA60214B53
:102CB0001A683B699B6804325A601E4B1B681A1DD8
:102CC0003B699A601B4B1B681C4A5A611B4B1B6873
:102CD00001331A4A136000BF22E0FA697B6813448B
:102CE000FB60144B1B68FA685A60FA68FB699A42E9
:102CF00007D2104B1B6804331946786917F05FF947
:102D00000EE00C4B1B6804331946B86917F057F9ED
:102D10000B4B1B68FA689A4202D2094AFB6813609F
:102D200000BF2037BD4680BD04F70020B8F6002064
:102D3000BCF6002028F6002008F70020ECF6002062
:102D400020F7002080B483B000AF1A4B00221A6035
:102D5000194B00221A60194B00221A60184B0022EE
:102D60001A60184B00221A60174B00221A60174B8A
:102D700000221A6000237B6007E0154A7B6800216F
:102D800042F823107B6801337B607B68002BF4DD05
:102D9000104B00221A60104B00221A600F4B0022C9
:102DA0001A600F4B00221A6000BF0C37BD465DF859
:102DB000047B704728F60020E8F6002000F700208A
:102DC00004F7002008F700200CF7002010F700207F
:102DD00014F7002018F700201CF7002020F700202F
:102DE00028F7002080B483B000AF0346FB800B4679
:102DF0007B7113463B71FB881A047B791B021A43D3
:102E00003B79134318460C37BD465DF8047B704789
:102E100080B483B000AF0346FB80FB880133FB80A6
:102E2000FB884FF6FF72934201D10123FB80FB88A0
:102E300018460C37BD465DF8047B704780B485B0FA
:102E400000AF78600023BB600023FB607B68B3F1B8
:102E5000FF3F34D07B68002B31D07B681B0ADBB28C
:102E6000BB60BB68002B01D0002329E07B68DAB28D
:102E70001649BB68542000FB03F30B440C331B685A
:102E80009A4201D300231BE07B68DBB21A010F4991
:102E9000BB68542000FB03F30B4410331B6813443E
:102EA000FB60FB68DB687A689A4206D1FB68DB78D6
:102EB00083F00103DBB2002B01D0002300E0FB68AC
:102EC00018461437BD465DF8047B704708FB0020A8
:102ED00080B586B000AF78607B685B6C7B617B6897
:102EE0005B6C04333B6117F0E7F90346FB737B69C6
:102EF0001B78002B0BD07B695B685BB2184617F020
:102F0000EFF903461A467B6883F84E203FE03B69A1
:102F10001B68B3F1FF3F0AD03B691B685BB21846E0
:102F200017F0DEF903461A467B6883F848203B69B0
:102F30005B68B3F1FF3F0AD03B695B685BB2184640
:102F400017F0CEF903461A467B6883F849203B699F
:102F50009B68B3F1FF3F0AD03B699B685BB21846A0
:102F600017F0BEF903461A467B6883F84A203B698E
:102F7000DB68B3F1FF3F0AD03B69DB685BB2184600
:102F800017F0AEF903461A467B6883F84B20FB7BAB
:102F9000184617F098F900BF1837BD4680BD80B5B8
:102FA00086B000AF78607B685B6C7B617B685B6C34
:102FB00004333B6117F080F90346FB737B691B7890
:102FC000002B0AD07B695B685AB27B6893F84E305D
:102FD0001946104617F0A6F93BE03B691B68B3F1B0
:102FE000FF3F09D03B691B685AB27B6893F84830B1
:102FF0001946104617F096F93B695B68B3F1FF3F3D
:1030000009D03B695B685AB27B6893F8493019462E
:10301000104617F087F93B699B68B3F1FF3F09D071
:103020003B699B685AB27B6893F84A301946104650
:1030300017F078F93B69DB68B3F1FF3F09D03B69D2
:10304000DB685AB27B6893F84B301946104617F08C
:1030500069F9FB7B184617F036F900BF1837BD46F3
:1030600080BD80B582B000AF78607B6893F828306F
:10307000002B0BD17B6830334FF0FF3118460FF037
:1030800050FF0346002B01D1002303E07868FFF7CF
:103090001FFF012318460837BD4680BD80B582B0AA
:1030A00000AF78607868FFF77AFF7B6893F8283084
:1030B000002B04D17B68303318460FF053FF00BF5C
:1030C0000837BD4680BD80B485B000AF78603960F8
:1030D0000023BB600023FB600EE0FB689B007A6866
:1030E00013441B683A689A4203D1FB680133BB6002
:1030F00005E0FB680133FB60FB68022BEDD9BB6880
:1031000018461437BD465DF8047B704780B485B01F
:1031100000AF78600023FB607B68B3F1FF3F01D113
:1031200000230EE07B681B0ADBB2FB60FB68002B10
:1031300001D0002305E0FB68542202FB03F3044A9C
:10314000134418461437BD465DF8047B704700BF32
:1031500008FB002080B584B000AF78600023FB60DE
:103160007868FFF7D3FFF860FB68002B01D10023DC
:103170001EE07B68FB72FA7AFB689B699A4201D376
:10318000002315E0FB68D969FA7A1346DB00134483
:103190009B000B441B6A7A689A4208D1FB68D96984
:1031A000FA7A1346DB0013449B000B4400E0002333
:1031B00018461037BD4680BDB0B586B000AF786008
:1031C0007B681B881A46542303FB02F32F4A1344DF
:1031D0003B613B69DB69FB6000237B614BE07A6903
:1031E0001346DB0013449B001A46FB6813441B790B
:1031F000DBB283F00103DBB2002B39D07A691346CE
:10320000DB0013449B001A46FB68134401221A7129
:103210007A691346DB0013449B001A46FB6813448B
:1032200000225A613B69988A7B681B88D9B27B6906
:10323000DDB27A691346DB0013449B001A46FB6833
:103240009C182A46FFF7CEFD034623623B699B8A02
:103250001846FFF7DDFD03461A463B699A827A69F4
:103260001346DB0013449B001A46FB68134408E036
:103270007B6901337B613B699B697A699A42AED372
:10328000002318461837BD46B0BD00BF08FB00201C
:1032900080B487B000AFF860B9601346FB710023BB
:1032A000FB74FB79012B03D1FB6820337B6102E0C7
:1032B000FB6824337B617B691B68002B13D17B691E
:1032C000BA681A600123FB7411E07B691B685B69B3
:1032D000002B04D17B691B68BA685A6107E07B69DF
:1032E0001B6814337B617B691B68002BEDD1FB7C71
:1032F00018461C37BD465DF8047B704780B485B026
:1033000000AF78600B46FB700023FB60FB78012B5D
:1033100003D17B681B6AFB6002E07B685B6AFB6031
:10332000FB6818461437BD465DF8047B704780B4CF
:1033300085B000AF78600B46FB70FB78012B03D1A2
:103340007B682033FB6002E07B682433FB60FB6812
:103350001B68002B10D0FB681B68BB60FB681B68F8
:103360005A69FB681A60BB6800221A76BB680022A3
:103370005A61BB6800221A7100BF1437BD465DF860
:10338000047B704780B487B000AFF860B960134623
:10339000FB7100233B61FB79012B03D1FB682033D8
:1033A0007B6128E0FB6824337B6124E07B691B6838
:1033B0001A68BB68DB689A4219D17B691B681B7E5F
:1033C000012B14D17B691B683B617B691B685A69BF
:1033D0007B691A603B6900225A613B6900221A76B8
:1033E0003B6901225A763B6900221A7103E07B692E
:1033F0001B6814337B617B691B68002BD6D100BF2F
:103400001C37BD465DF8047B704780B584B000AFC3
:10341000786039600023FB6000217868FFF76EFF59
:10342000F860FB68002B12D0FB681A683B68DB6809
:103430009A420DD1FB681B7E022B09D17B685B6829
:103440001B69984700217868FFF771FF00E000BF13
:103450001037BD4680BD80B584B000AF78600B46A4
:10346000FB700023FB600023BB607868FFF7E6FC7D
:10347000B860BB68002B01D1002324E0BB681B8827
:103480001A46542303FB02F3114A1344FB60F86805
:10349000FFF7E7FD034683F00103DBB2002B01D009
:1034A000002310E0FB78002B03D1B968F868FFF720
:1034B000ACFFFB781A46B968F868FFF763FFF86855
:1034C000FFF7ECFD012318461037BD4680BD00BF55
:1034D00008FB002080B584B000AF786001217868D7
:1034E000FFF70CFFF860FB68002B10D0FB681B7E19
:1034F000012B0ED1FB6802221A767B685B689B6900
:10350000FA689068FA68D2681146984702E000BFEE
:1035100000E000BF1037BD4680BD80B584B000AF6D
:10352000786000217868FFF7E9FEF860FB68002BFF
:1035300010D0FB681B7E012B0ED1FB6802221A768D
:103540007B685B685B68FA689068FA68D2681146C5
:10355000984702E000BF00E000BF1037BD4680BDC5
:1035600080B588B000AFF8607B600B46FB721346F5
:10357000BB720023FB610023BB61FB681B7883F0F7
:103580000103DBB2002B77D1FB6893F90230022BE9
:1035900072D1FB7A1946F868FFF7B0FEB861BB69D3
:1035A000002B6BD0BB691B68DBB21A01BB691B68BF
:1035B0001B0ADBB23349542000FB03F30B441033E6
:1035C0001B681344FB61FB69DA68BB691B689A429C
:1035D00042D1BB69BA7A5A76BB695B7E5BB2B3F102
:1035E000FF3F10D1FB681B6C79681846FFF76BFD35
:1035F0000246BB69DA61FB685B68DB689847024694
:10360000BB691A6103E0BB69DA68BB691A61BB690F
:103610001B6A7B61FB7A1946F868FFF788FEFB6935
:103620005B68002B1DD0FB6893F828300133DAB2B9
:10363000FB6883F82820FB695B68FA69926897F950
:103640000A0079699847FB6893F82830013BDAB2A1
:10365000FB6883F8282004E0FB7A1946F868FFF736
:1036600066FEFB7A002B03D1F868FFF756FF06E0F1
:10367000F868FFF72FFF02E000BF00E000BF20372F
:10368000BD4680BD08FB002080B584B000AF7860E7
:103690007B68FB600023BB60BB6801220121F868E6
:1036A000FFF75EFF00BF1037BD4680BD80B584B018
:1036B00000AF78607B68FB60FB685B685B6A98477B
:1036C000B860BB68002B06D1BB6801220021F868F6
:1036D000FFF746FF07E0BB684FF0FF320021F868B4
:1036E000FFF73EFF00BF1037BD4680BD80B584B0F8
:1036F00000AF03463960FB800023FB603B68BB6082
:10370000FB88002B02D04FF0FF337AE0FB883F4A62
:10371000542101FB03F313441B78002B02D04FF01C
:10372000FF336EE0FB88542202FB03F3374A134455
:10373000FB60FB68303318460FF0C7FB0346012BD4
:1037400002D04FF0FF335CE0FB682C3318460FF0DB
:10375000BCFB0346012B02D04FF0FF3351E0FB6866
:1037600001221A70BB681A68FB685A60FB68002265
:103770009A60BB685A68FB68DA60BB689A68FB6845
:103780001A61FB6801229A82BB68DA69FB689A6158
:10379000BB681B6A1A46FB68DA61FB6800221A6282
:1037A000FB6800225A62FB68002283F82820BB686D
:1037B0005A6AFB685A64BB68DA68FB685A63BB687C
:1037C0001A69FB689A63BB685A69FB68DA63BB686D
:1037D0009A69FB681A64BB689A6AFB681A65FB6899
:1037E0005B685B69FA68114609489847FB685B6843
:1037F0001B68FA68114607489847FB6802229A70CE
:10380000FB8818461037BD4680BD00BF08FB00206E
:1038100089360001AD36000180B483B000AF786016
:103820007B68B3F1FF3F02D07B68002B01D00023FF
:1038300008E0074A7B68542101FB03F31344023379
:1038400093F9003018460C37BD465DF8047B70478D
:1038500008FB002080B586B000AF03460A46FB8017
:1038600013467B7100233B610023FB60FB88002B28
:1038700002D04FF0FF339DE0FB88542202FB03F39C
:103880004E4A13443B613B6993F90230022B06D147
:103890003B691B7883F00103DBB2002B02D04FF0B1
:1038A000FF3387E03B692C334FF0FF3118460FF0B0
:1038B00038FB0346002B02D14FF0FF337AE03B691F
:1038C0005B78002B07D03B692C3318460FF04AFB7E
:1038D0004FF0FF336EE03B699B68002B0CD07B7987
:1038E00003F00803002B07D03B692C3318460FF078
:1038F00039FB4FF0FF335DE000237B614EE07B69D5
:103900001A013B691B691344FB60FB68DB7883F099
:103910000103DBB2002B3ED0FB680122DA707B7919
:1039200003F00803002B02D03B6901225A703B6967
:103930009B685A1C3B699A603B699B8AFA88D1B2A2
:103940007A69D2B21846FFF74DFA0246FB68DA6090
:103950003B699B8A1846FFF75BFA03461A463B69A8
:103960009A823B692C3318460FF0FCFA7B7943F0BE
:103970000403DBB2BB60BB68DAB2FB689A70FB6819
:1039800000225A60FB6800229A60FB68FA881A805D
:10399000FB68DB680EE07B6901337B613B69DB68B8
:1039A0007A699A42ABD13B692C3318460FF0DAFAA8
:1039B0004FF0FF3318461837BD4680BD08FB002086
:1039C00080B584B000AF78600023FB600023BB604B
:1039D0007868FFF733FAB860BB68002B3DD0BB684E
:1039E0001B881A46542303FB02F3204A1344FB604E
:1039F000FB682C334FF0FF3118460FF092FA034664
:103A0000002B2CD0F868FFF72CFB034683F0010352
:103A1000DBB2002B25D10122B968F868FFF7B2FCB0
:103A20000022B968F868FFF7ADFCF868FFF736FBCD
:103A3000FB689B685A1EFB689A60FB6800225A70FC
:103A4000BB684FF0FF32DA60BB680022DA70FB68B7
:103A50002C3318460FF086FA04E000BF02E000BFE6
:103A600000E000BF1037BD4680BD00BF08FB00204E
:103A700080B586B000AF786000233B610023FB6017
:103A800000237B617868FFF741FB38613B69002BBD
:103A900001D17B691BE03869FFF7E3FA034683F045
:103AA0000103DBB2002B01D07B6910E07868FFF7DF
:103AB00051FBF860FB68002B05D0FB68DB697B617C
:103AC000FB680022DA613869FFF7E8FA7B6918467B
:103AD0001837BD4680BD80B58AB000AF78603960C8
:103AE00000233B620023FB61002387F827307868BE
:103AF000FFF7A4F9F861FB69002B02D197F8273092
:103B00005CE03B68002B02D197F8273056E0FB6958
:103B10001B881A46542303FB02F32A4A13443B62D0
:103B20003B6A30334FF0FF3118460FF0FAF9034685
:103B3000002B02D197F8273040E03B6A5A6B3B6874
:103B40009B689B0013441B687B613B6A9A6B3B68D4
:103B50005B689B0013441B683B613B6ADA6B3B6804
:103B6000DB689B0013441B68BB613B681B68FB6000
:103B70007B69B3F1FF3F1AD03B69B3F1FF3F16D029
:103B8000BB69B3F1FF3F12D03B6A5B689B6A07F1E8
:103B90000C02002110469847034687F8273097F813
:103BA0002730002B03D03B689A683B6A1A653B6A52
:103BB000303318460FF0D6F997F8273018462837D3
:103BC000BD4680BD08FB002080B586B000AFF86020
:103BD000B9607A6000237B6100233B61F868FFF7DE
:103BE0002DF938613B69002B1BD03B691B881A46B5
:103BF000542303FB02F30E4A13447B617869FFF7F9
:103C000030FA034683F00103DBB2002B0BD13B6992
:103C1000BA685A603B697A689A607869FFF73EFA39
:103C200002E000BF00E000BF1837BD4680BD00BF06
:103C300008FB002080B588B000AFF860B9607A60FA
:103C40003B600023FB610023BB6100237B613B6879
:103C5000002B5FD03B684FF0FF321A607B68002B6F
:103C60005AD0BB68002B57D0F868FFF7E7F8B86167
:103C7000BB69002B52D0BB691B881A46542303FB37
:103C800002F3294A1344FB61F869FFF7EAF9034696
:103C900083F00103DBB2002B42D1B869FFF78CFA45
:103CA00078617B69002B03D1F869FFF7F7F938E0F9
:103CB0007B69BA689A607B697A68DA607B690022FE
:103CC0001A617B69FA681A607B690022DA617B6994
:103CD00001221A767B6900225A767B691A6A3B6850
:103CE0001A6097F828301A467969F869FFF7D0FA10
:103CF0000346002B0AD097F82830012B03D1F8692E
:103D0000FFF7E8FB02E0F869FFF707FCF869FFF747
:103D1000C5F906E000BF04E000BF02E000BF00E01C
:103D200000BF2037BD4680BD08FB002080B586B0AF
:103D300002AFF860B9607A603B60012300933B6892
:103D40007A68B968F868FFF775FF00BF1037BD469D
:103D500080BD80B586B002AFF860B9607A603B6024
:103D6000002300933B687A68B968F868FFF762FF40
:103D700000BF1037BD4680BD80B586B000AF78600B
:103D800000233B610023FB604FF0FF337B617868C9
:103D9000FFF7BCF938613B69002B01D17B6932E048
:103DA0003869FFF75EF9034683F00103DBB2002BAD
:103DB00001D07B6927E07868FFF7CCF9F860FB68F1
:103DC000002B1CD0FB681B7E022B15D13B691B6AA4
:103DD000FA689A4205D13B695B681B6A984778612B
:103DE0000DE03B695B6AFA689A4208D13B695B68FF
:103DF000DB689847786102E0FB681B697B61386982
:103E0000FFF74CF97B6918461837BD4680BD80B571
:103E100086B000AF786000233B61FE23FB757868B5
:103E2000FFF774F938613B69002B02D197F917301D
:103E300030E03869FFF715F9034683F00103DBB280
:103E4000002B02D097F9173024E07B68FB73FA7BD4
:103E50003B699B699A4218D23B69D969FA7B134640
:103E6000DB0013449B000B441B6A7A689A420AD118
:103E70003B69D969FA7B1346DB0013449B000B4472
:103E80005B7EFB7501E00223FB753869FFF706F9DD
:103E900097F9173018461837BD4680BD80B582B0F7
:103EA00000AF786001217868FFF7D5FA034618461D
:103EB0000837BD4680BD80B582B000AF7860002174
:103EC0007868FFF7C8FA034618460837BD4680BD34
:103ED00080B584B000AF78600023FB600023BB6036
:103EE0007868FEF7ABFFB860BB68002B01D10023F8
:103EF0001EE0BB681B881A46542303FB02F30E4ADC
:103F00001344FB60F868FFF7ACF8034683F0010345
:103F1000DBB2002B01D000230AE0B968F868FFF794
:103F200074FAF868FFF7F9FAF868FFF7B7F80123B1
:103F300018461037BD4680BD08FB002080B584B010
:103F400000AF786039600123FB607B68BB60BB68B1
:103F5000002B5DD0BB68DB6B002B59D0BB681A6CA3
:103F6000BB68DB6B0021A3FB0223002B00D00121E7
:103F70000B46002B4CD10AF0B8FFBB681A68BB682F
:103F8000DB6BB968096C01FB03F31A44BB689A60E8
:103F9000BB6800229A63BB681A68BB685A60BB683A
:103FA0001A68BB68DB6B013BB968096C01FB03F362
:103FB0001A44BB68DA60BB68FF2283F84420BB6800
:103FC000FF2283F845203B68002B14D1BB681B6996
:103FD000002B1AD0BB6810331846FDF7B9FC034616
:103FE000002B12D00E4B4FF080521A60BFF34F8F50
:103FF000BFF36F8F09E0BB681033184615F08EFFD2
:10400000BB682433184615F089FF0AF087FF01E0EA
:104010000023FB60FB6818461037BD4680BD00BF1B
:1040200004ED00E080B58AB002AFF860B9601346D5
:10403000FB710023FB61FB68002B2DD00021BA68C7
:10404000FB68A3FB0223002B00D001210B46002BB1
:1040500022D1FB68BA6802FB03F313F14D0F1BD8A2
:10406000FB68BA6802FB03F3BB61BB694C331846BB
:1040700009F06AFFF861FB69002B0DD0FB697B61D9
:104080007B694C337B61FA79FB69009313467A694B
:10409000B968F86800F005F8FB6918462037BD4696
:1040A00080BD80B584B000AFF860B9607A60FB7005
:1040B000BB68002B03D1BB69BA691A6002E0BB6917
:1040C0007A681A60BB69FA68DA63BB69BA681A640D
:1040D0000121B869FFF732FFBB6900229A6400BF73
:1040E0001037BD4680BD80B582B000AF78607B6878
:1040F000002B0ED07B6800229A607B6800221A6039
:104100007B680022DA60002300220021786800F03A
:104110003BF800BF0837BD4680BD80B586B000AF14
:104120000346FB7101237B6100233B61FB791A4647
:1041300039697869FFF776FFF860F868FFF7D3FF11
:10414000FB6818461837BD4680BD80B584B000AF07
:10415000786039600023FB607B68002B0FD03A68E1
:104160007B689A420BD8022200217868FFF75AFF39
:10417000F860FB68002B02D0FB683A689A63FB6822
:1041800018461037BD4680BD80B58AB000AFF860D4
:10419000B9607A603B6000237B62FB683B620AF097
:1041A000A4FE3B6A9A6B3B6ADB6B9A4202D33B6884
:1041B000022B45D13B6A9B6BFB613A68B968386A50
:1041C00000F0A2FCB8613B6A9B6C002B14D03B68EA
:1041D000022B02D1FB69002B2ED1386A00F08CFE35
:1041E0000346002B28D04A4B4FF080521A60BFF391
:1041F0004F8FBFF36F8F1FE03B6A5B6A002B10D0BD
:104200003B6A24331846FDF7A3FB0346002B13D06B
:104210003F4B4FF080521A60BFF34F8FBFF36F8F49
:104220000AE0BB69002B07D0394B4FF080521A606F
:10423000BFF34F8FBFF36F8F0AF070FE012363E06F
:104240007B68002B03D10AF069FE00235CE07B6AE7
:10425000002B06D107F110031846FDF7FFFC0123E0
:104260007B620AF05BFEFCF721FF0AF03EFE3B6A30
:1042700093F844305BB2B3F1FF3F03D13B6A0022B5
:1042800083F844203B6A93F845305BB2B3F1FF3FBB
:1042900003D13B6A002283F845200AF03FFE3A1D15
:1042A00007F1100311461846FDF7EEFC0346002BFC
:1042B00024D1386A00F043FD0346002B18D03B6A36
:1042C00010337A6811461846FDF7BCFA386A00F0D8
:1042D000ABFCFCF735FF0346002B7FF460AF0C4BC3
:1042E0004FF080521A60BFF34F8FBFF36F8F56E7C6
:1042F000386A00F099FCFCF723FF50E7386A00F0B9
:1043000093FCFCF71DFF002318462837BD4680BDEF
:1043100004ED00E080B58EB000AFF860B9607A605F
:104320003B60FB683B63EFF311824FF0200383F3A4
:104330001188BFF36F8FBFF34F8FFA61BB61FB69C9
:10434000FB623B6B9A6B3B6BDB6B9A4202D33B6825
:10435000022B4ED13B6B93F8453087F82B303B6BEB
:104360009B6B7B623A68B968386B00F0CDFB97F9BC
:104370002B30B3F1FF3F29D13B6B9B6C002B12D04C
:104380003B68022B02D17B6A002B2FD1386B00F0E7
:10439000B3FD0346002B29D07B68002B26D07B6819
:1043A00001221A6022E03B6B5B6A002B1ED03B6B44
:1043B00024331846FDF7CCFA0346002B16D07B6851
:1043C000002B13D07B6801221A600FE0FCF7D2FFAC
:1043D000386297F92B303A6A9A4207D997F82B300E
:1043E0000133DBB25AB23B6B83F8452001237B6378
:1043F00001E000237B63FB6A7B617B6983F31188A7
:104400007B6B18463837BD4680BD80B58CB000AF99
:10441000786039607B68BB62EFF311824FF0200354
:1044200083F31188BFF36F8FBFF34F8F7A613B61C6
:104430007B697B62BB6A9B6B3B62BB6ADB6B3A6AE4
:104440009A4242D2BB6A93F84530FB773B6A5A1CCA
:10445000BB6A9A6397F91F30B3F1FF3F23D1BB6A60
:104460009B6C002B0CD0B86A00F046FD0346002B75
:1044700028D03B68002B25D03B6801221A6021E040
:10448000BB6A5B6A002B1DD0BB6A24331846FDF75C
:104490005FFA0346002B15D03B68002B12D03B6817
:1044A00001221A600EE0FCF765FFB86197F91F3032
:1044B000BA699A4206D9FB7F0133DBB25AB2BB6AB2
:1044C00083F845200123FB6201E00023FB627B6A45
:1044D000FB60FB6883F31188FB6A18463037BD46E2
:1044E00080BD80B58AB000AFF860B9607A60002303
:1044F0007B62FB683B620AF0F8FC3B6A9B6BFB61EA
:10450000FB69002B1FD0B968386A00F067FBFB69B4
:104510005A1E3B6A9A633B6A1B69002B0FD03B6AA9
:1045200010331846FDF714FA0346002B07D03D4B15
:104530004FF080521A60BFF34F8FBFF36F8F0AF0B6
:10454000EDFC012369E07B68002B03D10AF0E6FC57
:10455000002362E07B6A002B06D107F114031846A2
:10456000FDF77CFB01237B620AF0D8FCFCF79EFD83
:104570000AF0BBFC3B6A93F844305BB2B3F1FF3FF7
:1045800003D13B6A002283F844203B6A93F845300C
:104590005BB2B3F1FF3F03D13B6A002283F84520B1
:1045A0000AF0BCFC3A1D07F1140311461846FDF74A
:1045B0006BFB0346002B23D1386A00F094FB0346C3
:1045C000002B17D03B6A24337A6811461846FDF752
:1045D00039F9386A00F028FBFCF7B2FD0346002BDE
:1045E00089D1104B4FF080521A60BFF34F8FBFF349
:1045F0006F8F80E7386A00F017FBFCF7A1FD7AE7C0
:10460000386A00F011FBFCF79BFD386A00F06BFB89
:104610000346002B3FF46FAF002318462837BD46F2
:1046200080BD00BF04ED00E080B58AB000AF7860C7
:10463000396000237B627B68FB6100233B620AF0E8
:1046400054FCFB699B6BBB61BB69002B24D0BB692D
:104650005A1EFB699A63FB691B68002B04D1FDF7A6
:104660008FFE0246FB699A60FB691B69002B0FD025
:10467000FB6910331846FDF76BF90346002B07D092
:104680004C4B4FF080521A60BFF34F8FBFF36F8FC8
:104690000AF044FC012389E03B68002B03D10AF0B7
:1046A0003DFC002382E07B6A002B06D107F10C035E
:1046B0001846FDF7D3FA01237B620AF02FFCFCF7C2
:1046C000F5FC0AF012FCFB6993F844305BB2B3F1DD
:1046D000FF3F03D1FB69002283F84420FB6993F874
:1046E00045305BB2B3F1FF3F03D1FB69002283F891
:1046F00045200AF013FC3A4607F10C031146184610
:10470000FDF7C2FA0346002B32D1F86900F0EBFA4C
:104710000346002B26D0FB691B68002B09D10AF049
:10472000E4FBFB699B681846FDF756FC38620AF00B
:10473000F5FBFB6924333A6811461846FDF782F809
:10474000F86900F071FAFCF7FBFC0346002B7FF4DC
:1047500076AF184B4FF080521A60BFF34F8FBFF304
:104760006F8F6CE7F86900F05FFAFCF7E9FC66E729
:10477000F86900F059FAFCF7E3FCF86900F0B3FAC5
:104780000346002B3FF45BAF3B6A002B0DD00AF0D1
:10479000ACFBF86900F0A0F97861FB699B68796966
:1047A0001846FDF73DFD0AF0B9FB002318462837EF
:1047B000BD4680BD04ED00E080B58AB000AFF86072
:1047C000B9607A6000237B62FB683B620AF08DFB74
:1047D0003B6A9B6BFB61FB69002B21D03B6ADB686A
:1047E000BB61B968386A00F0F9F93B6ABA69DA6006
:1047F0003B6A5B6A002B0FD03B6A24331846FDF7F7
:10480000A7F80346002B07D03C4B4FF080521A60AC
:10481000BFF34F8FBFF36F8F0AF080FB012369E076
:104820007B68002B03D10AF079FB002362E07B6AEE
:10483000002B06D107F110031846FDF70FFA0123EC
:104840007B620AF06BFBFCF731FC0AF04EFB3B6A23
:1048500093F844305BB2B3F1FF3F03D13B6A0022CF
:1048600083F844203B6A93F845305BB2B3F1FF3FD5
:1048700003D13B6A002283F845200AF04FFB3A1D22
:1048800007F1100311461846FDF7FEF90346002B09
:1048900023D1386A00F027FA0346002B17D03B6A71
:1048A00024337A6811461846FCF7CCFF386A00F0CA
:1048B000BBF9FCF745FC0346002B87D10F4B4FF0AB
:1048C00080521A60BFF34F8FBFF36F8F7EE7386A55
:1048D00000F0AAF9FCF734FC78E7386A00F0A4F994
:1048E000FCF72EFC386A00F0FEF90346002B3FF47B
:1048F0006DAF002318462837BD4680BD04ED00E0AB
:1049000080B58EB000AFF860B9607A60FB683B6339
:10491000EFF311824FF0200383F31188BFF36F8F01
:10492000BFF34F8FFA61BB61FB69FB623B6B9B6B13
:10493000BB62BB6A002B37D03B6B93F8443087F8DF
:104940002730B968386B00F049F9BB6A5A1E3B6BD7
:104950009A6397F92730B3F1FF3F12D13B6B1B6984
:10496000002B1ED03B6B10331846FCF7F1FF0346BB
:10497000002B16D07B68002B13D07B6801221A60B5
:104980000FE0FCF7F7FC386297F927303A6A9A4251
:1049900007D997F827300133DBB25AB23B6B83F863
:1049A000442001237B6301E000237B63FB6A7B617E
:1049B0007B6983F311887B6B18463837BD4680BD11
:1049C00080B58AB000AF786039607B683B62EFF3F6
:1049D00011824FF0200383F31188BFF36F8FBFF371
:1049E0004F8F7A613B617B69FB613B6A9B6B002B5C
:1049F0000CD03B6ADB68BB613968386A00F0EEF8BE
:104A00003B6ABA69DA6001237B6201E000237B62C2
:104A1000FB69FB60FB6883F311887B6A18462837C3
:104A2000BD4680BD80B584B000AF78600AF05DFA05
:104A30007B689B6BFB600AF071FAFB6818461037C5
:104A4000BD4680BD80B584B000AF78607B68FB60F8
:104A50000AF04BFAFB68DA6BFB689B6BD31ABB60FE
:104A60000AF05CFABB6818461037BD4680BD80B4BA
:104A700085B000AF78607B68FB60FB689B6BBB60B8
:104A8000BB6818461437BD465DF8047B704780B597
:104A900084B000AF78607B68FB60F86809F006FBC3
:104AA00000BF1037BD4680BD80B483B000AF7860D2
:104AB0007B681B6C18460C37BD465DF8047B70475D
:104AC00080B483B000AF78607B68DB6B18460C372E
:104AD000BD465DF8047B704780B485B000AF786058
:104AE0007B685B6A002B06D07B681B6B1B68C3F17D
:104AF0000503FB6001E00023FB60FB6818461437E8
:104B0000BD465DF8047B704780B586B000AFF860A5
:104B1000B9607A6000237B61FB689B6B3B61FB683B
:104B20001B6C002B0DD1FB681B68002B4DD1FB6863
:104B30009B681846FDF7F0FA7861FB6800229A60DE
:104B400043E07B68002B19D1FB685868FB681B6C3D
:104B50001A46B9682AF094FAFB685A68FB681B6C1D
:104B60001A44FB685A60FB685A68FB689B689A4263
:104B70002BD3FB681A68FB685A6026E0FB68D8688C
:104B8000FB681B6C1A46B9682AF07AFAFB68DA6887
:104B9000FB681B6C5B421A44FB68DA60FB68DA68EE
:104BA000FB681B689A4207D2FB689A68FB681B6C1B
:104BB0005B421A44FB68DA607B68022B05D13B69D3
:104BC000002B02D03B69013B3B613B695A1CFB68EF
:104BD0009A637B6918461837BD4680BD80B582B0A0
:104BE00000AF786039607B681B6C002B18D07B6845
:104BF000DA687B681B6C1A447B68DA607B68DA6869
:104C00007B689B689A4203D37B681A687B68DA608A
:104C10007B68D9687B681B6C1A4638682AF030FAC2
:104C200000BF0837BD4680BD80B584B000AF786056
:104C30000AF05BF97B6893F84530FB731EE07B68F4
:104C40009B6C002B08D0786800F056F90346002BC7
:104C500010D0FDF773F80DE07B685B6A002B12D073
:104C60007B6824331846FCF773FE0346002B01D003
:104C7000FDF764F8FB7B013BDBB2FB7397F90F3068
:104C8000002BDCDC00E000BF7B68FF2283F84520BE
:104C90000AF044F90AF029F97B6893F84430BB73B1
:104CA00011E07B681B69002B12D07B68103318461B
:104CB000FCF74EFE0346002B01D0FDF73FF8BB7B0F
:104CC000013BDBB2BB7397F90E30002BE9DC00E04F
:104CD00000BF7B68FF2283F844200AF01FF900BF61
:104CE0001037BD4680BD80B584B000AF78600AF053
:104CF000FCF87B689B6B002B02D10123FB6001E079
:104D00000023FB600AF00AF9FB6818461037BD461D
:104D100080BD80B485B000AF78607B68BB60BB6845
:104D20009B6B002B02D10123FB6001E00023FB60A1
:104D3000FB6818461437BD465DF8047B704780B5A4
:104D400084B000AF78600AF0D0F87B689A6B7B681B
:104D5000DB6B9A4202D10123FB6001E00023FB6080
:104D60000AF0DCF8FB6818461037BD4680BD80B4F9
:104D700085B000AF78607B68BB60BB689A6BBB682E
:104D8000DB6B9A4202D10123FB6001E00023FB6050
:104D9000FB6818461437BD465DF8047B704780B544
:104DA00086B000AFF860B9607A60FB687B610AF09A
:104DB0009CF87B6993F844305BB2B3F1FF3F03D1B9
:104DC0007B69002283F844207B6993F845305BB20D
:104DD000B3F1FF3F03D17B69002283F845200AF03D
:104DE0009DF87B699B6B002B06D17B6924337A6825
:104DF000B9681846FCF774FD7869FFF715FF00BF26
:104E00001837BD4680BD80B584B000AF7860002201
:104E100004217868FFF706F9F860FB681846103738
:104E2000BD4680BD80B584B000AF786039600AF0BF
:104E30005CF87B689B6C002B02D00023FB600BE0CE
:104E40007B689B6B002B02D00023FB6004E07B6837
:104E50003A689A640123FB600AF060F8FB68184620
:104E60001037BD4680BD80B584B000AF7860396032
:104E70007B68BB60BB689B6C3A689A4202D0002397
:104E8000FB600FE0BB689B6B002B02D00023FB6034
:104E900008E00AF02AF8BB6800229A640AF03EF89B
:104EA0000123FB60FB6818461037BD4680BD80B506
:104EB00084B000AF786039600023FB6007F10C0319
:104EC0003A6819467868FFF70CFBFB6818461037FC
:104ED000BD4680BD80B584B000AF78600023FB6024
:104EE00007F10C03002219467868FFF709FDFB68FB
:104EF00018461037BD4680BD80B586B000AF7860DB
:104F00007B689B6C3B6100237B613B699A6B3B69CF
:104F1000DB6B9A422DD23B6993F84530FB733B1D06
:104F2000002219463869FFF7EFFD786197F90F30D5
:104F3000B3F1FF3F0ED13B695B6A002B19D03B698F
:104F400024331846FCF704FD0346002B11D001233F
:104F50007B610EE0FCF70EFAB86097F90F30BA6883
:104F60009A4206D9FB7B0133DBB25AB23B6983F824
:104F700045207B6918461837BD4680BD08B5044BEF
:104F8000186818B1804780F00100C0B208BD00BFAA
:104F900014F2002004292CD8DFE801F00308161DC4
:104FA0002400184A9388184490807047154A9388C3
:104FB000184480B2C11C4FF6FC730B40984201D9D3
:104FC0000430F1E7938070470E4A93880F331844FA
:104FD00020F00F00E8E70B4A93881F33184420F0B5
:104FE0001F00E1E7074A93883F33184420F03F0051
:104FF000DAE74FF0200383F31188BFF36F8FBFF31D
:105000004F8FFEE714F2002070B5104A9479002308
:10501000D9B28C4201D800200BE05D1C9B00D11856
:10502000B1F8076086420ED1B1F8092012B10848E4
:10503000184470BD4FF0200383F31188BFF36F8FC6
:10504000BFF34F8FFEE72B46E2E700BF14F20020CC
:105050001BF2002010B50446FFF7D6FF40B14FF019
:10506000200383F31188BFF36F8FBFF34F8FFEE7E9
:105070000B4B9879020608D54FF0200383F3118873
:10508000BFF36F8FBFF34F8FFEE7421C9A7103EBA4
:1050900080020733A2F8074003EB800010BD00BF79
:1050A00014F2002010B50446FFF7AEFF40B94FF0F0
:1050B000200383F31188BFF36F8FBFF34F8FFEE799
:1050C0002046FFF7A1FF054A9379013BDBB29371BC
:1050D00002EB8303D3F80730036010BD14F2002005
:1050E00008B5FFF791FF00B1408808BD09B9104627
:1050F000704780B1037883EA122383EA131343EAEB
:10510000022282EA033282EA431292B200B10130F3
:10511000013989B2EAE7FF23EDE72DE9F04F85B0C9
:1051200081460E9E8A46904606B11E4443449CB278
:1051300047465546A74203D1012005B0BDE8F08F90
:1051400095B36A461023294648460DF061FCBDF828
:105150000420944208D9BDF8063013449BB29F4204
:1051600002D29C4203D91F46BDF80A50E8E7974295
:10517000A4EB020128BFE31B89B234BF0B469BB2EC
:10518000A4EB030432BFBDF80AB04746D346A4B22D
:1051900046B110352944F61AC91A324689B2484632
:1051A0000DF036FC5D46C5E72846C6E72DE9F74F0A
:1051B000D48896888046894644F307254FF6FF77C2
:1051C000002D03DA384603B0BDE8F08F1CD0A4F5FB
:1051D00080741FFA84FA4FF48074DFF834B0CDF88D
:1051E00000B02346324649464046FFF796FF38B1A5
:1051F0003A4621465846FFF779FF2644B6B207469D
:10520000013D6DB25446DBE7002CDBD0A246E4E75B
:105210001BF4002010B5084C94F807030DF09AFC1D
:105220004FF48042002194F807030DF0BBFC10B14D
:105230004FF48073A38010BD14F200202DE9F041DB
:10524000094C05460E46174613460A46014694F891
:1052500007030DF013FC3B463246294694F807033A
:10526000BDE8F0410DF0ECBC14F200207FB545F232
:105270004143ADF806300D4BCDE902300C4BC04335
:10528000B3F8083304904FF6FF7210210DF10600B9
:10529000ADF81430FFF72AFF1222ADF8040001A97F
:1052A0000020FFF7CBFF07B05DF804FB534E7632CA
:1052B00014F200202DE9F041234CB4F80A33B4F87D
:1052C0000C530B449BB2FF2B06460F46A4F80A333F
:1052D00004F207280BD80A46284441463D4429F0E9
:1052E000CFFE0127A4F80C533846BDE8F081C5F580
:1052F00080724146284429F0C3FE4FF48072314643
:10530000A088FFF79BFF07460028EDD000214FF44F
:105310008070FFF73FFEB4F80A53B4F80C13A5F5FC
:1053200080750023ADB2A4F80C33A4F80A53002D05
:10533000DAD0C1F580712A4618FA81F1304629F099
:105340009FFEA4F80C53CFE714F200202DE9F04F94
:10535000714C94F807738FB00021122309AA3846C4
:10536000A4F80E13A4F81013A4F80C13A4F80A134D
:105370000DF04EFB0B9B039394F807330133DBB224
:10538000012B88BF002384F8073394F80733BB420E
:1053900008D14FF0200383F31188BFF36F8FBFF361
:1053A0004F8FFEE7FFF736FF0028E5D0002302937A
:1053B000DFF86C8182E0029BDFF868A104EB830BCD
:1053C00005AABBF809901023494638460DF020FB8A
:1053D0000026BDF81C50ADF81A5005AA49463846BB
:1053E000ADF81860CDF81E60FFF7E0FE4FF6FF72D3
:1053F000ADF814000E2105A8FFF778FEF022ADF8F5
:105400002200FF2150462AF077FA05AB03CB103576
:10541000C8F80000C8F80410B4F80C2303CBA38824
:10542000C8F80800ADB21344B5F5807FC8F80C1079
:10543000ABF809301AD8CDF800A0BDF81C303246C0
:1054400049463846FFF769FE58B1A388B4F80C23E3
:105450001344ABF8093029460AF1FB00FFF72AFF95
:1054600040BB002420460FB0BDE8F08F102300BFE2
:10547000B5F5807FAA4628BF4FF4807AAAEB030BCC
:105480001FFA8BFB4344009332465B46494638463D
:10549000FFF743FE0028E4D051462048FFF70AFFFB
:1054A0000028DED0A5EB0A055E44ADB2B6B20023FB
:1054B000002DDDD1029B0133DBB20293A379029A66
:1054C00093423FF678AFB4F80A23F2B9B4F80A036E
:1054D0000021FFF75FFDA388A4F80833039B581E43
:1054E000FFF7C4FE04460028BBD003210020FFF7CD
:1054F00051FD1222FF2109A82AF0FEF9122309AA60
:10550000002138460DF0BAFAACE70449A088FFF74D
:1055100095FE0028DAD1A4E714F2002026F5002039
:105520001BF400202BF4002008B50A4B9B88C3F520
:1055300080439BB283420BD2FFF708FF40B94FF084
:10554000200383F31188BFF36F8FBFF34F8FFEE704
:1055500008BD00BF14F200202DE9F84F364D044677
:1055600005F2072988464FF48072FF2148462AF049
:10557000C3F9E1884FF6FF724046FFF7B7FD4FF6DB
:10558000FF7220800E212046FFF7B0FD2368E081E6
:10559000C5F807326368C9F80430A368C9F8083051
:1055A000E368C9F80C30E28802F11006B6B2B8F12F
:1055B000000F07D0B6F5807F16D8414605F21720B8
:1055C00029F05EFDE2881D49A888F02A28BFF02254
:1055D000103292B2FFF732FE0746E0881030032106
:1055E00080B2FFF7D7FC24E04FF0000B102000BF83
:1055F000B6F5807F344628BF4FF48074A4EB000AD0
:10560000524608EB0B01484429F03AFD22460B496B
:10561000A888FFF713FE074658B1361B2046032122
:10562000DA44B6B2FFF7B6FC1FFA8AFB0020002E60
:10563000DED13846BDE8F88F14F200201BF40020BC
:105640002DE9F041624C00258EB0A5714FF0FF3876
:10565000FF27122304AA002128460DF0D9F9DDE91D
:1056600006637340013326D19DF81230412B22D1BD
:105670009DF81330542B1ED19DF81430532B1AD1A2
:105680009DF815304E2B16D19DF81630762B12D181
:105690009DF81730322B0ED14FF6FF7210210DF10D
:1056A0001200FFF723FDBDF81030834203D14645B9
:1056B0003CBFB0462F46DDB1FF2F2BD1002384F82D
:1056C00007334FF6FF7500BFFFF7A4FD90B994F8BC
:1056D00007330133DBB2012B84F80733F4D94FF0E1
:1056E000200383F31188BFF36F8FBFF34F8FFEE763
:1056F0000125AEE76FF00100A4F80853FFF7B6FDEF
:105700000028E4D00023A371012384F812340EB0E2
:10571000BDE8F0814FF48073A3803846122309AAB4
:10572000002184F807730DF073F94FF6FF77A38813
:10573000B3F5804FE8D2BDF83420BA4201D09A4286
:1057400014D803210020FFF725FC032510236A4607
:10575000A18894F807030DF05BF900231DF80320DE
:10576000FF2A1CD10133102BF8D1CDE70025EDE73E
:1057700029461020FFF70EFCD9E7BDF8026030463D
:10578000FFF742FC10B93046FFF764FCA388438062
:10579000BDF80830B3B93046FFF784FC12E03A4652
:1057A0000E216846FFF7A2FCBDF80E608642DFD1ED
:1057B0006A46A18894F80703FFF7F8FCBDF80030AB
:1057C0008342DAD0BDF806001030294680B2D1E716
:1057D00014F2002008B50DF075FA044B93F812345A
:1057E0001BB9BDE80840FFF72BBF08BD14F200202D
:1057F0002DE9FF478A4616469846054630B12BB13B
:10580000FFF7BCFB044650B1052044E04FF02003F5
:1058100083F31188BFF36F8FBFF34F8FFEE706F15D
:10582000100080B2FFF780FE2846FFF7EDFB074629
:10583000A0B3B0F802901C4D10236A46494695F873
:1058400007030DF0E5F8BDF808300AEB06029A42AE
:1058500026D8B34218BFBDF80C40ADF804A01CBF59
:105860000134A4B241466846ADF80C40ADF806607C
:10587000ADF80A90AC88FFF76FFE98B1BDF80C3018
:105880007C80642B4FF0000005D9BDF80230A5F8EC
:105890000E33A5F8100304B0BDE8F0870320FAE743
:1058A0000420F8E70120F6E714F2002073B50C4657
:1058B00015461E4628B123B1FFF712FC50B903204C
:1058C00017E04FF0200383F31188BFF36F8FBFF30E
:1058D0004F8FFEE76319B3F5803F09D201460748B1
:1058E00000962B46224690F80703FFF716FC10B9E6
:1058F000042002B070BD0020FBE700BF14F20020BE
:105900001FB540B94FF0200383F31188BFF36F8FA9
:10591000BFF34F8FFEE7FFF7E3FB48B101460648B0
:10592000102390F807036A460DF072F8BDF80800DE
:1059300005B05DF804FB00BF14F200202DE9F04F24
:10594000431E14469BB24FF6FD72934289B0074640
:105950000D461DD8B1F5006F1AD8FFF7C1FB00BB8B
:10596000FFF70CFB064650BB05F1100080B2FFF7B5
:10597000DBFD8E4B93F90620002A80F2FA804FF06F
:10598000200383F31188BFF36F8FBFF34F8FFEE7C0
:105990004FF0200383F31188BFF36F8FBFF34F8F56
:1059A000FEE73846FFF7ACFF854210D07F4EA6F8E1
:1059B0000E73A6F81053FFF7E1FAB14608B10520BF
:1059C0000EE0B6F8100370B9B6F80E337BB9002CB0
:1059D00000F0E78023462A4600213846FFF766FF9D
:1059E00009B0BDE8F08F103080B2FFF79DFDB9F827
:1059F0000E03FFF709FB80460028E8D0B0F802A0AC
:105A000099F8070310230DEB030251460DF000F83F
:105A1000B9F81033F3B9BDF81800103080B2FFF7B1
:105A200083FDB9F80E03FFF7EFFA804640B94FF057
:105A3000200383F31188BFF36F8FBFF34F8FFEE70F
:105A4000B0F802A099F8070310230DEB03025146AA
:105A50000CF0DEFFB9F81023B9F804300393BDF859
:105A6000183022B19342ADF8182028BF1346002207
:105A7000BDF81810ADF81420ADF81610CDF81A20A6
:105A80000DF1100CBCE80300DFF824B1C9F80702DF
:105A900003F11006CBF80410BCE80300B6B2B6F56B
:105AA000807FCBF80800CBF80C1031D80BF1100137
