:02000004008179
:100F8800FFFF000000400E8438FC745F7B5800149B
:080F980009006079000000006F
:040FBC000000001021
:020000040100F9
:1000000000000000000000000000000000000000F0
:1000100000000000000000005048434D00000000B8
:1000200000000000000000000000000000000000D0
:10003000000000000000000000000000FEFFFFFFC5
:100040000301000000007400000000010002000134
:100050000002000180B50F00000000000000000059
:100060000000000000000000000000000000000090
:100070000000000000000000000000000000000080
:100080000000000000000000000000000000000070
:100090000000000000000000000000000000000060
:1000A0000000000000000000000000000000000050
:1000B0000000000000000000000000000000000040
:1000C0000000000000000000000000000000000030
:1000D0000000000000000000000000000000000020
:1000E0000000000000000000000000000000000010
:1000F0000000000000000000000000000000000000
:1001000000000000000000000000000000000000EF
:1001100000000000000000000000000000000000DF
:1001200000000000000000000000000000000000CF
:1001300000000000000000000000000000000000BF
:1001400000000000000000000000000000000000AF
:10015000000000000000000000000000000000009F
:10016000000000000000000000000000000000008F
:10017000000000000000000000000000000000007F
:10018000000000000000000000000000000000006F
:10019000000000000000000000000000000000005F
:1001A000000000000000000000000000000000004F
:1001B000000000000000000000000000000000003F
:1001C000000000000000000000000000000000002F
:1001D000000000000000000000000000000000001F
:1001E000000000000000000000000000000000000F
:1001F00000000000000000000000000000000000FF
:10020000F0FF0720B1440E015BCB0E0167D90E0150
:10021000FB100F01DF1D0F019B2B0F0100000000E1
:10022000000000000000000000000000116E0F013F
:100230009F010F0100000000B1A20E011D550F012A
:100240003B380F013B380F013B380F01F1930F0191
:100250003B380F013B380F013B380F013B380F0192
:100260003B380F0165600F013B380F013B380F0130
:100270003B380F013B380F013B380F01C9C10E015C
:10028000EDDF0C013B380F013B380F013B380F010C
:100290003B380F013B380F013B380F013B380F0152
:1002A0003B380F013B380F013B380F0199540F01C8
:1002B0003B380F013B380F013B380F013B380F0132
:1002C0003B380F013B380F013B380F013B380F0122
:1002D0003B380F013B380F013B380F013B380F0112
:1002E0003B380F013B380F013B380F013B380F0102
:1002F000A90A0F0175700F013B380F013B380F0140
:100300003B380F013B380F013B380F013B380F01E1
:100310003B380F013B380F013B380F013B380F01D1
:100320003B380F0135A60E0108202000204A04208A
:10033000000000000000000009202000204A0420E6
:1003400000000000000000000A202000204A0420D5
:1003500000000000000000000B202000204A0420C4
:1003600000000000000000000C202000204A0420B3
:1003700000000000000000000D202000204A0420A2
:1003800000000000000000000E202000204A042091
:1003900000000000000000000F202000204A042080
:1003A000000000000000000000203200CC470420C4
:1003B000000000000000000001203200CC470420B3
:1003C000000000000000000002203200CC470420A2
:1003D000000000000000000003203200CC47042091
:1003E000000000000000000004203200CC47042080
:1003F000000000000000000005203200CC4704206F
:10040000000000000000000006203200CC4704205D
:10041000000000000000000007203200CC4704204C
:100420000000000000000000F8B500BFF8BC08BCE8
:100430009E46704721110F01F8B500BFF8BC08BCFB
:100440009E467047FD100F01DC8E0C00010000007D
:100450008629862986298629862986298629862924
:100460008629862986298629862986298629862914
:100470008629862986298629862986298629862904
:1004800086298629862986298629862986298629F4
:1004900086298629862986298629862986298629E4
:1004A00086298629862986298629862986298629D4
:1004B00086298629862986298629862986298629C4
:1004C00086298629862986298629862986298629B4
:1004D00086298629862986298629862986298629A4
:1004E0008629862986298629862986298629862994
:1004F0008629862986298629862986298629862984
:100500008629862986298629862986298629862973
:100510008629862986298629862986298629862963
:100520008629862986298629862986298629862953
:100530008629862986298629862986298629862943
:100540008629862986298629862986298629862933
:100550008629862986298629862986298629862923
:100560008629862986298629862986298629A629F3
:10057000A731A63166296629862987298B4AEC5A34
:10058000518C96B559C679CEBAD6D7BD3084A6312E
:1005900086298629862986298629862986298629E3
:1005A00086298629862986298629862986298629D3
:1005B00086298629862986298629862986298629C3
:1005C00086298629862986298629862986298629B3
:1007D00066296629462966294D6B308414A5B6B56D
:1007E00059CEFBDE7DEFBEF73CE734A576AD9AD659
:1007F0007DEFBEF7FBDE1CE77DEFFBDEF39CA63151
:100800008629862986298629862986298629862970
:100810008629862986298629862986298629862960
:100820008629862986298629862986298629862950
:100830008629862986298629862986298629862940
:100A200086298629862986298629862965214521C0
:100A30004529A7318E73518C34A5D7BD79CEFBDE05
:100A40007DEFDEF7DFFFDFFFDFFFDFFFDFF7DEF742
:100A5000DEF75CE7718C042141084108A3102D6B7F
:100A6000718C54AD18C6DBD65DE779CE4D6B862907
:100A700086298629862986298629862986298629FE
:100A800086298629862986298629862986298629EE
:100A900086298629862986298629862986298629DE
:100AA00086298629862986298629862986298629CE
:100C80008629A629A6316629652966292421C7391E
:100C9000AE73929455ADF7BD79CE1CDF7DEFDFFFCB
:100CA000DFFFDFFFDFFFDFFFDFFFDFFFDFFFDFFF54
:100CB000DFF7DEF7BEF73CE7BAD618C6F39C8A52D8
:100CC00082104108410821082108200841084108F4
:100CD0000421EF7BF7BD3CE73CE70F7C86298629A2
:100CE000862986298629862986298629862986298C
:100CF000862986298629862986298629862986297C
:100D0000862986298629862986298629862986296B
:100D1000862986298629862986298629862986295B
:100D2000862986298629862986298629862986294B
:100D3000862986298629862986298629862986293B
:100D4000862986298629862986298629862986292B
:100D5000862986298629862986298629862986291B
:100D6000862986298629862986298629862986290B
:100D700086298629862986298629862986298629FB
:100D800086298629862986298629862986298629EB
:100D900086298629862986298629862986298629DB
:100DA00086298629862986298629862986298629CB
:100DB00086298629862986298629862986298629BB
:100DC00086298629862986298629862986298629AB
:100DD000862986298629862986298629862986299B
:100DE000862986298629862986298629862986298B
:100DF000862986298629862986298629862986297B
:100E0000862986298629862986298629862986296A
:100E1000862986298629862986298629862986295A
:100E2000862986298629862986298629862986294A
:100E3000862986298629862986298629862986293A
:100E4000862986298629862986298629862986292A
:100E5000862986298629862986298629862986291A
:100E6000862986298629862986298629862986290A
:100E700086298629862986298629862986298629FA
:100E800086298629862986298629862986298629EA
:100E900086298629862986298629862986298629DA
:100EA00086298629862986298629862986298629CA
:100EB00086298629862986298629862986298629BA
:100EC00086298629862986298629862986298629AA
:100ED000862986298629862986298629862986299A
:100EE000E739C731A73186294529083A8E73728CB4
:100EF00034A5D7BD79CEFBDE7DEFDFFFDFFFDFFF5F
:100F0000DFFFDFFFDFFFDFFFDFFFDFFFDFFF9EF73A
:100F10003CE7BAD658C6D7BD75ADF39C51846D6B0E
:100F20008A4A6E6B518CB29434A575AD96B596B560
:100F300075AD13A59194EF7B6D6B084221084108B4
:100F4000084254AD7DEF7DEF6D6B86298629862999
:100F50008629862986298629862986298629862919
:100F60008629862986298629862986298629862909
:100F700086298629862986298629862986298629F9
:100F800086298629862986298629862986298629E9
:100F900086298629862986298629862986298629D9
:100FA00086298629862986298629862986298629C9
:100FB00086298629862986298629862986298629B9
:100FC00086298629862986298629862986298629A9
:100FD0008629862986298629862986298629862999
:100FE0008629862986298629862986298629862989
:100FF0008629862986298629862986298629862979
:101000008629862986298629862986298629862968
:101010008629862986298629862986298629862958
:101020008629862986298629862986298629862948
:101030008629862986298629862986298629862938
:101040008629862986298629862986298629862928
:101050008629862986298629862986298629862918
:101060008629862986298629862986298629862908
:1010700086298629862986298629862986298629F8
:1010800086298629862986298629862986298629E8
:1010900086298629862986298629862986298629D8
:1010A00086298629862986298629862986298629C8
:1010B00086298629862986298629862986298629B8
:1010C00086298629862986298629862986298629A8
:1010D0008629862986298629862986298629862998
:1010E0008629862986298629862986298629862988
:1010F0008629862986298629862986298629862978
:101100008629862986298629862986298629862967
:101110008629862986298629862986298629862957
:101120008629862986298629862986298629862947
:10113000862986298629862986298629C731C731A5
:10114000A731A6318629E8396E6B728C34A5F7BDBC
:1011500079CE1BDF7DEFDFFFDFFFDFFFDFFFDFFF8C
:10116000DFFFDFFFDFFFDFFFDFFF7DEF1BDF99CE5C
:1011700018C6B6B534A59294CF7BCF7B929435A593
:10118000D7B538C67ACEDBDE3CE79DEFDEF7DFFF72
:10119000DEF7DEF7DFF7DEF7DEF7BEF7BEF75DEF6F
:1011A000FBDEBAD638C6F7BD34A591948631E4206B
:1011B000B6B5BEF71BDF083A862986298629862917
:1011C00086298629862986298629862986298629A7
:1011D0008629862986298629862986298629862997
:1011E0008629862986298629862986298629862987
:1011F0008629862986298629862986298629862977
:101200008629862986298629862986298629862966
:101210008629862986298629862986298629862956
:101220008629862986298629862986298629862946
:101230008629862986298629862986298629862936
:101240008629862986298629862986298629862926
:101250008629862986298629862986298629862916
:101260008629862986298629862986298629862906
:1012700086298629862986298629862986298629F6
:1012800086298629862986298629862986298629E6
:1012900086298629862986298629862986298629D6
:1012A00086298629862986298629862986298629C6
:1012B00086298629862986298629862986298629B6
:1012C00086298629862986298629862986298629A6
:1012D0008629862986298629862986298629862996
:1012E0008629862986298629862986298629862986
:1012F0008629862986298629862986298629862976
:101300008629862986298629862986298629862965
:101310008629862986298629862986298629862955
:101320008629862986298629862986298629862945
:101330008629862986298629862986298629862935
:101340008629862986298629862986298629862925
:101350008629862986298629862986298629862915
:101360008629862986298629862986298629862905
:1013700086298629862986298629862986298629F5
:1013800086298629862986298629862986298629E5
:1013900086298629862986298629E731A631A6311C
:1013A0008629A6312D63518C14A5B6B579CEFBDE06
:1013B0007DEFDFFFDFFFDFFFDFFFDFFFDFF7DFFFB7
:1013C000DFFFDFFFDEF75CE7DBDE59CEF7BD96B56A
:1013D00034A5D39410843084D39C75ADF7BD59CE19
:1013E000BAD61BDF7DEFBEF7DEF7DEF7DFF7DFF7FC
:1013F000DFFFDFF7DEF7BEF77DEF7DEF7DEF7DEFFF
:101400007DEF7DEF7DEF7DEF7DEF9DEF7DEF7DEF5C
:101410003CE7DBDE9AD655AD139D0C63863199D639
:10142000DEF714A586298629862986298629862914
:101430008629862986298629862986298629862934
:101440008629862986298629862986298629862924
:101450008629862986298629862986298629862914
:101460008629862986298629862986298629862904
:1014700086298629862986298629862986298629F4
:1014800086298629862986298629862986298629E4
:1014900086298629862986298629862986298629D4
:1014A00086298629862986298629862986298629C4
:1014B00086298629862986298629862986298629B4
:1014C00086298629862986298629862986298629A4
:1014D0008629862986298629862986298629862994
:1014E0008629862986298629862986298629862984
:1014F0008629862986298629862986298629862974
:101500008629862986298629862986298629862963
:101510008629862986298629862986298629862953
:101520008629862986298629862986298629862943
:101530008629862986298629862986298629862933
:101540008629862986298629862986298629862923
:101550008629862986298629862986298629862913
:101560008629862986298629862986298629862903
:1015700086298629862986298629862986298629F3
:1015800086298629862986298629862986298629E3
:1015900086298629862986298629862986298629D3
:1015A00086298629862986298629862986298629C3
:1015B00086298629862986298629862986298629B3
:1015C00086298629862986298629862986298629A3
:1015D0008629862986298629862986298629862993
:1015E0008629862986298629862986298629862983
:1015F000862986298629A629E839083AC731E83993
:10160000EC5A1084F39C75AD38C6BAD65CE7DEF7A9
:10161000DFFFDFFFDFFFDFFFDFFFDFFFDFFFDFFFDA
:10162000DEF73CE7DBD638C6B6B575ADF39C518C1A
:101630003084728C14A5B6B518C659CEBAD61BDF45
:101640005DE7BEF7BEF7DEF7DEF7DEF7DEF7DEF7C3
:10165000DEF79DEF7DEF7DEF7DEF7DEF5DEF7DEFC1
:101660007DEF9EEFBEF7BEF7BEF7BEF7BEF77DEF8C
:101670001CE7DBDE9AD6BAD6BAD69AD6BAD6DBD66D
:10168000FBDEBAD634A5D29C4C6BAE739DEF3CE723
:1016900086298629862986298629862986298629D2
:1016A00086298629862986298629862986298629C2
:1016B00086298629862986298629862986298629B2
:1016C00086298629862986298629A6296A4AEC5AE6
:1016D000728CB294B29475AD76AD76AD96B596B582
:1016E00096B596B596B5B6B5B6B575AD34A5F39CB9
:1016F000F39CEF83AE73EB5A894AA6298629862983
:101700008629862986298629862986298629862961
:101710008629862986298629862986298629862951
:101720008629862986298629862986298629862941
:101730008629862986298629862986298629862931
:101740008629862986298629862986298629862921
:101750008629862986298629862986298629862911
:101760008629862986298629862986298629862901
:1017700086298629862986298629862986298629F1
:1017800086298629862986298629862986298629E1
:1017900086298629862986298629862986298629D1
:1017A00086298629862986298629862986298629C1
:1017B00086298629862986298629862986298629B1
:1017C00086298629862986298629862986298629A1
:1017D0008629862986298629862986298629862991
:1017E0008629862986298629862986298629862981
:1017F0008629862986298629862986298629862971
:101800008629862986298629862986298629862960
:101810008629862986298629862986298629862950
:101820008629862986298629862986298629862940
:101830008629862986298629862986298629862930
:101840008629862986298629862986298629862920
:1018500086298629C7318629C731A6312942CF7307
:10186000B29455AD18BE9AD61CE7BEF7DFFFDFFF76
:10187000DFF7DFFFDFFFDFFFDFFFDFFFBEF73CE764
:10188000BAD638C6B6B555ADD39C3184AF73108483
:10189000F39C96B518C679CEDBD61CDF5DE79EF7C4
:1018A000BEF7BEF7DEF7DEF7DEF7BEF79EEF5CE7CA
:1018B0005CE75CE73CE73CE75DEF5CE75DE79EF7F4
:1018C000BEF7BEF79EEF3CE7DBDE9AD69AD69AD6F5
:1018D000BAD69AD6BAD6BAD6DBDE1CE75DEFBEF72B
:1018E000DEF7DEF7DEF7DFF7DEF71CE714A5DBDE59
:1018F000DBDE718C34A5CB5A59CEDFFF0C63862911
:10190000862986298629862986298629862986295F
:10191000862986298629862986298629862986294F
:1019200086298629862928424D6BAE733084D3944C
:1019300096B596B555AD75AD55A5F49C9294F07BD2
:101940008E732D63494AA73186318631A631C73956
:10195000653108424D6B13A533A5DADEDFFFDFF7F3
:10196000DEF7BEF73CE7DADE17C6D39CEB5A8629D2
:1019700086298629862986298629862986298629EF
:1019800086298629862986298629862986298629DF
:1019900086298629862986298629862986298629CF
:1019A00086298629862986298629862986298629BF
:1019B00086298629862986298629862986298629AF
:1019C000862986298629862986298629862986299F
:1019D000862986298629862986298629862986298F
:1019E000862986298629862986298629862986297F
:1019F000862986298629862986298629862986296F
:101A0000862986298629862986298629862986295E
:101A1000862986298629862986298629862986294E
:101A2000862986298629862986298629862986293E
:101A3000862986298629862986298629862986292E
:101A4000862986298629862986298629862986291E
:101A5000862986298629862986298629862986290E
:101A600086298629862986298629862986298629FE
:101A700086298629862986298629862986298629EE
:101A800086298629862986298629862986298629DE
:101A900086298629862986298629862986298629CE
:101AA00086298629862986298629862986298629BE
:101AB000A629C731C731A631694AAE73929455AD94
:101AC000F7BD9ACE1CE79DEFDFFFDFFFDFFFDFFFF3
:101AD000DFFFDFFFDFFFDFFFDFFF7DEFFBDE59CE44
:101AE000D7BD55ADB394F07B8E73728C34A5B7B56A
:101AF00038C69AD6DBDE3CE77DEFBEF7DEF7DFF7D0
:101B0000BEF7BEF7BEF7BEF79EEF5CE73CE73CE7EB
:101B10003CE73CE73CE73CE75DE79EF7BEF79EF716
:101B20005CE7FBDEDBDEDBD6BAD6BAD6BAD6BAD6EF
:101B3000BAD61CDF7DEFBEF7BEF7BEF7DEF7DEF7E5
:101B4000DEF7DFF7DFF7DFF7DFF7DFF7DFF7DEF7E7
:101B50009EEF7DEF3CE7FBDE8E73EB5AD7BDF7BD02
:101B6000CE7BF3A430845CE76D6B862986298629B9
:101B700086298629862986298629862986298629ED
:101B8000862986298629862986294D6B75AD79CEC9
:101B9000FBDE1CDF59CE96B5718C0C63C31841086F
:101BA000410841084108410841082429A639A639BD
:101BB000A639A631A639C639A639C6394108200842
:101BC0004108AA5A33A554AD5DEFDEF7DFFFDFFF12
:101BD000DFFFDFFFDFFFDFFF9EF7F7C58A528629B1
:101BE000862986298629862986298629862986297D
:101BF000862986298629862986298629862986296D
:101C0000862986298629862986298629862986295C
:101C1000862986298629862986298629862986294C
:101C2000862986298629862986298629862986293C
:101C3000862986298629862986298629862986292C
:101C4000862986298629862986298629862986291C
:101C5000862986298629862986298629862986290C
:101C600086298629862986298629862986298629FC
:101C700086298629862986298629862986298629EC
:101C800086298629862986298629862986298629DC
:101C900086298629862986298629862986298629CC
:101CA00086298629862986298629862986298629BC
:101CB00086298629862986298629862986298629AC
:101CC000862986298629862986298629862986299C
:101CD000862986298629862986298629862986298C
:101CE000862986298629862986298629862986297C
:101CF000862986298629862986298629862986296C
:101D00008629862986298629862986298629A73132
:101D1000A629A631C739EC5A308414A5B6B559CED8
:101D2000FBDE7DEFDFFFDFFFDFFFDFFFDFFFDFF742
:101D3000DEF7DEF7DEF7BEF73CE7BAD618C696B593
:101D4000149D928CEF7BF07BB29455ADF7BD79CEAC
:101D5000FBDE5CE79EF7BEF7BEF7BEF7BEF7BEF749
:101D6000DEF7BEF7BEF77DEF1CDF1BDFFBDEDBDE41
:101D7000FBDEFBDE3CE77DEF7DEF1CDFBBD69AD6BA
:101D8000BAD6BBD6BAD6DBD6DBDEFBDE5DE7BEF766
:101D9000BEF7DEF7DEF7DEF7DEF7DEF7DEF7DEF7BB
:101DA000DEF7DEF7DEF7DEF7BEF75CE7FBDE99CEA7
:101DB00059CE38C6D7BD96B555ADD39C34A575ADB3
:101DC00096B596B5AE7341080421AE738E73F39C3D
:101DD000AE7B284AE739083A8A4AEB5A2D636D6B85
:101DE0008E6BAE73AE73CF7B1084518C9294B29491
:101DF000D2944D6B96B59AD658CE18C634A52842C3
:101E000082104108410841082008200820082008C5
:101E10002108210841080421853186318531853129
:101E200085318631863186314108210841082429CF
:101E3000F29C95B538C699D61BE77DEFDFFFDFFF33
:101E4000DFFFDFFFDFFFDEF713AD86298629862956
:101E5000862986298629862986298629862986290A
:101E600086298629862986298629862986298629FA
:101E700086298629862986298629862986298629EA
:101E800086298629862986298629862986298629DA
:101E900086298629862986298629862986298629CA
:101EA00086298629862986298629862986298629BA
:101EB00086298629862986298629862986298629AA
:101EC000862986298629862986298629862986299A
:101ED000862986298629862986298629862986298A
:101EE000862986298629862986298629862986297A
:101EF000862986298629862986298629862986296A
:101F00008629862986298629862986298629862959
:101F10008629862986298629862986298629862949
:101F20008629862986298629862986298629862939
:101F30008629862986298629862986298629862929
:101F40008629862986298629862986298629862919
:101F50008629862986298629862986298629862909
:101F6000862986298629862986298629C731E8393E
:101F7000A631C7318E73929455ADF7BD9ACE1BDF53
:101F80009EF7DEF7DFF7DFFFDFFFDFFFDFFFDEF7C4
:101F9000DFF7BEF71CE79ACE18C6B6B555AD34A527
:101FA000B2949294B2949294D39C75ADD7BD59CE0D
:101FB000BAD63CE77DEF7DEF5DEF7DEF5DEF3CE76F
:101FC0001CE7FBDEFBDEDBDEDBDEDBDEDBD6BAD6F0
:101FD000BAD6DBD6BAD679CE9AD69ACEBAD6BAD6F1
:101FE000BAD6BAD6FBDE5DE79EF7BEF7DFF7DEF7BF
:101FF000DEF7DEF7BEF7DFF7DEF7BEF7BEF7BEF7B8
:10200000BEF77DEF1CDFBAD679CE59C638C618BEEA
:10201000F7BDB6B5B6B5F7BD18BE18C638C699CE69
:102020009ACE79CE59C679CE7ACE9ACE59CE38C6C6
:102030003084C7394108A310AA52508C9294C31817
:10204000BAD67DEF5DEF3CE75CE75DEF9DEFBEF755
:10205000DEF7BEF7BEF7BEF7BEF7BEF755ADAE7BF7
:1020600058CE79CE79CE79CED6BDCB5AC318410899
:102070002108200820082000200820082108410805
:102080006210E32065296529652965318631494A51
:10209000CB5AEB620B630C632C636D73494AEB62A2
:1020A000D29C74B516C637CE99D63BE7DEF7DFFF74
:1020B000DFFFDFF733B58629862986298629862919
:1020C0008629862986298629862986298629862998
:1020D0008629862986298629862986298629862988
:1020E0008629862986298629862986298629862978
:1020F0008629862986298629862986298629862968
:102100008629862986298629862986298629862957
:102110008629862986298629862986298629862947
:102120008629862986298629862986298629862937
:102130008629862986298629862986298629862927
:102140008629862986298629862986298629862917
:102150008629862986298629862986298629862907
:1021600086298629862986298629862986298629F7
:1021700086298629862986298629862986298629E7
:1021800086298629862986298629862986298629D7
:1021900086298629862986298629862986298629C7
:1021A00086298629862986298629862986298629B7
:1021B00086298629862986298629862986298629A7
:1021C0008629862986298629862986298629862997
:1021D000862986298A4AAE73B6B59AD63CE7BEF7F9
:1021E000DFFFDFFFDFFFDFFFDFFFDFF7DFFFDFFF07
:1021F0009EF71CE779CEF7BDB6B554A5D39CD29413
:1022000034A596B5F7BDF7BD17BE17BE18C6B6B54F
:1022100018BEBAD63CE77DEF7DEF7DEF7DEF5DEF39
:10222000FBDEBBD6DBDEBAD69AD6DBD69AD679CE23
:1022300038C639C638C659CE59CE9ACEBAD6FBDE84
:102240005DEFBEF7DEF7DFF7DEF7DFF7DFF7DFF78B
:10225000DFF7DFF7DEF7DEF7DEF7BEF77DEF1BDF38
:10226000BAD679CE59C638C6F7BDD7BDB6B5F7BD13
:1022700038C679CE9AD69AD69AD69ACE79CE79CED3
:1022800059C6D7BD18C679CE9ACE9AD6BAD6FBDE35
:102290005CE75DEF5DEF7DEF9DEF7DEFCF7BCB5A90
:1022A0004108863169520F8434AD0421DBDEBEF76C
:1022B000DEF7DEF7DEF7DEF79EF7BEF7BEF7BEF716
:1022C000BEF7BEF7BEF73CE734A596B5BAD638C61A
:1022D000BAD6DADE59CE6D6B04216108410882104E
:1022E000A318C318C318C31828424D6B3084B29486
:1022F00055ADB6B5F7BD18C659CE59CE79CE79CE03
:102300009AD6BAD6BAD699D679CE79CE58C6F7BD6E
:1023100018C638C617C637CEDADEDFFFDFFFDEF7B6
:1023200013AD862986298629862986298629862924
:102330008629862986298629862986298629862925
:102340008629862986298629862986298629862915
:102350008629862986298629862986298629862905
:1023600086298629862986298629862986298629F5
:1023700086298629862986298629862986298629E5
:1023800086298629862986298629862986298629D5
:1023900086298629862986298629862986298629C5
:1023A00086298629862986298629862986298629B5
:1023B00086298629862986298629862986298629A5
:1023C0008629862986298629862986298629862995
:1023D0008629862986298629862986298629862985
:1023E0008629862986298629862986298629862975
:1023F0008629862986298629862986298629862965
:102400008629862986298629862986298629862954
:102410008629862986298629862986298629862944
:102420008629862986298629862986298629862934
:1024300086298629862986298629862986290C6364
:10244000CF739DEFDFFFDFF7DFF7DEF77DEF1BDFF9
:102450009AD618C6B6B5B6B5B6B555AD75ADD7BD35
:10246000F7BD38C638C618C6F7BDD7BD96B575AD29
:10247000149D14A5B6B538C69AD65DE79EF77DEFD4
:10248000FBDE9ACE79CE59CE18C6B7B5F8BD38C6A0
:1024900059C679CE9AD6BAD61CDF7DEFBEF7BEF705
:1024A000DFF7DFF7DFF7DFF7DFF7DFF7DFF7DFF77C
:1024B000DEF7BEF77DEFFBDE9AD658C618C617BE0C
:1024C00017BED7BDD7BDD7BD38C679CEBAD6BAD616
:1024D000BAD69AD69ACE79CE79CE59CEF7BDB6B5C0
:1024E00096B5B6B5F7BD38C679CE9ACEFBDE7DEF90
:1024F0009DEF9DEF9EEF9EEF5DE75DEF9EF7BEF7D0
:10250000DEF7DEF7BEF7BEF7B2948A5241088210BA
:10251000A739AE7B38C6DBDEBEF7BEF7BEF75CE799
:102520005DEF7DEF9EF79EF79EF79EF79EF7BEF755
:10253000BEF79AD617C638C6DBDE38C6BAD6DBDE9B
:10254000DADE718C452966290C631084B29414A5D7
:1025500096B518C659CE79CE79CE59CE38C617C69B
:10256000D7BDB6B596B575AD34A514A513A513A5FD
:1025700034A534AD75ADB6B5F7C579CEFBDE7DEFCC
:10258000BEF7BEF7BEF7DEF7DFFFBEF774B56D6BC3
:1025900086298629862986298629862986298629C3
:1025A00086298629862986298629862986298629B3
:1025B00086298629862986298629862986298629A3
:1025C0008629862986298629862986298629862993
:1025D0008629862986298629862986298629862983
:1025E0008629862986298629862986298629862973
:1025F0008629862986298629862986298629862963
:102600008629862986298629862986298629862952
:102610008629862986298629862986298629862942
:102620008629862986298629862986298629862932
:102630008629862986298629862986298629862922
:102640008629862986298629862986298629862912
:102650008629862986298629862986298629862902
:1026600086298629862986298629862986298629F2
:1026700086298629862986298629862986298629E2
:1026800086298629862986298629862986298629D2
:1026900086298629862986298629862986298629C2
:1026A00086298629862986298629EF7B3084B6B536
:1026B00075AD34A534A514A575B5B6B517BE58C605
:1026C00059C6F7BD96B534A5F39C9294518C3184CC
:1026D000108410843084D39475AD18C69AD6FBDE6E
:1026E000DAD69AD69ACE79CE18C696B596B538C6A9
:1026F000DBDE1CE75CE7BEF7DEF7DEF7DEF7DEF7D2
:10270000DEF7DEF7DEF7DEF7DEF7BEF79EEF5DE71A
:10271000DBDE99CE59CE38C617C6D7BDD6B5B6B50D
:10272000D7BD38C69ACEBAD6BAD6BAD69ACE79CE50
:1027300038C6F7BDB6B575AD14A5F39C14A576AD36
:10274000B6B518C659CEBAD61BDF7DEFBEF79EF7D9
:102750009EF79EF79DEF7DEF7DEF7DEF7DEF9EEF86
:102760005DE75DE7BEF7BEF7BEF7BEF7BEF7BEF7A3
:10277000BEF7BEF775AD294241082529F39C59CE15
:1027800018C6B6B5B6B59AD6FBDE9DEF7DEF9DEFC8
:102790009DEF9EEF9EEF9EEF9DEF9EF7BEF77DEFC4
:1027A00038C617BEBAD638C6BAD6DBDEDBDE79CE7F
:1027B00017BE38C638C618C6D7BD75AD14A57294F5
:1027C000CF7B0C63084245298639E741494A895243
:1027D000AA5ACA62EB62CB62CA62AA5A6952084A12
:1027E000A639A639C739E741484AAA5AEF8354ADFA
:1027F00079CE5CEFDEF79EF737CE5CEF38C6EF7B25
:102800008629862986298629862986298629862950
:102810008629862986298629862986298629862940
:102820008629862986298629862986298629862930
:102830008629862986298629862986298629862920
:102840008629862986298629862986298629862910
:102850008629862986298629862986298629862900
:1028600086298629862986298629862986298629F0
:1028700086298629862986298629862986298629E0
:1028800086298629862986298629862986298629D0
:1028900086298629862986298629862986298629C0
:1028A00086298629862986298629862986298629B0
:1028B00086298629862986298629862986298629A0
:1028C0008629862986298629862986298629862990
:1028D0008629862986298629862986298629862980
:1028E0008629862986298629862986298629862970
:1028F0008629862986298629862986298629862960
:10290000862986298629862986298629862986294F
:1029100086298629862930843184B294B6B559CE69
:1029200099CE59CEB6B534A5D29C508CEF83108485
:10293000518C718C718C9294149D96B5D7B538C614
:1029400059C618C618BE18BE18BE18BE38C6F8BD7F
:1029500092946D6BC739C739DBDE1CE7FBDEDFF70E
:10296000DEF7BEF75DEF1CE7DBDEBAD679CE58C6E0
:1029700018C6F7BDB6B596B596B5F7BD59C69ACE89
:10298000BAD6BAD69AD659C618BED7BD96B555ADE1
:1029900014A5929410841084929414A575ADD7BD9B
:1029A00059CEDBDE3CE77DEF9EF79EEF9EEF9DEF7D
:1029B0007DEF7DEF7DEF7DEF7DEF7DEF7DEF7DEFB7
:1029C0007DEF7DEF7DEF7DEF5DE73CE77EEF9EEFF6
:1029D0009EEF9EEF9EEF9EEF9EEF9EEFBEF7BEF73F
:1029E000F7BD6A4A14A5F7BD34A5B294B29418C6CF
:1029F0003CE77EEF7DEF7DEF7DEF7DEF7DEF9DEF9F
:102A0000BEF7BEF7DFFFDFFFDFFFDFFF9AD6F7BDC0
:102A1000BAD638C6BAD659CEF7BD34A5D29C518C99
:102A20006D73294AC7398A520C6B8D73CE83308CF3
:102A30009194D29CF2A4F2A412A513A533A533ADB0
:102A400033AD33AD33AD33A512A5F2A4D19C709450
:102A5000CE832B6B6952E741E741484AAA5A2C6B57
:102A600034AD9DEF78D69DF77DEF5CEF99D6B294AB
:102A7000E83986298629862986298629862986296C
:102A800086298629862986298629862986298629CE
:102A900086298629862986298629862986298629BE
:102AA00086298629862986298629862986298629AE
:102AB000862986298629862986298629862986299E
:102AC000862986298629862986298629862986298E
:102AD000862986298629862986298629862986297E
:102AE000862986298629862986298629862986296E
:102AF000862986298629862986298629862986295E
:102B0000862986298629862986298629862986294D
:102B1000862986298629862986298629862986293D
:102B2000862986298629862986298629862986292D
:102B3000862986298629862986298629862986291D
:102B4000862986298629862986298629862986290D
:102B500086298629862986298629862986298629FD
:102B600086298629862986298629862986298629ED
:102B700086298629862986298629862986298629DD
:102B80008629CF7B928C34A534A53084EC5A6A4ACE
:102B90000C63B294149D149DF39C149D55A5B7B578
:102BA00058C6DBD6FBDE9ACEDBD6FBDE5CE77DEFDC
:102BB0007DEF7DEF7DEF7DEF9DEF9ACE8A5241084C
:102BC0004108494A99D61BDF54A5D7BDD6BDF7BDEC
:102BD00018C679CE9AD6BAD6BAD6BAD69ACE59CE21
:102BE000F7BDB6B596AD75AD75AD34A514A5D29C3F
:102BF000728C718CF39C55AD96B518C679CEDBDE20
:102C00005DE77EEF7DEF7DEF7DEF7DEF7DEF7DEF8B
:102C10007DEF5DEF7DEF7DEF7DEF7DEF7DEF7DEF74
:102C20007DEF7DEF7DEF7DEF7DEF7DEF5DEF5DEF84
:102C30007DEF3CE75DE75DEF5DEF5DEF5DEF5DEF45
:102C40005DEF5DEF5DEF7EEF3CE7FBDEFBDEB6B5F3
:102C5000518CCF7BF39C38C63CE75DE75DE77DEFA9
:102C60007DEF7DEF7DEF9DEFBEF7DFFFDFFFDFFF45
:102C7000DFFFDFF79EEF5DE7BAD6F7BD58C696B522
:102C8000518C4D6BAB5A2C6BAE7B0F847194D29CE4
:102C9000F3A4F2A4F2A4F2A4D2A4B19C7094509430
:102CA0002F8C0F8CEE83CE83CE83CE83CD83CD83CA
:102CB000CE83EE830E8C0F8C2F8C4F944F944F94B9
:102CC0004F942F94EE83AD7B8D736D735094B6BD8E
:102CD0007DF7BEF79EF79DF77DEF5CEFFBDE34A539
:102CE0004942862986298629862986298629862990
:102CF000862986298629862986298629862986295C
:102D0000862986298629862986298629862986294B
:102D1000862986298629862986298629862986293B
:102D2000862986298629862986298629862986292B
:102D3000862986298629862986298629862986291B
:102D4000862986298629862986298629862986290B
:102D500086298629862986298629862986298629FB
:102D600086298629862986298629862986298629EB
:102D700086298629862986298629862986298629DB
:102D800086298629862986298629862986298629CB
:102D900086298629862986298629862986298629BB
:102DA00086298629862986298629862986298629AB
:102DB000862986298629862986298629862986299B
:102DC000862986298629862986298629862986298B
:102DD000862986298629862986298629862986297B
:102DE0008629862986298629862986298629083AD8
:102DF000EF7B0C63494AC739AA5254A554A54D6BC1
:102E0000A7392D63149DD7B5B6B576AD34A5F39C1F
:102E1000D394CF7BF7BD59C659C658C639C638C6F4
:102E200038C659C659CEF7BDAB5A4108E318694AAE
:102E30009AD6DBDEFBDEFBDE9ACE58C6D7B575AD83
:102E400034A5D39C518C718CB294B294D39C55AD63
:102E500096B5D7BDF7BD38C659CE9AD6FBDE3CE74E
:102E60003DE73CE73CE73CE73CE73DE73DE73DE746
:102E70005DE75DE75DEF5DEF5DEF5DEF5DEF5DEF02
:102E80007DEF7DEF7DEF7DEF7DEF7DEF7DEF7DEFE2
:102E90007DEF7DEF7DEF7DEF5DEF5DE71CE75DEFA3
:102EA0005DE75DE75DE75DE75DE75DE75DE75DEFFA
:102EB0005DE73CE7BEF71BDFB294EB5A96B5BBD695
:102EC0003CE71CE71CDF3CE75DE77DEF9DEF9DEFF6
:102ED000BEF7DFFFDFFFDFFFDFFFBEF71CE79AD69D
:102EE00079CE38C638C6F7BD96B514A513A534A556
:102EF00014A5D29C9194308CCE7B4D73EB626952B9
:102F0000E7414429C320A218A218A218A218A218A7
:102F1000821082108210821082108210A218A218D1
:102F2000C3200421242924296531A639074A895A56
:102F30000B6BEE8312ADD6C517CEFAE6BEF7DEFFF9
:102F4000BEF7BEF79DF79DF77DF75CEFFBE613A597
:102F5000E839862986298629862986298629862987
:102F600086298629862986298629862986298629E9
:102F700086298629862986298629862986298629D9
:102F800086298629862986298629862986298629C9
:102F900086298629862986298629862986298629B9
:102FA00086298629862986298629862986298629A9
:102FB0008629862986298629862986298629862999
:102FC0008629862986298629862986298629862989
:102FD0008629862986298629862986298629862979
:102FE0008629862986298629862986298629862969
:102FF0008629862986298629862986298629862959
:103000008629862986298629862986298629862948
:103010008629862986298629862986298629862938
:103020008629862986298629862986298629862928
:103030008629862986298629862986298629862918
:103040008629862986298629862986298629862908
:10305000862986298629862986298629E7398E6B3D
:10306000728C34A538BEB6B5D394EF7B3084F39C14
:1030700055ADB6B5B6B596B5B6B5B6B5B7B5B7B57F
:10308000B6B575AD34A5D39C718C31841084108491
:1030900030849294AB5A41082421494ABAD6BAD610
:1030A000AF73CF7B1084518CF39C96B5D7BDD6BD42
:1030B00059CE9AD6BAD6DBDE3DE73CE71CE71CE7E3
:1030C0001CE71CE71CE71CE71CE71CE73CE73CE7A8
:1030D0003CE73CE75DE75DE75DE75DE75DEF5DEF02
:1030E0005DEF5DEF5DEF7DEF7DEF5DEF5DEF5DEF40
:1030F0005DEF5DEF7DEF7DEF7DEF7DEF7DEF7DEFB0
:103100007DEF5DEF3CE73CE75DE75DE75DE75DE7B1
:103110005DE75DE75DE75DE75DEF3DE79EEFBEF7ED
:103120009EF7DBD6FBDE3DE73DE71CE73CE73CE7EF
:103130005DE75DE75DEF7DEFDEF7DFF7DFFFDFFFE8
:10314000FFFFDFFFDFFF7DEF59CE38C638C618C658
:10315000B6B596B514A5518C4D6B694A2429C31890
:10316000A2188210821082108210821082108210A7
:1031700062106110611061106110611062106210C4
:103180006210621062106110621062106210821090
:1031900082108210821082108210A218C218C218E7
:1031A000C318CA5A919413ADF6C57CEFDEFFDEFF5B
:1031B000BEF7BEF79DF79DF77DF73CEFBADE718C49
:1031C0008629862986298629862986298629862987
:1031D0008629862986298629862986298629862977
:1031E0008629862986298629862986298629862967
:1031F0008629862986298629862986298629862957
:103200008629862986298629862986298629862946
:103210008629862986298629862986298629862936
:103220008629862986298629862986298629862926
:103230008629862986298629862986298629862916
:103240008629862986298629862986298629862906
:1032500086298629862986298629862986298629F6
:1032600086298629862986298629862986298629E6
:1032700086298629862986298629862986298629D6
:1032800086298629862986298629862986298629C6
:1032900086298629862986298629862986298629B6
:1032A00086298629862986298629862986298629A6
:1032B0008629862986298629862986298629862996
:1032C000862986298629A629083A8E7396B596B549
:1032D000B6B5B6B5B7B596B5B6B5D7B575AD34A56F
:1032E00034A514A514A514A514A5F4A4F39CD39493
:1032F000D39CD39CD394B2949294728C518CB294FC
:10330000CB5A61084529694A79CE38C618BE79CEAC
:10331000BAD61CE75CE75DE75DEF7DEF5DE71CDF9C
:10332000FBDEFBDEFBDE1CDF1CDF1CE73CE73CE7D3
:103330003CE73CE73CE73DE75DE75DE75DE75DE7F0
:103340005DE75DEF5DEF5DEF5DEF5DEF5DEF5DEF25
:103350005DEF5DEF7DEF7DEF7DEF7DEF7DEF7DEF4D
:103360007DEF5DEF7DEF7DEF7DEF7DEF7DEFFCDEAF
:103370003DE75DE75DE75DE75DE75DE75DE75DE74D
:103380005DEF5DEF3CE75DEF7EEF7EEF5DEF5DE7CC
:103390005DE73DE73CE73DE73DE75DE75DE75DEF86
:1033A0005DEF7DEFDEF7DEF7DFF7DFF7FFFFFFFF13
:1033B000FFFFDFFFDFF7BEF7BEF7DFF79EEF3CE76B
:1033C000FBDEBBD679CE38C6F7C5D7BD96B575B589
:1033D00055AD55AD34AD34AD34AD34AD34AD34ADA3
:1033E00034AD14AD33AD13AD13AD33AD33B554B50A
:1033F00054B554B554BD74BD94BD94BD95BDB5C50B
:10340000B5C5D5C5D6CDF6CD37CE58D698DED9E6DA
:103410001AEF7CF7DEF7DEFFDEFFDEFFDEFFBEF732
:10342000BEF7BDF79DF79DF75CF73CEF38CE2C63F8
:103430008629862986298629862986298629862914
:103440008629862986298629862986298629862904
:1034500086298629862986298629862986298629F4
:1034600086298629862986298629862986298629E4
:1034700086298629862986298629862986298629D4
:1034800086298629862986298629862986298629C4
:1034900086298629862986298629862986298629B4
:1034A00086298629862986298629862986298629A4
:1034B0008629862986298629862986298629862994
:1034C0008629862986298629862986298629862984
:1034D0008629862986298629862986298629862974
:1034E0008629862986298629862986298629862964
:1034F0008629862986298629862986298629862954
:103500008629862986298629862986298629862943
:103510008629862986298629862986298629862933
:103520008629862986298629083A083A083A0842CF
:103530000842C73966296629C739EB5ACF7B3084E0
:10354000F07B4D6BAB5A494A318417BED7BDF39C13
:10355000EF7B8E736D6B6D6B6D6B8E73AE73CF7B0C
:10356000518C55ADF7BD99D63CE759CEEC6262104F
:10357000A6318952F39C76AD9AD67DEFDEF79EEFA9
:103580005DE71CDFDBDEDBDEDBDEFBDEFBDEFCDE45
:103590001CDF1CDF3CE73CE73CE73DE75DE75DE720
:1035A0005DE75DE75DE75DEF5DEF5DEF5DEF5DEFD3
:1035B0005DEF5DEF5DEF5DEF5DEF5DEF5DEF5DEFAB
:1035C0005DEF5DEF5DEF5DEF5DEF5DEF5DEF5DEF9B
:1035D0005DEF5DEF5DEF5DEFDBDE5DE75DE75DE736
:1035E0005DE75DE75DE75DE75DE75DE73DE73CE7FC
:1035F0001CE73CE73DE75DE75DE75DEF7DEF7DEFD5
:103600007DEF5DE75DE75DEF5DEF7DEF7DEF7DEFEA
:103610009EEF9EEFBEF7DFF7DFF7DFF7DFFFDFF7A5
:10362000DFFFDFF7DFF7DFF7DFF7BEF7BEF79EEF6D
:103630007DEF3CE7FBDEDBDE9AD679CE58CE38C68E
:1036400017C6F7C5F7C5F7C5F7C5F7C5F7C5F6C57A
:10365000F6C5F6C5F6C5F6C5F6C5F6C5F6CD16CE61
:1036600016CE17CE37D637D657D657D678DE78DE71
:1036700098DEB9DED9E6D9E6FAEEFAEE1BEF9DF751
:10368000DEF7DEFFDEFFDEFFDEFFDEFFDEFFBEF782
:10369000BEF7BDF79DF79DF75CF71BEFF3A48629F6
:1036A00086298629862986298629862986298629A2
:1036B0008629862986298629862986298629862992
:1036C0008629862986298629862986298629862982
:1036D0008629862986298629862986298629862972
:1036E0008629862986298629862986298629862962
:1036F0008629862986298629862986298629862952
:103700008629862986298629862986298629862941
:103710008629862986298629862986298629862931
:103720008629862986298629862986298629862921
:103730008629862986298629862986298629862911
:103740008629862986298629862986298629862901
:1037500086298629862986298629862986298629F1
:1037600086298629862986298629862986298629E1
:1037700086298629862986298629862986298629D1
:10378000862986298629862986298629083A083A9B
:103790002942084225212521042104210421042154
:1037A000042125212842862945298A52AF73518454
:1037B000518C1084AE736D6B35A5DADE79CE55ADC4
:1037C000518C518C518C928CD394149D55AD79CEE3
:1037D0009DEF9EF79EF7D7BD0C63610865314D6B79
:1037E000B6B539C63CE71CE7DBDEBBD6BBD6DBDEB5
:1037F000DBDEFBDEFCDE1CDF1CE73CE73CE73CE7F6
:103800003CE73CE73CE75DE75DE75DE75DE75DE7FB
:103810005DE75DE75DE75DE75DEF5DEF5DEF5DEF68
:103820005DEF5DEF5DEF5DE73DE73DE73DE75DE7C0
:103830005DE75DE75DE75DE75DEF5DEF5DEF5DEF48
:103840007DEFDBDE5DE75DEF5DE75DE75DE75DE7B3
:103850005DE73DE73DE73CE73CE71CE71CE73CE76D
:103860003CE73DE75DE75DEF7DEF7DEF7DEF7DEFD1
:103870007DEF7DEF7DEF7DEF7DEF7DEF9EEF9EF79E
:10388000BFF7DFF7DFF7DFF7DFF7DFF7DFF7DFF7A8
:10389000DFF7DFF7DFF7BFF7BEF79EF77EEF5DEFED
:1038A0003CE71BDFDBDEBAD69AD679CE38CE38CEEF
:1038B00017C617C617C617C617C617C617C617C620
:1038C00017CE17CE16CE17CE17CE17CE17CE37D6A9
:1038D00037D657D658D678DE98DE98DEB9E6D9E6E0
:1038E000D9E6FAE6FAEE1AEF3BEFBEF7DEF7DEF7BF
:1038F000DEF7DEFFDEFFDEFFDEFFDEFFBEF7BEF738
:10390000BEF7BDF79DF77DF75CF738CEAA52862942
:10391000862986298629862986298629862986292F
:10392000862986298629862986298629862986291F
:10393000862986298629862986298629862986290F
:1039400086298629862986298629862986298629FF
:1039500086298629862986298629862986298629EF
:1039600086298629862986298629862986298629DF
:1039700086298629862986298629862986298629CF
:1039800086298629862986298629862986298629BF
:1039900086298629862986298629862986298629AF
:1039A000862986298629862986298629862986299F
:1039B000862986298629862986298629862986298F
:1039C000862986298629862986298629862986297F
:1039D000862986298629862986298629862986296F
:1039E000862986298629862986298629862986295F
:1039F000083A2942E839A73125210421042104216C
:103A00000421042145298631A731A731E8394A42EA
:103A1000AC4A0D5B4E63B073728C56ADD7B596B59C
:103A200055ADF49C3184518CB7B5318C929455A529
:103A3000F39C149D55ADB7B518C69ACE5DEF9EEFB9
:103A40007DEF9294CB5A8E7355AD39C6F8BD7ACEC0
:103A5000BBD6DBDEDBDEFBDEFCDE1CDF1CE71CE7AF
:103A60003CE73CE73CE73CE73CE73CE73CE73CE73E
:103A70003CE73DE73DE75DE75DE75DE75DE75DE787
:103A80005DE75DE73DE75DE75DE75DE75DE75DE736
:103A90005DE75DEF5DEF7DEF7DEF7DEF7DEF7DEF2E
:103AA0005DEF5DEF5DEF5DEF5DE75DE7DBD65DE769
:103AB0005DE73DE73DE73DE73DE73CE73CE73CE7C9
:103AC0001CE71CDF1CDF1CE73CE73CE73CE73DE76D
:103AD0005DE75DE77DEF7DEF7DEF7DEF7DEF7DEFD6
:103AE0007DEF7EEFBEF79EF79EEFBEF7DFF7DFF7C5
:103AF000DFF7DFF7DFF7DFF7DFF7DFF7DFF7DFF716
:103B0000DFF7BFF7BEF79EF79EEF7EEF5DEF3CE776
:103B10001CE7FBDEDBDEBAD699D679CE58CE38CE9E
:103B200037CE17CE17CE17CE17CE17CE17CE17CE4D
:103B300017CE37CE37CE37D637D657D657D658D6F4
:103B400078DE98DE99DEB9E6D9E6D9E6FAE6FAEE4D
:103B50001AEF1AEF3BEFBEF7BEF7BEF7BEF7BEF7A0
:103B6000DEFFDEFFDEFFDEFFDEFFBEFFBDF7BEF7DE
:103B7000BEF7BDF79DF77CF7FBE610848629862902
:103B800086298629862986298629862986298629BD
:103B900086298629862986298629862986298629AD
:103BA000862986298629862986298629862986299D
:103BB000862986298629862986298629862986298D
:103BC000862986298629862986298629862986297D
:103BD000862986298629862986298629862986296D
:103BE000862986298629862986298629862986295D
:103BF000862986298629862986298629862986294D
:103C0000862986298629862986298629862986293C
:103C1000862986298629862986298629862986292C
:103C2000862986298629862986298629862986291C
:103C3000862986298629862986298629862986290C
:103C400086298629862986298629862986298629FC
:103C5000862986298629E731294229426629E420D6
:103C6000E418E41804214529E8394A42AB4AED52E8
:103C70008F633274B484369DB8AD19B67AC6BBCEA4
:103C8000DCD61CDF1CDFFCDEDBD69ACE39C6D7B50E
:103C900055ADCF7BAE73EF7BAA5AD394F7B518BE60
:103CA00018BEF8BD38C6FBDE5DEFFBDE75AD55AD69
:103CB000F8BDD7B5F8BD9AD6FBDEFCDE1CDF1CE7ED
:103CC0001CE71CE71CE71CE73CE73CE73CE73CE75C
:103CD0003CE73CE73CE73DE73DE75DE75DE75DE767
:103CE0005DE75DE75DE75DE75DE77DEF7DEF5DEF5C
:103CF0005DEF5DEF5DEF5DE75DE75DE75DE73DE7AC
:103D00003DE73DE73DE73DE73DE73DE73DE73DE793
:103D10003DE73DE73DE7DBD63CE73DE73DE73CE7F8
:103D20003DE73DE73DE73CE73CE73CE73CE73CE778
:103D30003DE73DE73DE75DE75DE75DEF7DEF7DEF6B
:103D40007DEF7DEF7EEF7EEF7EEF7DEF7DEF7DEF10
:103D5000BEF79EEF9EF7BEF7DFF7DFF7DFF7DFF77F
:103D6000DFF7DFF7DFF7DFF7DFF7DFF7BFF7BFF7E3
:103D7000BEF79EF79EEF9EEF7DEF5DEF3CE73CE7E1
:103D80001CDFFBDEDBDEBAD69AD699D679D658CEC2
:103D900058CE37CE37CE37CE37CE37CE37CE37D6D2
:103DA00037D657D657D678D678DE98DE99DEB9DE84
:103DB000D9E6D9E6FAE6FAE61AEF1AEF1AEF3BEF80
:103DC0005BEFBEF7BEF7BDF7BEF7BEF7BEF7DEF797
:103DD000DEFFDEFFDEFFDEFFDEFFBDF7BDF7BEFF6D
:103DE000BEFFBDFF7DF75CF754AD86298629862985
:103DF000862986298629862986298629862986294B
:103E0000862986298629862986298629862986293A
:103E1000862986298629862986298629862986292A
:103E2000862986298629862986298629862986291A
:103E3000862986298629862986298629862986290A
:103E400086298629862986298629862986298629FA
:103E500086298629862986298629862986298629EA
:103E600086298629862986298629862986298629DA
:103E700086298629862986298629862986298629CA
:103E800086298629862986298629862986298629BA
:103E900086298629862986298629862986298629AA
:103EA000862986298629862986298629862986299A
:103EB0008629862986298629862986298629083AF7
:103EC000C7316629E418E418E4182521C7318A4A65
:103ED0004D63F0735284D48C97A55AC6DCD63DE767
:103EE0007DEF9EEF9EF79EEF9EEF7EEF7DE75DE715
:103EF0005DE73DE73CE79ACEBAD639C655ADEF7BD4
:103F00008E73EB620B63318496B5F7BD39C679CEFB
:103F1000DBD65CE73CE7FBDEFBDE9AD659CEBAD6B1
:103F20001CDF1CDF3DE75DE75DEF7DEF7DEF7DEFA3
:103F30007DEF7DEF7DEF7DEF7DEF7DEF7DEF7DEF21
:103F40007DEF7DEF7DEF5DEF5DEF5DE75DE75DE7C9
:103F50003DE73DE73DE73DE73DE73DE73CE73DE742
:103F60003DE73DE73DE73DE73DE73DE73DE73DE731
:103F70005DE75DE75DE75DE75DEF5DEF5DEF7DEFE1
:103F80001CDF3DE75DE75DE75DE75DE75DE75DE77A
:103F90005DE75DE75DE75DE75DE75DE75DE75DE701
:103FA0005DE75DE75DEF7DEF7DEF7DEF7DEF7DEF21
:103FB0007DEF7DEF9EEF9EF79EEF7EEF7DEF9EEF14
:103FC000BEF7BFF7DFF7DFF7DFF7DFF7DFF7DFF782
:103FD000DFF7BFF7BFF7BFF7BEF7BEF7BEF79EEF3D
:103FE0009EEF7EEF7EEF7DEF5DEF5DE73CE73CE728
:103FF0001CE71BDFFBDEFBDEDBDEDADEBADEBAD679
:1040000099D699D699D679D679D699D699DE99DE68
:10401000B9DEB9DEDADEFAE6FAE61BEF3BEF3BEF9C
:104020003BEF5BEF5CEF5CEF5CF75CF77CF7BEF7B8
:104030009DF79DF79DF7BEF7BEF7BEF7DEF7DEFFF3
:10404000DEFFDEFFDEFFDEFFBEFFBDFFBEFFBEFF09
:10405000BDFF9DF77DF7D6C5C731862986298629FC
:1040600086298629862986298629862986298629D8
:1040700086298629862986298629862986298629C8
:1040800086298629862986298629862986298629B8
:1040900086298629862986298629862986298629A8
:1040A0008629862986298629862986298629862998
:1040B0008629862986298629862986298629862988
:1040C0008629862986298629862986298629862978
:1040D0008629862986298629862986298629862968
:1040E0008629862986298629862986298629862958
:1040F0008629862986298629862986298629862948
:104100008629862986298629862986298629862937
:104110008629862986298629862986298629862927
:10412000862986298629083A08420421E4180421B0
:1041300066292942CB524E63317CF494559D97AD4C
:104140007AC61DDF7EEF9EEF9EEF9EEF9EEF7EEF25
:104150007EE75DE75DE75DE75DE75DE73DE73DE75E
:104160003DE71CDFBBD69ACEF49C31848E73718CF4
:1041700076AD39C69ACEBBD6FBDEFBDEFBDE1CE796
:104180003DE75DE77DEF9EEF3CE7FCDE1CE73CE7AB
:104190005DE75DE75DE75DE73DE75DE75DE75DE71F
:1041A0005DE75DE75DE75DE75DE75DE75DE75DE7EF
:1041B0003DE73DE73DE73DE73DE73DE73DE75DE7BF
:1041C0005DE75DE75DE75DE75DE75DEF7DEF7DEF77
:1041D0007DEF7EEF7EEF7EEF7EEF7EEF7EEF7EEF78
:1041E0007DEF7DEF7DEF7DEF7DEF3DE7FCDE5DE771
:1041F0005DE73DE73DE73DE73DE73DE71CDF1CDFD1
:104200001CDF1CDF3CE73CE73DE75DE77DEF7DEF32
:104210009EEF9EEF9EEF9EEF9EF79EEF7EEF7DEF6F
:104220005DEF5DEF5DEF7DEF7EEF9EF7BFF7BFF7D0
:10423000DFF7DFF7DFF7DFF7DFF7BFF7BFF7BFF72E
:10424000BEF7BEF7BEF79EF79EEF9EEF7EEF7EEFC6
:104250007DEF7DEF7DEF5DEF5DE75CE73CE73CE701
:104260003CE73CE73CE73CE73CE71CE71CE71CE796
:104270001BE71BE71BE71CE73CE73CEF5CEF5CEF51
:104280007DF79DF79DF7BEF7BEF7BDF7BDF7BDF70C
:104290009DF79DF7BDF7BEF7BEF7BEF7BEF7BEF7B9
:1042A000BEF7BDF7BEF7BEFFBEF7DEF7DEFFDEFFEF
:1042B000DEFFDEFFDEFFBEFFBDFFBEFFBEFFBEFFB7
:1042C000BDF79DF738CEE7318629862986298629CC
:1042D0008629862986298629862986298629862966
:1042E0008629862986298629862986298629862956
:1042F0008629862986298629862986298629862946
:104300008629862986298629862986298629862935
:104310008629862986298629862986298629862925
:104320008629862986298629862986298629862915
:104330008629862986298629862986298629862905
:1043400086298629862986298629862986298629F5
:1043500086298629862986298629862986298629E5
:1043600086298629862986298629862986298629D5
:1043700086298629862986298629862986298629C5
:104380008629862986298629862986298629C7316C
:10439000A731042104214529694A0D5B6E638E6BA8
:1043A000107C349D96ADB7AD5AC63DDF7EEF9EEFD3
:1043B0009EEF9EEF7EEF5DE75DE75DE75DE75DE722
:1043C0005DE75DE75DE75DE75DE75DE75DE75DE7CD
:1043D000BBD69AD6718CCF7B107CD39C76AD96B52C
:1043E000B6B5D7BD39C6DBD61CE71CE71CE73CE7F2
:1043F0005DE75DEF5DE71CDFFCDE1CE75DE75DE789
:104400005DE75DE75DE75DE75DE75DEF5DEF5DE77C
:104410005DEF5DE75DE75DE77DEF7DEF7DEF7DEFD4
:104420007DEF7DEF7EEF7EEF7EEF7EEF7EEF7EEF26
:104430007EEF7DEF7DEF7DEF7DEF7DEF5DEF5DE763
:104440005DE75DE75DE75DE75DE75DE75DE75DE74C
:104450005DE75DEF7DEFDBD65DE75DE75DE75DEF97
:104460007DEF5DE73DE71CDF1CDF1CDF1CDF1CDF91
:104470001CDF1CDF1CDF1CDF1CE71CE73CE73CE704
:104480003CE73DE73DE73DE73DE75DE75DE75DEFA5
:104490007DEF7EEF9EF7BEF7BFF7BFF7BFF7BFF721
:1044A000BFF7BFF7BEF7BEF7BEF7BEF7BEEF9EEF92
:1044B0009EEF9EEF9EEF7EEF7EEF7DEF7DEF5DEF57
:1044C0005DEF5DEF5DEF5DEF5DE75CE75CE75CE7AF
:1044D0005CE75CE75CE75CE75DEF5DEF5DEF5DEFA0
:1044E0007DEF7DEF9DF7BEF7BEF7BEF79DEFDADEFD
:1044F00038CE96B513A591940F8C108C9294F3A49A
:1045000055AD96B5F7BD38C699D6DADEFBDE7DEF40
:10451000BEF7BEF7BEF7DEF7DEF7DEF7DEFFDEFF43
:10452000DEFFDEFFDEFFBDFFBDFFBEFFBDFFBDFF47
:104530009DF758CEE7398629862986298629862936
:1045400086298629862986298629862986298629F3
:1045500086298629862986298629862986298629E3
:1045600086298629862986298629862986298629D3
:1045700086298629862986298629862986298629C3
:1045800086298629862986298629862986298629B3
:1045900086298629862986298629862986298629A3
:1045A0008629862986298629862986298629862993
:1045B0008629862986298629862986298629862983
:1045C0008629862986298629862986298629862973
:1045D0008629862986298629862986298629862963
:1045E0008629862986298629862986298629862953
:1045F000862986298629A731A73125210421C73993
:104600004D6B928C9294F07BCF73528455A596ADEE
:10461000F8B5DBD67DE77EEF7EEF7DEF5DE75DE70A
:104620003DE75DE75DE75DE75DE75DE75DE75DE78A
:104630003DE73DE71CDF1CDFFCDEFCDE7ACE38C642
:10464000928CB7B559C69ACE9ACE79CE79CE7ACE1B
:104650009AD63CE71CE71CE71CE71CE73CE73CE775
:104660003CE73CE71CE73DE77DEF7DEF5DE75DE77D
:104670005DE75DE75DE75DE75DE75DE75DE75DE71A
:104680005DE75DEF5DEF5DEF7DEF7DEF7DEF5DEF72
:104690005DEF5DEF5DEF5DE75DE75DE75DE75DE7E2
:1046A0005DE75DE75DE75DEF5DEF7DEF7DEF7DEF62
:1046B0007DEF7EEF7EEF7EEF9EEF9EEF9EEF9EF70B
:1046C000FCDE7EEF7EEF7EEF7EEF7EEF7DEF5DE73F
:1046D0005DEF7DEF5DEF5DE73DE73CE71CE71CE745
:1046E0003CE73CE73CE73CE73DE73DE73DE73DE7AE
:1046F0003DE73DE75DE75DE75DEF7DEF9EEF9EF710
:10470000BEF7BEF7BEF7BEF7BEF7BFF7BFF7BEF7FF
:10471000BEEFBEEF9EEF9EEF9EEF9EEF9EEF7EEF11
:104720007EEF7DEF7DEF5DEF5DE75DE75DE75DE7E8
:104730005DE75DE75DE75CE75CE75DE75DEF5DEF4B
:104740005DEF7DEF7DEF7DEF7DEF7DEF9EF7BEF7B7
:10475000BEF7FBDED7BD92946D734D6B728C75AD59
:1047600038C6DBDE5DEF9EEF9EF79EF7BEF7BEF725
:10477000BEF7BEF79EF77DEF5DE7DBDEDBD6FBDE47
:104780001CE77DEFDEFFDEF7DEFFDEFFDEFFDEFF94
:10479000DEFFDEFFBDFFBEFFBEFFBEFFBEFFBDF7FB
:1047A00038CEC731862986298629862986298629F1
:1047B0008629862986298629862986298629862981
:1047C0008629862986298629862986298629862971
:1047D0008629862986298629862986298629862961
:1047E0008629862986298629862986298629862951
:1047F0008629862986298629862986298629862941
:104800008629862986298629862986298629862930
:104810008629862986298629862986298629862920
:104820008629862986298629862986298629862910
:104830008629862986298629862986298629862900
:1048400086298629862986298629862986298629F0
:1048500086298629862986298629862986298629E0
:10486000E83966290842149D96B5149D76AD76AD5B
:10487000728C107C728C55A596AD18BE1CDF7EEF35
:104880007EEF5DE75DE73DE73DE73DE73DE73DE77F
:104890001CDF1CDF1CDF1CDF1CDF1CDF1CDF1CDF40
:1048A000FCDEFCDEDBD6BBD696AD35A5F07B728C8C
:1048B000F49C35A535A535A596B538C63DE73CE74A
:1048C0001CE71CE71CE73CE73CE73CE73CE73DE72F
:1048D0003CE77DEF5DE75DE75DE75DE75DE75DE7B1
:1048E0005DE75DE75DE75DE75DE75DE75DE75DEFA0
:1048F0005DEF5DEF5DEF5DEF7DEF7DEF7EEF9EEFB6
:104900009EEF9EEF9EF7BEF7BEF7BEF7BEF7BEF76F
:10491000BFF7BFF7BFF7BFF7BEF7BEF7BEF7BEF7EB
:10492000BEF7BEF7BEF7BEF7BEF75DE71CDF7EEF52
:104930007EEF7EEF7DE75DEF9EEFDFFFDFFFDFFFC6
:10494000DFFFDFFFDFFFDFFFDEF7BEF79EEF7DEF6C
:104950003DE73DE73DE73DE73DE73DE73DE75DE717
:104960005DE75DE77DEF9EEF9EEFBEEFBEEFBEF72A
:10497000BEF7BEF7BEEF9EEF9EEF9EEF9EEF9EEF5F
:104980009EEF9EEF7EEF7EEF7EEF7DEF7DEF5DE7AA
:104990005DE75DE75DE73DE73DE73CE73CE73CE79A
:1049A0005CE75CE75CE75CE75DE75DEF5DEF7DEFB3
:1049B0007DEF7DEF9EEF9EF73CE7D7BD308C4D6BD2
:1049C000108496B59AD67DEF9EF79EF79EEF9EEFE8
:1049D0009EEFBEF7BEF7BEF7DEF7DEF7BEF77DEF60
:1049E0005DEF5DEF5DEF7DEF5DE71CDFFCDEBBD6CD
:1049F0009ACEFBDE9DEFDEFFDEFFDEFFDEFFDEFF99
:104A0000DEFFBEFFBDFFDEFFBEFFBEFFBDF738C647
:104A1000A6298629862986298629862986298629FE
:104A2000862986298629862986298629862986290E
:104A300086298629862986298629862986298629FE
:104A400086298629862986298629862986298629EE
:104A500086298629862986298629862986298629DE
:104A600086298629862986298629862986298629CE
:104A700086298629862986298629862986298629BE
:104A800086298629862986298629862986298629AE
:104A9000862986298629862986298629862986299E
:104AA000862986298629862986298629862986298E
:104AB000862986298629862986298629862986297E
:104AC0008629862986298629A631C739452955ADE3
:104AD0009EEFDEF7B6B5B6B5B7B5D3943184518441
:104AE000149D76ADF8BDDBD65DE75DE73CE73CDFC6
:104AF0003CDF1CDF1CDF1CDF1CDF1CDF1CDF1CDFBE
:104B00001CDFFCDEFCDEFCDEFBDEDBD6BBD69ACE99
:104B10009ACEF8B5AA52D7BD96B518C69ACEFBDE86
:104B20003CE79EF71CDF1CE73CE73CE73CE73CE743
:104B30003CE73CE73CE73CE73CE73CE75DE73CE73C
:104B40003DE75DEF7DEF7DEF7DEF7DEF7EEF9EEF4B
:104B50009EEF9EEF9EEF9EF7BEF7BEF7BEF7BEF745
:104B6000BEF7BEF7BEF7BEF7BEF7BEF7BEF7BEF79D
:104B7000BEF7BEF7BEF7BEF7BEF79EF79EF79EEFF5
:104B80009EEF9EEF9EEF7EEF7EEF7EEF7EEF7EEF5D
:104B90007EEF9EEF9EF7BBCE9EEF9EEF9EF7BEF799
:104BA000BEF7DFFFDFFFDFFFDFFFDFFFDFFFDFFF3E
:104BB000DFFFDFFFDFFFDFFFDFFFDFFFDFFFBEF72E
:104BC0007EEF3DE73DE73DE73DE75DE75DE77DEFF4
:104BD0009EEF9EEF9EEF9EEF9EEF9EEF9EEF9EEF6D
:104BE0009EEF9EEF9EEF9EEF7EEF7EEF7EEF7EEFDD
:104BF0007DEF7DEF5DEF5DE75DE75DE73DE73DE77D
:104C00003DE73CE71CE71CE73CE73CE73CE73CE7CB
:104C10005CE75CE75DE75DEF7DEF7DEF9EF7BEF75C
:104C2000BAD614A56D733084B6B5FBDE9EEF9EF741
:104C30009DEF7DEF7DEF9EEFBEF7DEF79EEF1CE769
:104C4000DBDE9AD679CE79CE9AD679CE59CE38C6D1
:104C500017C617C617C638C679CEDBDEFBDEDBD635
:104C60009AD6BAD63CE7DEF7DEFFDEFFDEFFDEFFD8
:104C7000BEFFBDFFDEFFDEFFBEFFBDF795B5862997
:104C800086298629862986298629862986298629AC
:104C9000862986298629862986298629862986299C
:104CA000862986298629862986298629862986298C
:104CB000862986298629862986298629862986297C
:104CC000862986298629862986298629862986296C
:104CD000862986298629862986298629862986295C
:104CE000862986298629862986298629862986294C
:104CF000862986298629862986298629862986293C
:104D0000862986298629862986298629862986292B
:104D1000862986298629862986298629862986291B
:104D2000862986298629862986298629862986290B
:104D30008629E739A6314D6BFBDEDFFFDFF738C68A
:104D4000149D76AD14A551845184D39455A5B6B560
:104D50007ACEFCDEFCDEFBDEFCDE1CDF1CDF1CDFB3
:104D60001CDF1CDF1CDF1CDFFCDEFCDEDBDEDBD639
:104D7000BBD69ACE59C638BEF8BDD7B597ADEC5A5A
:104D80002D6B3CE73CE73CE7FCDEFBDEDBD67ACE76
:104D9000DBDE3CE73CE73CE71CE71CE71CE71CE7E5
:104DA0003CE73CE73CE73CE75DE73CE73DE75DEFA0
:104DB0007DEF9EEF9EEF9EF79EF7BEF7BEF7BEF724
:104DC000BEF79EF79EEF9EEF7EEF7DEF7DEF7DEFCE
:104DD0007EEF7DEF7EEF7EEF7EEF7EEF7EEF7EEF6C
:104DE0009EEF9EEF9EEF9EEF9EF7BEF7BEF7BEF7DB
:104DF000BEF7DEF7DFF7DFFFDFFFDFFFDFFFDFFFFD
:104E00001CDF9EEFDFFFDFFFDFFFDFFFDFFFDFFFE6
:104E1000DFFFDFFFDFFFDFFFDFFFDFFFDFFFDFFFA2
:104E2000DFFFDFFFDFFFDFFFDFFFDFFFDFFFDEF79B
:104E30005DE73DE75DE75DE77DEF7EEF9EEF9EEF8F
:104E40009EEF9EEF9EEF9EEF9EEF9EEF7EEF7EEF3A
:104E50007EEF7EEF7EEF7DEF5DEF5DE75DE75DE787
:104E60003DE73DE73DE73CE73CE73CE73CE71CE747
:104E70001CE71CE71CE71CE71CE73CE73CE73CE7BA
:104E80005CE77DEF9EF7BEF7BAD69294F07B34A52F
:104E90009ACE9EEFBEF77DEF7DEF7DEFBEF7DEF79A
:104EA000DEF75CE7BAD639C618C679CE38C696B5ED
:104EB000F39C10844C6BEB62EB5ACA5AAA5AAA5262
:104EC000AA52AA5A2C6BEF83D29CD6BDBAD6FBDE6F
:104ED000DAD679CE1BE7BEF7DEFFDEFFDEFFBEFFD0
:104EE000BEFFDEFFDEFFBEFFBDF7B2948629862936
:104EF000862986298629862986298629862986293A
:104F00008629862986298629862986298629862929
:104F10008629862986298629862986298629862919
:104F20008629862986298629862986298629862909
:104F300086298629862986298629862986298629F9
:104F400086298629862986298629862986298629E9
:104F500086298629862986298629862986298629D9
:104F600086298629862986298629862986298629C9
:104F700086298629862986298629862986298629B9
:104F800086298629862986298629862986298629A9
:104F90008629862986298629862986298A4AC73923
:104FA000139DBEF7DFFFDFFF3CE7F39C35A576AD31
:104FB000B394728C928C149D55A518BEBBD6BBD6EB
:104FC0009AD6BAD6DBDEFCDE1CDFFCDEFCDEFBDEC6
:104FD000DBDEDBD69ACE59C618BED7B576AD359D89
:104FE000D394928C5184107C6E6BC739728CD3949D
:104FF000D394F49C35A596AD39C67ACE3CE73DE70F
:105000003DE73DE75DE75DE77DEF7DEF7DEF7DEF20
:105010009EEF9EEF9EEF9EEF9EEF7DEF7DEF7DEF8B
:105020007DEF7DEF7DEF7DEF9EEF9EEF9EEF9EF794
:10503000BEF7BEF7DEF7DFF7DFF7DFFFDFFFDFFFEB
:10504000DFFFDFFFDFFFDFFFDFFFDFFFDFFFDFFF70
:10505000FFFFDFFFDFFFDFFFDFFFDFFFDFFFDFFF40
:10506000DFFFDFFFDFFFDFFFDFFFDFFFDBD6DFFF7D
:10507000DFFFDFFFDFFFDFFFDFFFDFFFDFFFDFFF40
:10508000DFFFDFFFDFFFDFFFDFFFDFFFDFFFDFFF30
:10509000DFFFDFFFDFFFDFFFDFFFDFFFDFFF9EF769
:1050A0005DE75DE77DEF7EEF7EEF7EEF7EEF7EEFEB
:1050B0007EEF7EEF7EEF7EEF7EEF7DEF5DE75DEFD3
:1050C0005DE75DE75DE73DE73DE73DE73CE73CE762
:1050D0001CE71CDF1CDF1CDF1CDF1CDF1CDF1CDFF0
:1050E0001CDF1CDF1CE71CE73CE75CE79EF7DEF7F4
:1050F0003CE7149D9294D7BDDBD69DEFBEF79DEFA4
:105100009DEFBEF7DEF7BEF73CE718C696B518BEB2
:10511000D7BD34A5518C2C63694A694A694A694AEA
:10512000694A694A694A494A484A484A494A694A69
:10513000694A694A6952EB628D7334A59AD61CE7B5
:10514000FBDEBAD63CE7DEFFDEFFDEFFDEFFBEFFA2
:10515000DEFFDEFFDEFF7DF78E7386298629862936
:1051600086298629862986298629862986298629C7
:1051700086298629862986298629862986298629B7
:1051800086298629862986298629862986298629A7
:105190008629862986298629862986298629862997
:1051A0008629862986298629862986298629862987
:1051B0008629862986298629862986298629862977
:1051C0008629862986298629862986298629862967
:1051D0008629862986298629862986298629862957
:1051E0008629862986298629862986298629862947
:1051F0008629862986298629862986298629862937
:105200008629862986292942E73918C6DFFFDFFF6C
:10521000DFF7DFF7B6B5B6B539C6F7BDB394928CF4
:10522000F39C349D76AD7ACE9AD679CE59CE7ACE8D
:10523000DBD6FBDEFBDEDBD6BAD659CE18BE96B582
:1052400014A5B2943184AF734E6B0D630D632D635F
:105250008E6BCF73694ACC5A76AD97B5F8BD7ACECE
:105260001CE7BEF71CDFDFFFDFFFDFFFDFFFDFFF35
:10527000DFFFDFFFDFFFDFFFDFFFDFFFDFFFDFFF3E
:10528000DFFFDFFFDFFFDFFFDFFFDFFFDFFFDFFF2E
:10529000DFFFDFFFDFFFDFFFDFFFDFFFDFFFDFFF1E
:1052A000DFFFFFFFDFFFDFFFDFFFDFFFDFFFDFFFEE
:1052B000DFFFDFFFDFFFDFFFDFFFDFFFDFFFDFFFFE
:1052C000DFFFDFFFDFFFDFFFDFFFDFFFDFFFDFFFEE
:1052D000DFFFDFFFDFFF1CDFBEF7DFFFDFFFDFFFEA
:1052E000DFFFDFFFDFFFDFFFDFFFDFFFDFFFDFFFCE
:1052F000DFFFDFFFDFFFDFFFDFFFDFFFDFFFDFFFBE
:10530000DFFFDFFFDFFFDFFFDFFFDFFFDEF77EEF27
:105310005DE75EEF5EEF7EEF7EEF5EEF5EEF5DE7F7
:105320005DE75DE75DE75DE75DE73DE73DE73DE7BD
:105330003CE73CE71CE71CE71CDF1CDF1CDF1CDF35
:105340001CDFFCDEFCDEFCDEFCDEFBDE1CDF1CDF2B
:105350001CE71CE75DEFBEF7BEF738C6D39C18BE4E
:105360009AD65DE7BEF7BEF7BEF7BEF79EEF5DE7E4
:10537000BBD6F49CEB622C6BCF7BEB62494A494A6B
:10538000484A484A484A284A0742C739A631652947
:1053900045292421242124212429452965298631D0
:1053A000C7390742284A89520B6BF3A4DADE3CE77F
:1053B000FBDEBADE9DF7DEFFDEFFDEFFDEFFDEFF97
:1053C000DEFFDEFF1BE728428629862986298629FB
:1053D0008629862986298629862986298629862955
:1053E0008629862986298629862986298629862945
:1053F0008629862986298629862986298629862935
:105400008629862986298629862986298629862924
:105410008629862986298629862986298629862914
:105420008629862986298629862986298629862904
:1054300086298629862986298629862986298629F4
:1054400086298629862986298629862986298629E4
:1054500086298629862986298629862986298629D4
:1054600086298629862986298629862986298629C4
:10547000694A494ABAD6DFFFDFFFDFF7DFF71CE7EB
:1054800079CEFBDE1CE7D7B5B394B394D394B29432
:1054900096AD59CE59C638C639C659CE9ACE9ACE8F
:1054A00039C6D7B555A5B294107C6E6B0D630C5BF5
:1054B0004E6BF07B929435A5B7B539C67ACEB394CE
:1054C0002942149D96B59EF79EEFBEF7DFF77DEF5C
:1054D0009EEFDFFFDFFFDFFFDFFFDFFFDFFFDFFF2D
:1054E000DFFFDFFFDFFFDFFFDFFFDFFFDFFFDFFFCC
:1054F000DFFFDFFFDFFFDFFFDFFFDFFFDFFFDFFFBC
:10550000DFFFDFFFDFFFDFFFDFFFDFFFDFFFDFFFAB
:10551000DFFFDFFFDFFFDFFFDFFFDFFFDFFFDFFF9B
:10552000DFFFDFFFDFFFDFFFDFFFDFFFDFFFDFFF8B
:10553000DFFFDFFFDFFFDFFFDFFFDFFFDFFFDFFF7B
:10554000DFFFDCD6DFFFDFFFDFFFDFFFDFFFDFFF97
:10555000DFFFDFFFDFFFDFFFDFFFDFFFDFFFDFFF5B
:10556000DFFFDFFFDFFFDFFFDFFFDFFFDFFFDFFF4B
:10557000DFFFDFFFDFFFDFFFDFFF9EF75DE75DE7B8
:105580005DE75DE75DE75DE75DE75DE73DE73DE73B
:105590003DE73DE73CE73CE71CE71CE71CDF1CDF81
:1055A0001CDF1CDFFCDEFCDEFCDEFCDEFCDEFCDEE9
:1055B000FCDEFCDEFBDEFBDEFCDE1CDF1CE77DEF41
:1055C000DEF73CE776ADF7BDF8BD9AD6BEF7BEF77D
:1055D000BEF79EF73DE7DBD67ACED394494AC7396A
:1055E0000742084208422842284A284A0742C63948
:1055F00065314529242104210421242165296529B7
:105600002529042124212421242124212421242189
:105610006531C639E741484AEB6255AD1CE73CE7C6
:10562000DBDE3CE7DEFFDEFFDEFFDEFFDEFFDEFF70
:10563000BEF7D6BD86298629862986298629862908
:1056400086298629862986298629862986298629E2
:1056500086298629862986298629862986298629D2
:1056600086298629862986298629862986298629C2
:1056700086298629862986298629862986298629B2
:1056800086298629862986298629862986298629A2
:105690008629862986298629862986298629862992
:1056A0008629862986298629862986298629862982
:1056B0008629862986298629862986298629862972
:1056C0008629862986298629862986298629862962
:1056D000862986298629862986292842694ADBDE89
:1056E000DEF7DFFFDFFFDFF7DFF7BEF7DEF7DFFF15
:1056F000BEF756ADB294928CEF7B107CB6B518BE57
:10570000F8BDF8BDF7BDD7BDB7B555ADB294EF7BC9
:105710004D630D638F6B728C56A518BE9ACEFCDE5E
:105720005DE79DEFBEF7DFF79EF76E6B4D6BD7B56C
:1057300096ADDEF7BEF7DEF7DFFF1CDFDFFFDFFF32
:10574000DFFFDFFFDFFFDFFFDFFFDFFFDFFFDFFF69
:10575000DFFFDFFFDFFFDFFFDFFFDFFFDFFFDFFF59
:10576000DFFFDFFFDFFFDFFFDFFFDFFFDFFFDFFF49
:10577000DFFFDFFFDFFFDFFFDFFFDFFFDFFFDFFF39
:10578000DFFFDFFFDFFFDFFFDFFFDFFFDFFFDFFF29
:10579000DFFFDFFFDFFFDFFFDFFFDFFFDFFFDFFF19
:1057A000DFFFDFFFDFFFDFFFDFFFDFFF3DE77DEF35
:1057B000DFFFDFFFDFFFDFFFDFFFDFFFDFFFDFFFF9
:1057C000DFFFDFFFDFFFDFFFDFFFDFFFDFFFDFFFE9
:1057D000DFFFDFFFDFFFDFFFDFFFDFFFDFFFDFF7E1
:1057E000DFFFDFFF9EEF5DE75DE75DE73DE73DE75C
:1057F0003DE73DE73DE73DE73CE73CE71CE71CDFD5
:105800001CDF1CDF1CDF1CDFFCDEFCDEFCDEFCDE44
:10581000FBDEFBDEFBDEFBDEFBDEFBDEFBDEFBDEC0
:10582000FBDEFCDEFCDE1CE79EF7DEF779CE96ADF4
:10583000B7B596B51CDF5DE73CE71CDFBBD69ACE5B
:105840009ACE35A56A52A631C739074208420842A6
:1058500028422842C73985314529A6314D6B518CE4
:1058600013A575B5D6BD17C638CE38CE17C6D7BD69
:1058700095B513A571940C632421042104212421DE
:105880006529C639C63928428D7379CE3CE71BE7B6
:105890001BE7DEFFDEFFDEFFDEFFDEFFDEF79DF74C
:1058A0000F8486298629862986298629862986299C
:1058B0008629862986298629862986298629862970
:1058C0008629862986298629862986298629862960
:1058D0008629862986298629862986298629862950
:1058E0008629862986298629862986298629862940
:1058F0008629862986298629862986298629862930
:10590000862986298629862986298629862986291F
:10591000862986298629862986298629862986290F
:1059200086298629862986298629862986298629FF
:1059300086298629862986298629862986298629EF
:10594000862986292842494ABAD6DEF7DFFFDFFFDB
:10595000DFFFDFF7DFFFDFFFDFFFDFFFDFF735A56B
:10596000928CEF7B8E73CF7B96ADD7B5B7B596B5DE
:1059700034A5B29410846E6B2D63F07B159D18BE18
:10598000DBD65DE79EEFBFF7DFFFDFFFDFFFDFFF67
:10599000DFFFDFFF7ACE8E73F49C96AD56A5DEF75F
:1059A000BEF7DEF73CE7BEF7DFFFDFFFDFFFDFFF1D
:1059B000DFFFDFFFDFFFDFFFDFFFDFFFDFFFDFFFF7
:1059C000DFFFDFFFDFFFDFFFDFFFDFFFDFFFDFFFE7
:1059D000DFFFDFFFDFFFDFFFDFFFDFFFDFFFDFFFD7
:1059E000DFFFDFFFDFFFDFFFDFFFDFFFDFFFDFFFC7
:1059F000DFFFDFFFDFFFDFFFDFFFDFFFDFFFDFFFB7
:105A0000DFFFDFFFDFFFDFFFDFFFDFFFDFFFDFFFA6
:105A1000DFFFDFFFDFFFDFFFDCD6DFFFDFFFDFFFC2
:105A2000DFFFDFFFDFFFDFFFDFFFDFFFDFFFDFFF86
:105A3000DFFFDFFFDFFFDFFFDFFFDFFFDFFFDFFF76
:105A4000DFFFDFFFDFFFDFFFDFF7DFF7DFFF9EEFC7
:105A50005DE75DE75DE73DE73DE73CE71CE71CDF11
:105A60001CDF1CDF1CDF1CDFFCDEFCDEFCDEFCDEE2
:105A7000FCDEFBDEFBDEFBDEFBDEFBDEDBDEDBDE9D
:105A8000DBDEDBDEDBDEDBDEDBDEFBDEFBDEFBDEEE
:105A90001CE7BEF79EEF9ACE18BED7B5BBD63CDF4B
:105AA0001CE71CDFFBDE18BE928CB7AD6D6B653159
:105AB000A631E73907422842284A2842C7398631A9
:105AC0000842CF7B34A538C69AD6DAD6FBDEFBDE99
:105AD000FBDEFBDEFBDEFBDEDBDEDAD6BAD6BAD6D9
:105AE0009ACE99D658CE55ADAE7B042104212421FF
:105AF000E741694AC639284A55AD5CEF5CEF1BE7C0
:105B0000DEFFDEFFBDFFDEFFDEFFBEFFFAE6E739A8
:105B1000862986298629862986298629862986290D
:105B200086298629862986298629862986298629FD
:105B300086298629862986298629862986298629ED
:105B400086298629862986298629862986298629DD
:105B500086298629862986298629862986298629CD
:105B600086298629862986298629862986298629BD
:105B700086298629862986298629862986298629AD
:105B8000862986298629862986298629862986299D
:105B9000862986298629862986298629862986298D
:105BA0008629862986298629862986298629C73134
:105BB000284A58C6DEF7DFFFDFFFDFFFDFFFFFFF0A
:105BC000FFFFDFFFDFFFDFFFDEFFF49C31848E731A
:105BD0008E73CF7B55A576AD34A5928CCF734D6B6C
:105BE000AF73F49439C61CE79EF7DEF7DFFFDFFFE3
:105BF000DFFFDFFFDFFFDFFFDFFFDFFFDFFFDFFFB5
:105C0000D7BD4E6B97AD149D35A5BEF7DEF7DEF719
:105C10003CE7DFFFDFFFDFFFDFFFDFFFDFFFDFFF4F
:105C2000DFFFDFFFDFFFDFFFDFFFDFFFDFFFDFFF84
:105C3000DFFFDFFFDFFFDFFFDFFFDFFFDFFFDFFF74
:105C4000DFFFDFFFDFFFDFFFDFFFDFFFDFFFDFFF64
:105C5000DFFFDFFFDFFFDFFFDFFFDFFFDFFFDFFF54
:105C6000DFFFDFFFDFFFDFFFDFFFDFFFDFFFDFFF44
:105C7000DFFFDFFFDFFFDFFFDFFFDFFFDFFFDFFF34
:105C8000DFFFBEF71CDFDFFFDFFFDFFFDFFFDFFF30
:105C9000DFFFDFFFDFFFDFFFDFFFDFFFDFFFDFFF14
:105CA000DFFFDFFFDFFFDFFFDFFFDFFFDFFFDFFF04
:105CB000DFFFDFF7DFF7DFFF9EF75DE73DE73DE75B
:105CC0003DE73DE73CE71CDF1CDFFCDEFCDEFCDEE5
:105CD000FBDEFBDEFBDEFBDEFBDEDBDEDBDEDBDE5C
:105CE000DBDEDBD6DBD6DBD6DBD6DBD6DBD6DBD624
:105CF000DBD6DBD6DBD6DBDEFBDE1CE7BEF75DEFFB
:105D00001CDFBEF77EEF5DE73DE71CDF1CDF1CDF1D
:105D100018BEAF734E63A6314529C73907422842E2
:105D2000284A2842E73986390C6313A538C69AD623
:105D3000DBDEDBDE38C6D7BD95B534A5F39CD29C3F
:105D4000D39C14A555ADD7B559CEDBDEDBDEDBDE4B
:105D5000BAD6BAD6BAD658CEB29CE739042169521F
:105D60008D73CB5A084230841CE77DEF3CEFDEFF99
:105D7000DEFFDDFFDEFFDEFF9DF775B58629862994
:105D8000862986298629862986298629862986299B
:105D9000862986298629862986298629862986298B
:105DA000862986298629862986298629862986297B
:105DB000862986298629862986298629862986296B
:105DC000862986298629862986298629862986295B
:105DD000862986298629862986298629862986294B
:105DE000862986298629862986298629862986293B
:105DF000862986298629862986298629862986292B
:105E0000862986298629862986298629862986291A
:105E100086298629862986298629AA5A55ADDEF73C
:105E2000DFFFDFFFDFFFDFFFDFFFFFFFFFFFDFFF42
:105E3000DFFFDFFFDEF7D394EF7B6D6B8E73CF7BDD
:105E4000D39CB394EF7B6D6BCF7B55A5BAD67DEF1A
:105E5000DFF7DFFFDFFFDFFFDFFFDFFFDFFFDFFF5A
:105E6000DFFFDFFFDFFFDFFFDFFF9EF775AD159D73
:105E700076AD159D56A5BEF7DFFF3CE7DFF7DFFFE8
:105E8000DFFFDFFFDFFFDFFFDFFFDFFFDFFFDFFF22
:105E9000DFFFDFFFDFFFDFFFDFFFDFFFDFFFDFFF12
:105EA000DFFFDFFFDFFFDFFFDFFFDFFFDFFFDFFF02
:105EB000DFFFDFFFDFFFDFFFDFFFDFFFDFFFDFFFF2
:105EC000DFFFDFFFDFFFDFFFDFFFDFFFDFFFDFFFE2
:105ED000DFFFDFFFFFFFDFFFDFFFDFFFDFFFDFFFB2
:105EE000DFFFDFFFDFFFDFFFDFFFDFFFDFFFDCD6EE
:105EF000DFF7DFFFDFFFDFFFDFFFDFFFDFFFDFFFBA
:105F0000DFFFDFFFDFFFDFFFFFFFDFFFDFFFDFFF81
:105F1000DFFFDFFFDFFFDFFFDFFFDFFFDFF7DFF7A1
:105F2000DFFFBEF73DE73DE73DE73DE73CE71CDF30
:105F30001CDFFCDEFCDEFCDEFBDEDBDEDBDEDBDED4
:105F4000DBD6DBD6DBD6BBD6BBD6BBD6BBD6BBD669
:105F5000BBD6BBD6BBD6BBD6BBD6BBD6BBD6BBD6B9
:105F6000DBD6DBDE1CDFBEF73CE73CE79EEF5DE700
:105F70005DE73DE73CE71CE71CDFF8BD0C63294209
:105F800024218531C73907422842284AE74186390A
:105F90004D6B75AD79CEBAD658CED6BD75AD919450
:105FA000718C308CCF7B8D736D736D738D7B8D7326
:105FB0008D736D732C6B6D73929496B59AD6DBDEF0
:105FC000DBDEDAD6BAD679CEF39C8A528E73518C48
:105FD000308CCB5A8D73FBDE9DF77CF7DEFFDDFF47
:105FE000DEFFDEFFBDFF5CF74D6B86298629862923
:105FF0008629862986298629862986298629862929
:106000008629862986298629862986298629862918
:106010008629862986298629862986298629862908
:1060200086298629862986298629862986298629F8
:1060300086298629862986298629862986298629E8
:1060400086298629862986298629862986298629D8
:1060500086298629862986298629862986298629C8
